{
  "_format": "hh-sol-artifact-1",
  "contractName": "ETHDaddy",
  "sourceName": "contracts/ETHDaddy.sol",
  "abi": [
    {
      "inputs": [
        {
          "internalType": "string",
          "name": "_name",
          "type": "string"
        },
        {
          "internalType": "string",
          "name": "_symbol",
          "type": "string"
        }
      ],
      "stateMutability": "nonpayable",
      "type": "constructor"
    },
    {
      "anonymous": false,
      "inputs": [
        {
          "indexed": true,
          "internalType": "address",
          "name": "owner",
          "type": "address"
        },
        {
          "indexed": true,
          "internalType": "address",
          "name": "approved",
          "type": "address"
        },
        {
          "indexed": true,
          "internalType": "uint256",
          "name": "tokenId",
          "type": "uint256"
        }
      ],
      "name": "Approval",
      "type": "event"
    },
    {
      "anonymous": false,
      "inputs": [
        {
          "indexed": true,
          "internalType": "address",
          "name": "owner",
          "type": "address"
        },
        {
          "indexed": true,
          "internalType": "address",
          "name": "operator",
          "type": "address"
        },
        {
          "indexed": false,
          "internalType": "bool",
          "name": "approved",
          "type": "bool"
        }
      ],
      "name": "ApprovalForAll",
      "type": "event"
    },
    {
      "anonymous": false,
      "inputs": [
        {
          "indexed": true,
          "internalType": "address",
          "name": "from",
          "type": "address"
        },
        {
          "indexed": true,
          "internalType": "address",
          "name": "to",
          "type": "address"
        },
        {
          "indexed": true,
          "internalType": "uint256",
          "name": "tokenId",
          "type": "uint256"
        }
      ],
      "name": "Transfer",
      "type": "event"
    },
    {
      "inputs": [
        {
          "internalType": "address",
          "name": "to",
          "type": "address"
        },
        {
          "internalType": "uint256",
          "name": "tokenId",
          "type": "uint256"
        }
      ],
      "name": "approve",
      "outputs": [],
      "stateMutability": "nonpayable",
      "type": "function"
    },
    {
      "inputs": [
        {
          "internalType": "address",
          "name": "owner",
          "type": "address"
        }
      ],
      "name": "balanceOf",
      "outputs": [
        {
          "internalType": "uint256",
          "name": "",
          "type": "uint256"
        }
      ],
      "stateMutability": "view",
      "type": "function"
    },
    {
      "inputs": [
        {
          "internalType": "uint256",
          "name": "tokenId",
          "type": "uint256"
        }
      ],
      "name": "getApproved",
      "outputs": [
        {
          "internalType": "address",
          "name": "",
          "type": "address"
        }
      ],
      "stateMutability": "view",
      "type": "function"
    },
    {
      "inputs": [],
      "name": "getBalance",
      "outputs": [
        {
          "internalType": "uint256",
          "name": "",
          "type": "uint256"
        }
      ],
      "stateMutability": "view",
      "type": "function"
    },
    {
      "inputs": [
        {
          "internalType": "uint256",
          "name": "_id",
          "type": "uint256"
        }
      ],
      "name": "getDomains",
      "outputs": [
        {
          "components": [
            {
              "internalType": "string",
              "name": "name",
              "type": "string"
            },
            {
              "internalType": "uint256",
              "name": "cost",
              "type": "uint256"
            },
            {
              "internalType": "bool",
              "name": "isOwned",
              "type": "bool"
            }
          ],
          "internalType": "struct ETHDaddy.Domain",
          "name": "",
          "type": "tuple"
        }
      ],
      "stateMutability": "view",
      "type": "function"
    },
    {
      "inputs": [
        {
          "internalType": "address",
          "name": "owner",
          "type": "address"
        },
        {
          "internalType": "address",
          "name": "operator",
          "type": "address"
        }
      ],
      "name": "isApprovedForAll",
      "outputs": [
        {
          "internalType": "bool",
          "name": "",
          "type": "bool"
        }
      ],
      "stateMutability": "view",
      "type": "function"
    },
    {
      "inputs": [
        {
          "internalType": "string",
          "name": "_name",
          "type": "string"
        },
        {
          "internalType": "uint256",
          "name": "_cost",
          "type": "uint256"
        }
      ],
      "name": "list",
      "outputs": [],
      "stateMutability": "nonpayable",
      "type": "function"
    },
    {
      "inputs": [],
      "name": "maxSupply",
      "outputs": [
        {
          "internalType": "uint256",
          "name": "",
          "type": "uint256"
        }
      ],
      "stateMutability": "view",
      "type": "function"
    },
    {
      "inputs": [
        {
          "internalType": "uint256",
          "name": "_id",
          "type": "uint256"
        }
      ],
      "name": "mint",
      "outputs": [],
      "stateMutability": "payable",
      "type": "function"
    },
    {
      "inputs": [],
      "name": "name",
      "outputs": [
        {
          "internalType": "string",
          "name": "",
          "type": "string"
        }
      ],
      "stateMutability": "view",
      "type": "function"
    },
    {
      "inputs": [],
      "name": "owner",
      "outputs": [
        {
          "internalType": "address",
          "name": "",
          "type": "address"
        }
      ],
      "stateMutability": "view",
      "type": "function"
    },
    {
      "inputs": [
        {
          "internalType": "uint256",
          "name": "tokenId",
          "type": "uint256"
        }
      ],
      "name": "ownerOf",
      "outputs": [
        {
          "internalType": "address",
          "name": "",
          "type": "address"
        }
      ],
      "stateMutability": "view",
      "type": "function"
    },
    {
      "inputs": [
        {
          "internalType": "address",
          "name": "from",
          "type": "address"
        },
        {
          "internalType": "address",
          "name": "to",
          "type": "address"
        },
        {
          "internalType": "uint256",
          "name": "tokenId",
          "type": "uint256"
        }
      ],
      "name": "safeTransferFrom",
      "outputs": [],
      "stateMutability": "nonpayable",
      "type": "function"
    },
    {
      "inputs": [
        {
          "internalType": "address",
          "name": "from",
          "type": "address"
        },
        {
          "internalType": "address",
          "name": "to",
          "type": "address"
        },
        {
          "internalType": "uint256",
          "name": "tokenId",
          "type": "uint256"
        },
        {
          "internalType": "bytes",
          "name": "data",
          "type": "bytes"
        }
      ],
      "name": "safeTransferFrom",
      "outputs": [],
      "stateMutability": "nonpayable",
      "type": "function"
    },
    {
      "inputs": [
        {
          "internalType": "address",
          "name": "operator",
          "type": "address"
        },
        {
          "internalType": "bool",
          "name": "approved",
          "type": "bool"
        }
      ],
      "name": "setApprovalForAll",
      "outputs": [],
      "stateMutability": "nonpayable",
      "type": "function"
    },
    {
      "inputs": [
        {
          "internalType": "bytes4",
          "name": "interfaceId",
          "type": "bytes4"
        }
      ],
      "name": "supportsInterface",
      "outputs": [
        {
          "internalType": "bool",
          "name": "",
          "type": "bool"
        }
      ],
      "stateMutability": "view",
      "type": "function"
    },
    {
      "inputs": [],
      "name": "symbol",
      "outputs": [
        {
          "internalType": "string",
          "name": "",
          "type": "string"
        }
      ],
      "stateMutability": "view",
      "type": "function"
    },
    {
      "inputs": [
        {
          "internalType": "uint256",
          "name": "tokenId",
          "type": "uint256"
        }
      ],
      "name": "tokenURI",
      "outputs": [
        {
          "internalType": "string",
          "name": "",
          "type": "string"
        }
      ],
      "stateMutability": "view",
      "type": "function"
    },
    {
      "inputs": [],
      "name": "totalSupply",
      "outputs": [
        {
          "internalType": "uint256",
          "name": "",
          "type": "uint256"
        }
      ],
      "stateMutability": "view",
      "type": "function"
    },
    {
      "inputs": [
        {
          "internalType": "address",
          "name": "from",
          "type": "address"
        },
        {
          "internalType": "address",
          "name": "to",
          "type": "address"
        },
        {
          "internalType": "uint256",
          "name": "tokenId",
          "type": "uint256"
        }
      ],
      "name": "transferFrom",
      "outputs": [],
      "stateMutability": "nonpayable",
      "type": "function"
    }
  ],
  "bytecode": "0x60806040523480156200001157600080fd5b50604051620033ea380380620033ea83398181016040528101906200003791906200023b565b818181600090816200004a91906200050b565b5080600190816200005c91906200050b565b50505033600960006101000a81548173ffffffffffffffffffffffffffffffffffffffff021916908373ffffffffffffffffffffffffffffffffffffffff1602179055505050620005f2565b6000604051905090565b600080fd5b600080fd5b600080fd5b600080fd5b6000601f19601f8301169050919050565b7f4e487b7100000000000000000000000000000000000000000000000000000000600052604160045260246000fd5b6200011182620000c6565b810181811067ffffffffffffffff82111715620001335762000132620000d7565b5b80604052505050565b600062000148620000a8565b905062000156828262000106565b919050565b600067ffffffffffffffff821115620001795762000178620000d7565b5b6200018482620000c6565b9050602081019050919050565b60005b83811015620001b157808201518184015260208101905062000194565b60008484015250505050565b6000620001d4620001ce846200015b565b6200013c565b905082815260208101848484011115620001f357620001f2620000c1565b5b6200020084828562000191565b509392505050565b600082601f83011262000220576200021f620000bc565b5b815162000232848260208601620001bd565b91505092915050565b60008060408385031215620002555762000254620000b2565b5b600083015167ffffffffffffffff811115620002765762000275620000b7565b5b620002848582860162000208565b925050602083015167ffffffffffffffff811115620002a857620002a7620000b7565b5b620002b68582860162000208565b9150509250929050565b600081519050919050565b7f4e487b7100000000000000000000000000000000000000000000000000000000600052602260045260246000fd5b600060028204905060018216806200031357607f821691505b602082108103620003295762000328620002cb565b5b50919050565b60008190508160005260206000209050919050565b60006020601f8301049050919050565b600082821b905092915050565b600060088302620003937fffffffffffffffffffffffffffffffffffffffffffffffffffffffffffffffff8262000354565b6200039f868362000354565b95508019841693508086168417925050509392505050565b6000819050919050565b6000819050919050565b6000620003ec620003e6620003e084620003b7565b620003c1565b620003b7565b9050919050565b6000819050919050565b6200040883620003cb565b620004206200041782620003f3565b84845462000361565b825550505050565b600090565b6200043762000428565b62000444818484620003fd565b505050565b5b818110156200046c57620004606000826200042d565b6001810190506200044a565b5050565b601f821115620004bb5762000485816200032f565b620004908462000344565b81016020851015620004a0578190505b620004b8620004af8562000344565b83018262000449565b50505b505050565b600082821c905092915050565b6000620004e060001984600802620004c0565b1980831691505092915050565b6000620004fb8383620004cd565b9150826002028217905092915050565b6200051682620002c0565b67ffffffffffffffff811115620005325762000531620000d7565b5b6200053e8254620002fa565b6200054b82828562000470565b600060209050601f8311600181146200058357600084156200056e578287015190505b6200057a8582620004ed565b865550620005ea565b601f19841662000593866200032f565b60005b82811015620005bd5784890151825560018201915060208501945060208101905062000596565b86831015620005dd5784890151620005d9601f891682620004cd565b8355505b6001600288020188555050505b505050505050565b612de880620006026000396000f3fe60806040526004361061011f5760003560e01c806370a08231116100a0578063b36b652c11610064578063b36b652c146103d8578063b88d4fde14610415578063c87b56dd1461043e578063d5abeb011461047b578063e985e9c5146104a65761011f565b806370a08231146103005780638da5cb5b1461033d57806395d89b4114610368578063a0712d6814610393578063a22cb465146103af5761011f565b806318160ddd116100e757806318160ddd1461021d57806323b872dd1461024857806342842e0e146102715780634a878dfa1461029a5780636352211e146102c35761011f565b806301ffc9a71461012457806306fdde0314610161578063081812fc1461018c578063095ea7b3146101c957806312065fe0146101f2575b600080fd5b34801561013057600080fd5b5061014b60048036038101906101469190611c2c565b6104e3565b6040516101589190611c74565b60405180910390f35b34801561016d57600080fd5b506101766105c5565b6040516101839190611d1f565b60405180910390f35b34801561019857600080fd5b506101b360048036038101906101ae9190611d77565b610657565b6040516101c09190611de5565b60405180910390f35b3480156101d557600080fd5b506101f060048036038101906101eb9190611e2c565b61069d565b005b3480156101fe57600080fd5b506102076107b4565b6040516102149190611e7b565b60405180910390f35b34801561022957600080fd5b506102326107bc565b60405161023f9190611e7b565b60405180910390f35b34801561025457600080fd5b5061026f600480360381019061026a9190611e96565b6107c2565b005b34801561027d57600080fd5b5061029860048036038101906102939190611e96565b610822565b005b3480156102a657600080fd5b506102c160048036038101906102bc919061201e565b610842565b005b3480156102cf57600080fd5b506102ea60048036038101906102e59190611d77565b61092b565b6040516102f79190611de5565b60405180910390f35b34801561030c57600080fd5b506103276004803603810190610322919061207a565b6109b1565b6040516103349190611e7b565b60405180910390f35b34801561034957600080fd5b50610352610a68565b60405161035f9190611de5565b60405180910390f35b34801561037457600080fd5b5061037d610a8e565b60405161038a9190611d1f565b60405180910390f35b6103ad60048036038101906103a89190611d77565b610b20565b005b3480156103bb57600080fd5b506103d660048036038101906103d191906120d3565b610b71565b005b3480156103e457600080fd5b506103ff60048036038101906103fa9190611d77565b610b87565b60405161040c91906121cb565b60405180910390f35b34801561042157600080fd5b5061043c6004803603810190610437919061228e565b610c6b565b005b34801561044a57600080fd5b5061046560048036038101906104609190611d77565b610ccd565b6040516104729190611d1f565b60405180910390f35b34801561048757600080fd5b50610490610d35565b60405161049d9190611e7b565b60405180910390f35b3480156104b257600080fd5b506104cd60048036038101906104c89190612311565b610d3b565b6040516104da9190611c74565b60405180910390f35b60007f80ac58cd000000000000000000000000000000000000000000000000000000007bffffffffffffffffffffffffffffffffffffffffffffffffffffffff1916827bffffffffffffffffffffffffffffffffffffffffffffffffffffffff191614806105ae57507f5b5e139f000000000000000000000000000000000000000000000000000000007bffffffffffffffffffffffffffffffffffffffffffffffffffffffff1916827bffffffffffffffffffffffffffffffffffffffffffffffffffffffff1916145b806105be57506105bd82610dcf565b5b9050919050565b6060600080546105d490612380565b80601f016020809104026020016040519081016040528092919081815260200182805461060090612380565b801561064d5780601f106106225761010080835404028352916020019161064d565b820191906000526020600020905b81548152906001019060200180831161063057829003601f168201915b5050505050905090565b600061066282610e39565b6004600083815260200190815260200160002060009054906101000a900473ffffffffffffffffffffffffffffffffffffffff169050919050565b60006106a88261092b565b90508073ffffffffffffffffffffffffffffffffffffffff168373ffffffffffffffffffffffffffffffffffffffff1603610718576040517f08c379a000000000000000000000000000000000000000000000000000000000815260040161070f90612423565b60405180910390fd5b8073ffffffffffffffffffffffffffffffffffffffff16610737610e84565b73ffffffffffffffffffffffffffffffffffffffff161480610766575061076581610760610e84565b610d3b565b5b6107a5576040517f08c379a000000000000000000000000000000000000000000000000000000000815260040161079c906124b5565b60405180910390fd5b6107af8383610e8c565b505050565b600047905090565b60075481565b6107d36107cd610e84565b82610f45565b610812576040517f08c379a000000000000000000000000000000000000000000000000000000000815260040161080990612547565b60405180910390fd5b61081d838383610fda565b505050565b61083d83838360405180602001604052806000815250610c6b565b505050565b600960009054906101000a900473ffffffffffffffffffffffffffffffffffffffff1673ffffffffffffffffffffffffffffffffffffffff163373ffffffffffffffffffffffffffffffffffffffff161461089c57600080fd5b60016006546108ab9190612596565b60068190555060405180606001604052808381526020018281526020016000151581525060086000600654815260200190815260200160002060008201518160000190816108f99190612776565b506020820151816001015560408201518160020160006101000a81548160ff0219169083151502179055509050505050565b600080610937836112d3565b9050600073ffffffffffffffffffffffffffffffffffffffff168173ffffffffffffffffffffffffffffffffffffffff16036109a8576040517f08c379a000000000000000000000000000000000000000000000000000000000815260040161099f90612894565b60405180910390fd5b80915050919050565b60008073ffffffffffffffffffffffffffffffffffffffff168273ffffffffffffffffffffffffffffffffffffffff1603610a21576040517f08c379a0000000000000000000000000000000000000000000000000000000008152600401610a1890612926565b60405180910390fd5b600360008373ffffffffffffffffffffffffffffffffffffffff1673ffffffffffffffffffffffffffffffffffffffff168152602001908152602001600020549050919050565b600960009054906101000a900473ffffffffffffffffffffffffffffffffffffffff1681565b606060018054610a9d90612380565b80601f0160208091040260200160405190810160405280929190818152602001828054610ac990612380565b8015610b165780601f10610aeb57610100808354040283529160200191610b16565b820191906000526020600020905b815481529060010190602001808311610af957829003601f168201915b5050505050905090565b60016008600083815260200190815260200160002060020160006101000a81548160ff0219169083151502179055506001600754610b5e9190612596565b600781905550610b6e3382611310565b50565b610b83610b7c610e84565b838361132e565b5050565b610b8f611b9d565b60086000838152602001908152602001600020604051806060016040529081600082018054610bbd90612380565b80601f0160208091040260200160405190810160405280929190818152602001828054610be990612380565b8015610c365780601f10610c0b57610100808354040283529160200191610c36565b820191906000526020600020905b815481529060010190602001808311610c1957829003601f168201915b50505050508152602001600182015481526020016002820160009054906101000a900460ff1615151515815250509050919050565b610c7c610c76610e84565b83610f45565b610cbb576040517f08c379a0000000000000000000000000000000000000000000000000000000008152600401610cb290612547565b60405180910390fd5b610cc78484848461149a565b50505050565b6060610cd882610e39565b6000610ce26114f6565b90506000815111610d025760405180602001604052806000815250610d2d565b80610d0c8461150d565b604051602001610d1d929190612982565b6040516020818303038152906040525b915050919050565b60065481565b6000600560008473ffffffffffffffffffffffffffffffffffffffff1673ffffffffffffffffffffffffffffffffffffffff16815260200190815260200160002060008373ffffffffffffffffffffffffffffffffffffffff1673ffffffffffffffffffffffffffffffffffffffff16815260200190815260200160002060009054906101000a900460ff16905092915050565b60007f01ffc9a7000000000000000000000000000000000000000000000000000000007bffffffffffffffffffffffffffffffffffffffffffffffffffffffff1916827bffffffffffffffffffffffffffffffffffffffffffffffffffffffff1916149050919050565b610e42816115db565b610e81576040517f08c379a0000000000000000000000000000000000000000000000000000000008152600401610e7890612894565b60405180910390fd5b50565b600033905090565b816004600083815260200190815260200160002060006101000a81548173ffffffffffffffffffffffffffffffffffffffff021916908373ffffffffffffffffffffffffffffffffffffffff160217905550808273ffffffffffffffffffffffffffffffffffffffff16610eff8361092b565b73ffffffffffffffffffffffffffffffffffffffff167f8c5be1e5ebec7d5bd14f71427d1e84f3dd0314c0f7b2291e5b200ac8c7c3b92560405160405180910390a45050565b600080610f518361092b565b90508073ffffffffffffffffffffffffffffffffffffffff168473ffffffffffffffffffffffffffffffffffffffff161480610f935750610f928185610d3b565b5b80610fd157508373ffffffffffffffffffffffffffffffffffffffff16610fb984610657565b73ffffffffffffffffffffffffffffffffffffffff16145b91505092915050565b8273ffffffffffffffffffffffffffffffffffffffff16610ffa8261092b565b73ffffffffffffffffffffffffffffffffffffffff1614611050576040517f08c379a000000000000000000000000000000000000000000000000000000000815260040161104790612a18565b60405180910390fd5b600073ffffffffffffffffffffffffffffffffffffffff168273ffffffffffffffffffffffffffffffffffffffff16036110bf576040517f08c379a00000000000000000000000000000000000000000000000000000000081526004016110b690612aaa565b60405180910390fd5b6110cc838383600161161c565b8273ffffffffffffffffffffffffffffffffffffffff166110ec8261092b565b73ffffffffffffffffffffffffffffffffffffffff1614611142576040517f08c379a000000000000000000000000000000000000000000000000000000000815260040161113990612a18565b60405180910390fd5b6004600082815260200190815260200160002060006101000a81549073ffffffffffffffffffffffffffffffffffffffff02191690556001600360008573ffffffffffffffffffffffffffffffffffffffff1673ffffffffffffffffffffffffffffffffffffffff168152602001908152602001600020600082825403925050819055506001600360008473ffffffffffffffffffffffffffffffffffffffff1673ffffffffffffffffffffffffffffffffffffffff16815260200190815260200160002060008282540192505081905550816002600083815260200190815260200160002060006101000a81548173ffffffffffffffffffffffffffffffffffffffff021916908373ffffffffffffffffffffffffffffffffffffffff160217905550808273ffffffffffffffffffffffffffffffffffffffff168473ffffffffffffffffffffffffffffffffffffffff167fddf252ad1be2c89b69c2b068fc378daa952ba7f163c4a11628f55a4df523b3ef60405160405180910390a46112ce8383836001611622565b505050565b60006002600083815260200190815260200160002060009054906101000a900473ffffffffffffffffffffffffffffffffffffffff169050919050565b61132a828260405180602001604052806000815250611628565b5050565b8173ffffffffffffffffffffffffffffffffffffffff168373ffffffffffffffffffffffffffffffffffffffff160361139c576040517f08c379a000000000000000000000000000000000000000000000000000000000815260040161139390612b16565b60405180910390fd5b80600560008573ffffffffffffffffffffffffffffffffffffffff1673ffffffffffffffffffffffffffffffffffffffff16815260200190815260200160002060008473ffffffffffffffffffffffffffffffffffffffff1673ffffffffffffffffffffffffffffffffffffffff16815260200190815260200160002060006101000a81548160ff0219169083151502179055508173ffffffffffffffffffffffffffffffffffffffff168373ffffffffffffffffffffffffffffffffffffffff167f17307eab39ab6107e8899845ad3d59bd9653f200f220920489ca2b5937696c318360405161148d9190611c74565b60405180910390a3505050565b6114a5848484610fda565b6114b184848484611683565b6114f0576040517f08c379a00000000000000000000000000000000000000000000000000000000081526004016114e790612ba8565b60405180910390fd5b50505050565b606060405180602001604052806000815250905090565b60606000600161151c8461180a565b01905060008167ffffffffffffffff81111561153b5761153a611ef3565b5b6040519080825280601f01601f19166020018201604052801561156d5781602001600182028036833780820191505090505b509050600082602001820190505b6001156115d0578080600190039150507f3031323334353637383961626364656600000000000000000000000000000000600a86061a8153600a85816115c4576115c3612bc8565b5b0494506000850361157b575b819350505050919050565b60008073ffffffffffffffffffffffffffffffffffffffff166115fd836112d3565b73ffffffffffffffffffffffffffffffffffffffff1614159050919050565b50505050565b50505050565b611632838361195d565b61163f6000848484611683565b61167e576040517f08c379a000000000000000000000000000000000000000000000000000000000815260040161167590612ba8565b60405180910390fd5b505050565b60006116a48473ffffffffffffffffffffffffffffffffffffffff16611b7a565b156117fd578373ffffffffffffffffffffffffffffffffffffffff1663150b7a026116cd610e84565b8786866040518563ffffffff1660e01b81526004016116ef9493929190612c4c565b6020604051808303816000875af192505050801561172b57506040513d601f19601f820116820180604052508101906117289190612cad565b60015b6117ad573d806000811461175b576040519150601f19603f3d011682016040523d82523d6000602084013e611760565b606091505b5060008151036117a5576040517f08c379a000000000000000000000000000000000000000000000000000000000815260040161179c90612ba8565b60405180910390fd5b805181602001fd5b63150b7a0260e01b7bffffffffffffffffffffffffffffffffffffffffffffffffffffffff1916817bffffffffffffffffffffffffffffffffffffffffffffffffffffffff191614915050611802565b600190505b949350505050565b600080600090507a184f03e93ff9f4daa797ed6e38ed64bf6a1f0100000000000000008310611868577a184f03e93ff9f4daa797ed6e38ed64bf6a1f010000000000000000838161185e5761185d612bc8565b5b0492506040810190505b6d04ee2d6d415b85acef810000000083106118a5576d04ee2d6d415b85acef8100000000838161189b5761189a612bc8565b5b0492506020810190505b662386f26fc1000083106118d457662386f26fc1000083816118ca576118c9612bc8565b5b0492506010810190505b6305f5e10083106118fd576305f5e10083816118f3576118f2612bc8565b5b0492506008810190505b612710831061192257612710838161191857611917612bc8565b5b0492506004810190505b60648310611945576064838161193b5761193a612bc8565b5b0492506002810190505b600a8310611954576001810190505b80915050919050565b600073ffffffffffffffffffffffffffffffffffffffff168273ffffffffffffffffffffffffffffffffffffffff16036119cc576040517f08c379a00000000000000000000000000000000000000000000000000000000081526004016119c390612d26565b60405180910390fd5b6119d5816115db565b15611a15576040517f08c379a0000000000000000000000000000000000000000000000000000000008152600401611a0c90612d92565b60405180910390fd5b611a2360008383600161161c565b611a2c816115db565b15611a6c576040517f08c379a0000000000000000000000000000000000000000000000000000000008152600401611a6390612d92565b60405180910390fd5b6001600360008473ffffffffffffffffffffffffffffffffffffffff1673ffffffffffffffffffffffffffffffffffffffff16815260200190815260200160002060008282540192505081905550816002600083815260200190815260200160002060006101000a81548173ffffffffffffffffffffffffffffffffffffffff021916908373ffffffffffffffffffffffffffffffffffffffff160217905550808273ffffffffffffffffffffffffffffffffffffffff16600073ffffffffffffffffffffffffffffffffffffffff167fddf252ad1be2c89b69c2b068fc378daa952ba7f163c4a11628f55a4df523b3ef60405160405180910390a4611b76600083836001611622565b5050565b6000808273ffffffffffffffffffffffffffffffffffffffff163b119050919050565b604051806060016040528060608152602001600081526020016000151581525090565b6000604051905090565b600080fd5b600080fd5b60007fffffffff0000000000000000000000000000000000000000000000000000000082169050919050565b611c0981611bd4565b8114611c1457600080fd5b50565b600081359050611c2681611c00565b92915050565b600060208284031215611c4257611c41611bca565b5b6000611c5084828501611c17565b91505092915050565b60008115159050919050565b611c6e81611c59565b82525050565b6000602082019050611c896000830184611c65565b92915050565b600081519050919050565b600082825260208201905092915050565b60005b83811015611cc9578082015181840152602081019050611cae565b60008484015250505050565b6000601f19601f8301169050919050565b6000611cf182611c8f565b611cfb8185611c9a565b9350611d0b818560208601611cab565b611d1481611cd5565b840191505092915050565b60006020820190508181036000830152611d398184611ce6565b905092915050565b6000819050919050565b611d5481611d41565b8114611d5f57600080fd5b50565b600081359050611d7181611d4b565b92915050565b600060208284031215611d8d57611d8c611bca565b5b6000611d9b84828501611d62565b91505092915050565b600073ffffffffffffffffffffffffffffffffffffffff82169050919050565b6000611dcf82611da4565b9050919050565b611ddf81611dc4565b82525050565b6000602082019050611dfa6000830184611dd6565b92915050565b611e0981611dc4565b8114611e1457600080fd5b50565b600081359050611e2681611e00565b92915050565b60008060408385031215611e4357611e42611bca565b5b6000611e5185828601611e17565b9250506020611e6285828601611d62565b9150509250929050565b611e7581611d41565b82525050565b6000602082019050611e906000830184611e6c565b92915050565b600080600060608486031215611eaf57611eae611bca565b5b6000611ebd86828701611e17565b9350506020611ece86828701611e17565b9250506040611edf86828701611d62565b9150509250925092565b600080fd5b600080fd5b7f4e487b7100000000000000000000000000000000000000000000000000000000600052604160045260246000fd5b611f2b82611cd5565b810181811067ffffffffffffffff82111715611f4a57611f49611ef3565b5b80604052505050565b6000611f5d611bc0565b9050611f698282611f22565b919050565b600067ffffffffffffffff821115611f8957611f88611ef3565b5b611f9282611cd5565b9050602081019050919050565b82818337600083830152505050565b6000611fc1611fbc84611f6e565b611f53565b905082815260208101848484011115611fdd57611fdc611eee565b5b611fe8848285611f9f565b509392505050565b600082601f83011261200557612004611ee9565b5b8135612015848260208601611fae565b91505092915050565b6000806040838503121561203557612034611bca565b5b600083013567ffffffffffffffff81111561205357612052611bcf565b5b61205f85828601611ff0565b925050602061207085828601611d62565b9150509250929050565b6000602082840312156120905761208f611bca565b5b600061209e84828501611e17565b91505092915050565b6120b081611c59565b81146120bb57600080fd5b50565b6000813590506120cd816120a7565b92915050565b600080604083850312156120ea576120e9611bca565b5b60006120f885828601611e17565b9250506020612109858286016120be565b9150509250929050565b600082825260208201905092915050565b600061212f82611c8f565b6121398185612113565b9350612149818560208601611cab565b61215281611cd5565b840191505092915050565b61216681611d41565b82525050565b61217581611c59565b82525050565b600060608301600083015184820360008601526121988282612124565b91505060208301516121ad602086018261215d565b5060408301516121c0604086018261216c565b508091505092915050565b600060208201905081810360008301526121e5818461217b565b905092915050565b600067ffffffffffffffff82111561220857612207611ef3565b5b61221182611cd5565b9050602081019050919050565b600061223161222c846121ed565b611f53565b90508281526020810184848401111561224d5761224c611eee565b5b612258848285611f9f565b509392505050565b600082601f83011261227557612274611ee9565b5b813561228584826020860161221e565b91505092915050565b600080600080608085870312156122a8576122a7611bca565b5b60006122b687828801611e17565b94505060206122c787828801611e17565b93505060406122d887828801611d62565b925050606085013567ffffffffffffffff8111156122f9576122f8611bcf565b5b61230587828801612260565b91505092959194509250565b6000806040838503121561232857612327611bca565b5b600061233685828601611e17565b925050602061234785828601611e17565b9150509250929050565b7f4e487b7100000000000000000000000000000000000000000000000000000000600052602260045260246000fd5b6000600282049050600182168061239857607f821691505b6020821081036123ab576123aa612351565b5b50919050565b7f4552433732313a20617070726f76616c20746f2063757272656e74206f776e6560008201527f7200000000000000000000000000000000000000000000000000000000000000602082015250565b600061240d602183611c9a565b9150612418826123b1565b604082019050919050565b6000602082019050818103600083015261243c81612400565b9050919050565b7f4552433732313a20617070726f76652063616c6c6572206973206e6f7420746f60008201527f6b656e206f776e6572206f7220617070726f76656420666f7220616c6c000000602082015250565b600061249f603d83611c9a565b91506124aa82612443565b604082019050919050565b600060208201905081810360008301526124ce81612492565b9050919050565b7f4552433732313a2063616c6c6572206973206e6f7420746f6b656e206f776e6560008201527f72206f7220617070726f76656400000000000000000000000000000000000000602082015250565b6000612531602d83611c9a565b915061253c826124d5565b604082019050919050565b6000602082019050818103600083015261256081612524565b9050919050565b7f4e487b7100000000000000000000000000000000000000000000000000000000600052601160045260246000fd5b60006125a182611d41565b91506125ac83611d41565b92508282019050808211156125c4576125c3612567565b5b92915050565b60008190508160005260206000209050919050565b60006020601f8301049050919050565b600082821b905092915050565b60006008830261262c7fffffffffffffffffffffffffffffffffffffffffffffffffffffffffffffffff826125ef565b61263686836125ef565b95508019841693508086168417925050509392505050565b6000819050919050565b600061267361266e61266984611d41565b61264e565b611d41565b9050919050565b6000819050919050565b61268d83612658565b6126a16126998261267a565b8484546125fc565b825550505050565b600090565b6126b66126a9565b6126c1818484612684565b505050565b5b818110156126e5576126da6000826126ae565b6001810190506126c7565b5050565b601f82111561272a576126fb816125ca565b612704846125df565b81016020851015612713578190505b61272761271f856125df565b8301826126c6565b50505b505050565b600082821c905092915050565b600061274d6000198460080261272f565b1980831691505092915050565b6000612766838361273c565b9150826002028217905092915050565b61277f82611c8f565b67ffffffffffffffff81111561279857612797611ef3565b5b6127a28254612380565b6127ad8282856126e9565b600060209050601f8311600181146127e057600084156127ce578287015190505b6127d8858261275a565b865550612840565b601f1984166127ee866125ca565b60005b82811015612816578489015182556001820191506020850194506020810190506127f1565b86831015612833578489015161282f601f89168261273c565b8355505b6001600288020188555050505b505050505050565b7f4552433732313a20696e76616c696420746f6b656e2049440000000000000000600082015250565b600061287e601883611c9a565b915061288982612848565b602082019050919050565b600060208201905081810360008301526128ad81612871565b9050919050565b7f4552433732313a2061646472657373207a65726f206973206e6f74206120766160008201527f6c6964206f776e65720000000000000000000000000000000000000000000000602082015250565b6000612910602983611c9a565b915061291b826128b4565b604082019050919050565b6000602082019050818103600083015261293f81612903565b9050919050565b600081905092915050565b600061295c82611c8f565b6129668185612946565b9350612976818560208601611cab565b80840191505092915050565b600061298e8285612951565b915061299a8284612951565b91508190509392505050565b7f4552433732313a207472616e736665722066726f6d20696e636f72726563742060008201527f6f776e6572000000000000000000000000000000000000000000000000000000602082015250565b6000612a02602583611c9a565b9150612a0d826129a6565b604082019050919050565b60006020820190508181036000830152612a31816129f5565b9050919050565b7f4552433732313a207472616e7366657220746f20746865207a65726f2061646460008201527f7265737300000000000000000000000000000000000000000000000000000000602082015250565b6000612a94602483611c9a565b9150612a9f82612a38565b604082019050919050565b60006020820190508181036000830152612ac381612a87565b9050919050565b7f4552433732313a20617070726f766520746f2063616c6c657200000000000000600082015250565b6000612b00601983611c9a565b9150612b0b82612aca565b602082019050919050565b60006020820190508181036000830152612b2f81612af3565b9050919050565b7f4552433732313a207472616e7366657220746f206e6f6e20455243373231526560008201527f63656976657220696d706c656d656e7465720000000000000000000000000000602082015250565b6000612b92603283611c9a565b9150612b9d82612b36565b604082019050919050565b60006020820190508181036000830152612bc181612b85565b9050919050565b7f4e487b7100000000000000000000000000000000000000000000000000000000600052601260045260246000fd5b600081519050919050565b600082825260208201905092915050565b6000612c1e82612bf7565b612c288185612c02565b9350612c38818560208601611cab565b612c4181611cd5565b840191505092915050565b6000608082019050612c616000830187611dd6565b612c6e6020830186611dd6565b612c7b6040830185611e6c565b8181036060830152612c8d8184612c13565b905095945050505050565b600081519050612ca781611c00565b92915050565b600060208284031215612cc357612cc2611bca565b5b6000612cd184828501612c98565b91505092915050565b7f4552433732313a206d696e7420746f20746865207a65726f2061646472657373600082015250565b6000612d10602083611c9a565b9150612d1b82612cda565b602082019050919050565b60006020820190508181036000830152612d3f81612d03565b9050919050565b7f4552433732313a20746f6b656e20616c7265616479206d696e74656400000000600082015250565b6000612d7c601c83611c9a565b9150612d8782612d46565b602082019050919050565b60006020820190508181036000830152612dab81612d6f565b905091905056fea2646970667358221220aeb27e80ecd486f1781d733a78918c1fa0c05bd7fa44b00440ef070cc8fc3efa64736f6c63430008110033",
  "linkReferences": {},
  "deployedLinkReferences": {}
}