{
  "_format": "hh-sol-artifact-1",
  "contractName": "ETHDaddy",
  "sourceName": "contracts/ETHDaddy.sol",
  "abi": [
    {
      "inputs": [
        {
          "internalType": "string",
          "name": "_name",
          "type": "string"
        },
        {
          "internalType": "string",
          "name": "_symbol",
          "type": "string"
        }
      ],
      "stateMutability": "nonpayable",
      "type": "constructor"
    },
    {
      "anonymous": false,
      "inputs": [
        {
          "indexed": true,
          "internalType": "address",
          "name": "owner",
          "type": "address"
        },
        {
          "indexed": true,
          "internalType": "address",
          "name": "approved",
          "type": "address"
        },
        {
          "indexed": true,
          "internalType": "uint256",
          "name": "tokenId",
          "type": "uint256"
        }
      ],
      "name": "Approval",
      "type": "event"
    },
    {
      "anonymous": false,
      "inputs": [
        {
          "indexed": true,
          "internalType": "address",
          "name": "owner",
          "type": "address"
        },
        {
          "indexed": true,
          "internalType": "address",
          "name": "operator",
          "type": "address"
        },
        {
          "indexed": false,
          "internalType": "bool",
          "name": "approved",
          "type": "bool"
        }
      ],
      "name": "ApprovalForAll",
      "type": "event"
    },
    {
      "anonymous": false,
      "inputs": [
        {
          "indexed": true,
          "internalType": "address",
          "name": "from",
          "type": "address"
        },
        {
          "indexed": true,
          "internalType": "address",
          "name": "to",
          "type": "address"
        },
        {
          "indexed": true,
          "internalType": "uint256",
          "name": "tokenId",
          "type": "uint256"
        }
      ],
      "name": "Transfer",
      "type": "event"
    },
    {
      "inputs": [
        {
          "internalType": "address",
          "name": "to",
          "type": "address"
        },
        {
          "internalType": "uint256",
          "name": "tokenId",
          "type": "uint256"
        }
      ],
      "name": "approve",
      "outputs": [],
      "stateMutability": "nonpayable",
      "type": "function"
    },
    {
      "inputs": [
        {
          "internalType": "address",
          "name": "owner",
          "type": "address"
        }
      ],
      "name": "balanceOf",
      "outputs": [
        {
          "internalType": "uint256",
          "name": "",
          "type": "uint256"
        }
      ],
      "stateMutability": "view",
      "type": "function"
    },
    {
      "inputs": [
        {
          "internalType": "uint256",
          "name": "tokenId",
          "type": "uint256"
        }
      ],
      "name": "getApproved",
      "outputs": [
        {
          "internalType": "address",
          "name": "",
          "type": "address"
        }
      ],
      "stateMutability": "view",
      "type": "function"
    },
    {
      "inputs": [],
      "name": "getBalance",
      "outputs": [
        {
          "internalType": "uint256",
          "name": "",
          "type": "uint256"
        }
      ],
      "stateMutability": "view",
      "type": "function"
    },
    {
      "inputs": [
        {
          "internalType": "uint256",
          "name": "_id",
          "type": "uint256"
        }
      ],
      "name": "getDomains",
      "outputs": [
        {
          "components": [
            {
              "internalType": "string",
              "name": "name",
              "type": "string"
            },
            {
              "internalType": "uint256",
              "name": "cost",
              "type": "uint256"
            },
            {
              "internalType": "bool",
              "name": "isOwned",
              "type": "bool"
            }
          ],
          "internalType": "struct ETHDaddy.Domain",
          "name": "",
          "type": "tuple"
        }
      ],
      "stateMutability": "view",
      "type": "function"
    },
    {
      "inputs": [
        {
          "internalType": "address",
          "name": "owner",
          "type": "address"
        },
        {
          "internalType": "address",
          "name": "operator",
          "type": "address"
        }
      ],
      "name": "isApprovedForAll",
      "outputs": [
        {
          "internalType": "bool",
          "name": "",
          "type": "bool"
        }
      ],
      "stateMutability": "view",
      "type": "function"
    },
    {
      "inputs": [
        {
          "internalType": "string",
          "name": "_name",
          "type": "string"
        },
        {
          "internalType": "uint256",
          "name": "_cost",
          "type": "uint256"
        }
      ],
      "name": "list",
      "outputs": [],
      "stateMutability": "nonpayable",
      "type": "function"
    },
    {
      "inputs": [],
      "name": "maxSupply",
      "outputs": [
        {
          "internalType": "uint256",
          "name": "",
          "type": "uint256"
        }
      ],
      "stateMutability": "view",
      "type": "function"
    },
    {
      "inputs": [
        {
          "internalType": "uint256",
          "name": "_id",
          "type": "uint256"
        }
      ],
      "name": "mint",
      "outputs": [],
      "stateMutability": "payable",
      "type": "function"
    },
    {
      "inputs": [],
      "name": "name",
      "outputs": [
        {
          "internalType": "string",
          "name": "",
          "type": "string"
        }
      ],
      "stateMutability": "view",
      "type": "function"
    },
    {
      "inputs": [],
      "name": "owner",
      "outputs": [
        {
          "internalType": "address",
          "name": "",
          "type": "address"
        }
      ],
      "stateMutability": "view",
      "type": "function"
    },
    {
      "inputs": [
        {
          "internalType": "uint256",
          "name": "tokenId",
          "type": "uint256"
        }
      ],
      "name": "ownerOf",
      "outputs": [
        {
          "internalType": "address",
          "name": "",
          "type": "address"
        }
      ],
      "stateMutability": "view",
      "type": "function"
    },
    {
      "inputs": [
        {
          "internalType": "address",
          "name": "from",
          "type": "address"
        },
        {
          "internalType": "address",
          "name": "to",
          "type": "address"
        },
        {
          "internalType": "uint256",
          "name": "tokenId",
          "type": "uint256"
        }
      ],
      "name": "safeTransferFrom",
      "outputs": [],
      "stateMutability": "nonpayable",
      "type": "function"
    },
    {
      "inputs": [
        {
          "internalType": "address",
          "name": "from",
          "type": "address"
        },
        {
          "internalType": "address",
          "name": "to",
          "type": "address"
        },
        {
          "internalType": "uint256",
          "name": "tokenId",
          "type": "uint256"
        },
        {
          "internalType": "bytes",
          "name": "data",
          "type": "bytes"
        }
      ],
      "name": "safeTransferFrom",
      "outputs": [],
      "stateMutability": "nonpayable",
      "type": "function"
    },
    {
      "inputs": [
        {
          "internalType": "address",
          "name": "operator",
          "type": "address"
        },
        {
          "internalType": "bool",
          "name": "approved",
          "type": "bool"
        }
      ],
      "name": "setApprovalForAll",
      "outputs": [],
      "stateMutability": "nonpayable",
      "type": "function"
    },
    {
      "inputs": [
        {
          "internalType": "bytes4",
          "name": "interfaceId",
          "type": "bytes4"
        }
      ],
      "name": "supportsInterface",
      "outputs": [
        {
          "internalType": "bool",
          "name": "",
          "type": "bool"
        }
      ],
      "stateMutability": "view",
      "type": "function"
    },
    {
      "inputs": [],
      "name": "symbol",
      "outputs": [
        {
          "internalType": "string",
          "name": "",
          "type": "string"
        }
      ],
      "stateMutability": "view",
      "type": "function"
    },
    {
      "inputs": [
        {
          "internalType": "uint256",
          "name": "tokenId",
          "type": "uint256"
        }
      ],
      "name": "tokenURI",
      "outputs": [
        {
          "internalType": "string",
          "name": "",
          "type": "string"
        }
      ],
      "stateMutability": "view",
      "type": "function"
    },
    {
      "inputs": [
        {
          "internalType": "address",
          "name": "from",
          "type": "address"
        },
        {
          "internalType": "address",
          "name": "to",
          "type": "address"
        },
        {
          "internalType": "uint256",
          "name": "tokenId",
          "type": "uint256"
        }
      ],
      "name": "transferFrom",
      "outputs": [],
      "stateMutability": "nonpayable",
      "type": "function"
    }
  ],
  "bytecode": "0x60806040523480156200001157600080fd5b50604051620033993803806200339983398181016040528101906200003791906200023b565b818181600090816200004a91906200050b565b5080600190816200005c91906200050b565b50505033600860006101000a81548173ffffffffffffffffffffffffffffffffffffffff021916908373ffffffffffffffffffffffffffffffffffffffff1602179055505050620005f2565b6000604051905090565b600080fd5b600080fd5b600080fd5b600080fd5b6000601f19601f8301169050919050565b7f4e487b7100000000000000000000000000000000000000000000000000000000600052604160045260246000fd5b6200011182620000c6565b810181811067ffffffffffffffff82111715620001335762000132620000d7565b5b80604052505050565b600062000148620000a8565b905062000156828262000106565b919050565b600067ffffffffffffffff821115620001795762000178620000d7565b5b6200018482620000c6565b9050602081019050919050565b60005b83811015620001b157808201518184015260208101905062000194565b60008484015250505050565b6000620001d4620001ce846200015b565b6200013c565b905082815260208101848484011115620001f357620001f2620000c1565b5b6200020084828562000191565b509392505050565b600082601f83011262000220576200021f620000bc565b5b815162000232848260208601620001bd565b91505092915050565b60008060408385031215620002555762000254620000b2565b5b600083015167ffffffffffffffff811115620002765762000275620000b7565b5b620002848582860162000208565b925050602083015167ffffffffffffffff811115620002a857620002a7620000b7565b5b620002b68582860162000208565b9150509250929050565b600081519050919050565b7f4e487b7100000000000000000000000000000000000000000000000000000000600052602260045260246000fd5b600060028204905060018216806200031357607f821691505b602082108103620003295762000328620002cb565b5b50919050565b60008190508160005260206000209050919050565b60006020601f8301049050919050565b600082821b905092915050565b600060088302620003937fffffffffffffffffffffffffffffffffffffffffffffffffffffffffffffffff8262000354565b6200039f868362000354565b95508019841693508086168417925050509392505050565b6000819050919050565b6000819050919050565b6000620003ec620003e6620003e084620003b7565b620003c1565b620003b7565b9050919050565b6000819050919050565b6200040883620003cb565b620004206200041782620003f3565b84845462000361565b825550505050565b600090565b6200043762000428565b62000444818484620003fd565b505050565b5b818110156200046c57620004606000826200042d565b6001810190506200044a565b5050565b601f821115620004bb5762000485816200032f565b620004908462000344565b81016020851015620004a0578190505b620004b8620004af8562000344565b83018262000449565b50505b505050565b600082821c905092915050565b6000620004e060001984600802620004c0565b1980831691505092915050565b6000620004fb8383620004cd565b9150826002028217905092915050565b6200051682620002c0565b67ffffffffffffffff811115620005325762000531620000d7565b5b6200053e8254620002fa565b6200054b82828562000470565b600060209050601f8311600181146200058357600084156200056e578287015190505b6200057a8582620004ed565b865550620005ea565b601f19841662000593866200032f565b60005b82811015620005bd5784890151825560018201915060208501945060208101905062000596565b86831015620005dd5784890151620005d9601f891682620004cd565b8355505b6001600288020188555050505b505050505050565b612d9780620006026000396000f3fe6080604052600436106101145760003560e01c806370a08231116100a0578063b36b652c11610064578063b36b652c146103a2578063b88d4fde146103df578063c87b56dd14610408578063d5abeb0114610445578063e985e9c51461047057610114565b806370a08231146102ca5780638da5cb5b1461030757806395d89b4114610332578063a0712d681461035d578063a22cb4651461037957610114565b806312065fe0116100e757806312065fe0146101e757806323b872dd1461021257806342842e0e1461023b5780634a878dfa146102645780636352211e1461028d57610114565b806301ffc9a71461011957806306fdde0314610156578063081812fc14610181578063095ea7b3146101be575b600080fd5b34801561012557600080fd5b50610140600480360381019061013b9190611bdb565b6104ad565b60405161014d9190611c23565b60405180910390f35b34801561016257600080fd5b5061016b61058f565b6040516101789190611cce565b60405180910390f35b34801561018d57600080fd5b506101a860048036038101906101a39190611d26565b610621565b6040516101b59190611d94565b60405180910390f35b3480156101ca57600080fd5b506101e560048036038101906101e09190611ddb565b610667565b005b3480156101f357600080fd5b506101fc61077e565b6040516102099190611e2a565b60405180910390f35b34801561021e57600080fd5b5061023960048036038101906102349190611e45565b610786565b005b34801561024757600080fd5b50610262600480360381019061025d9190611e45565b6107e6565b005b34801561027057600080fd5b5061028b60048036038101906102869190611fcd565b610806565b005b34801561029957600080fd5b506102b460048036038101906102af9190611d26565b6108ef565b6040516102c19190611d94565b60405180910390f35b3480156102d657600080fd5b506102f160048036038101906102ec9190612029565b610975565b6040516102fe9190611e2a565b60405180910390f35b34801561031357600080fd5b5061031c610a2c565b6040516103299190611d94565b60405180910390f35b34801561033e57600080fd5b50610347610a52565b6040516103549190611cce565b60405180910390f35b61037760048036038101906103729190611d26565b610ae4565b005b34801561038557600080fd5b506103a0600480360381019061039b9190612082565b610b20565b005b3480156103ae57600080fd5b506103c960048036038101906103c49190611d26565b610b36565b6040516103d6919061217a565b60405180910390f35b3480156103eb57600080fd5b506104066004803603810190610401919061223d565b610c1a565b005b34801561041457600080fd5b5061042f600480360381019061042a9190611d26565b610c7c565b60405161043c9190611cce565b60405180910390f35b34801561045157600080fd5b5061045a610ce4565b6040516104679190611e2a565b60405180910390f35b34801561047c57600080fd5b50610497600480360381019061049291906122c0565b610cea565b6040516104a49190611c23565b60405180910390f35b60007f80ac58cd000000000000000000000000000000000000000000000000000000007bffffffffffffffffffffffffffffffffffffffffffffffffffffffff1916827bffffffffffffffffffffffffffffffffffffffffffffffffffffffff1916148061057857507f5b5e139f000000000000000000000000000000000000000000000000000000007bffffffffffffffffffffffffffffffffffffffffffffffffffffffff1916827bffffffffffffffffffffffffffffffffffffffffffffffffffffffff1916145b80610588575061058782610d7e565b5b9050919050565b60606000805461059e9061232f565b80601f01602080910402602001604051908101604052809291908181526020018280546105ca9061232f565b80156106175780601f106105ec57610100808354040283529160200191610617565b820191906000526020600020905b8154815290600101906020018083116105fa57829003601f168201915b5050505050905090565b600061062c82610de8565b6004600083815260200190815260200160002060009054906101000a900473ffffffffffffffffffffffffffffffffffffffff169050919050565b6000610672826108ef565b90508073ffffffffffffffffffffffffffffffffffffffff168373ffffffffffffffffffffffffffffffffffffffff16036106e2576040517f08c379a00000000000000000000000000000000000000000000000000000000081526004016106d9906123d2565b60405180910390fd5b8073ffffffffffffffffffffffffffffffffffffffff16610701610e33565b73ffffffffffffffffffffffffffffffffffffffff161480610730575061072f8161072a610e33565b610cea565b5b61076f576040517f08c379a000000000000000000000000000000000000000000000000000000000815260040161076690612464565b60405180910390fd5b6107798383610e3b565b505050565b600047905090565b610797610791610e33565b82610ef4565b6107d6576040517f08c379a00000000000000000000000000000000000000000000000000000000081526004016107cd906124f6565b60405180910390fd5b6107e1838383610f89565b505050565b61080183838360405180602001604052806000815250610c1a565b505050565b600860009054906101000a900473ffffffffffffffffffffffffffffffffffffffff1673ffffffffffffffffffffffffffffffffffffffff163373ffffffffffffffffffffffffffffffffffffffff161461086057600080fd5b600160065461086f9190612545565b60068190555060405180606001604052808381526020018281526020016000151581525060076000600654815260200190815260200160002060008201518160000190816108bd9190612725565b506020820151816001015560408201518160020160006101000a81548160ff0219169083151502179055509050505050565b6000806108fb83611282565b9050600073ffffffffffffffffffffffffffffffffffffffff168173ffffffffffffffffffffffffffffffffffffffff160361096c576040517f08c379a000000000000000000000000000000000000000000000000000000000815260040161096390612843565b60405180910390fd5b80915050919050565b60008073ffffffffffffffffffffffffffffffffffffffff168273ffffffffffffffffffffffffffffffffffffffff16036109e5576040517f08c379a00000000000000000000000000000000000000000000000000000000081526004016109dc906128d5565b60405180910390fd5b600360008373ffffffffffffffffffffffffffffffffffffffff1673ffffffffffffffffffffffffffffffffffffffff168152602001908152602001600020549050919050565b600860009054906101000a900473ffffffffffffffffffffffffffffffffffffffff1681565b606060018054610a619061232f565b80601f0160208091040260200160405190810160405280929190818152602001828054610a8d9061232f565b8015610ada5780601f10610aaf57610100808354040283529160200191610ada565b820191906000526020600020905b815481529060010190602001808311610abd57829003601f168201915b5050505050905090565b60016007600083815260200190815260200160002060020160006101000a81548160ff021916908315150217905550610b1d33826112bf565b50565b610b32610b2b610e33565b83836112dd565b5050565b610b3e611b4c565b60076000838152602001908152602001600020604051806060016040529081600082018054610b6c9061232f565b80601f0160208091040260200160405190810160405280929190818152602001828054610b989061232f565b8015610be55780601f10610bba57610100808354040283529160200191610be5565b820191906000526020600020905b815481529060010190602001808311610bc857829003601f168201915b50505050508152602001600182015481526020016002820160009054906101000a900460ff1615151515815250509050919050565b610c2b610c25610e33565b83610ef4565b610c6a576040517f08c379a0000000000000000000000000000000000000000000000000000000008152600401610c61906124f6565b60405180910390fd5b610c7684848484611449565b50505050565b6060610c8782610de8565b6000610c916114a5565b90506000815111610cb15760405180602001604052806000815250610cdc565b80610cbb846114bc565b604051602001610ccc929190612931565b6040516020818303038152906040525b915050919050565b60065481565b6000600560008473ffffffffffffffffffffffffffffffffffffffff1673ffffffffffffffffffffffffffffffffffffffff16815260200190815260200160002060008373ffffffffffffffffffffffffffffffffffffffff1673ffffffffffffffffffffffffffffffffffffffff16815260200190815260200160002060009054906101000a900460ff16905092915050565b60007f01ffc9a7000000000000000000000000000000000000000000000000000000007bffffffffffffffffffffffffffffffffffffffffffffffffffffffff1916827bffffffffffffffffffffffffffffffffffffffffffffffffffffffff1916149050919050565b610df18161158a565b610e30576040517f08c379a0000000000000000000000000000000000000000000000000000000008152600401610e2790612843565b60405180910390fd5b50565b600033905090565b816004600083815260200190815260200160002060006101000a81548173ffffffffffffffffffffffffffffffffffffffff021916908373ffffffffffffffffffffffffffffffffffffffff160217905550808273ffffffffffffffffffffffffffffffffffffffff16610eae836108ef565b73ffffffffffffffffffffffffffffffffffffffff167f8c5be1e5ebec7d5bd14f71427d1e84f3dd0314c0f7b2291e5b200ac8c7c3b92560405160405180910390a45050565b600080610f00836108ef565b90508073ffffffffffffffffffffffffffffffffffffffff168473ffffffffffffffffffffffffffffffffffffffff161480610f425750610f418185610cea565b5b80610f8057508373ffffffffffffffffffffffffffffffffffffffff16610f6884610621565b73ffffffffffffffffffffffffffffffffffffffff16145b91505092915050565b8273ffffffffffffffffffffffffffffffffffffffff16610fa9826108ef565b73ffffffffffffffffffffffffffffffffffffffff1614610fff576040517f08c379a0000000000000000000000000000000000000000000000000000000008152600401610ff6906129c7565b60405180910390fd5b600073ffffffffffffffffffffffffffffffffffffffff168273ffffffffffffffffffffffffffffffffffffffff160361106e576040517f08c379a000000000000000000000000000000000000000000000000000000000815260040161106590612a59565b60405180910390fd5b61107b83838360016115cb565b8273ffffffffffffffffffffffffffffffffffffffff1661109b826108ef565b73ffffffffffffffffffffffffffffffffffffffff16146110f1576040517f08c379a00000000000000000000000000000000000000000000000000000000081526004016110e8906129c7565b60405180910390fd5b6004600082815260200190815260200160002060006101000a81549073ffffffffffffffffffffffffffffffffffffffff02191690556001600360008573ffffffffffffffffffffffffffffffffffffffff1673ffffffffffffffffffffffffffffffffffffffff168152602001908152602001600020600082825403925050819055506001600360008473ffffffffffffffffffffffffffffffffffffffff1673ffffffffffffffffffffffffffffffffffffffff16815260200190815260200160002060008282540192505081905550816002600083815260200190815260200160002060006101000a81548173ffffffffffffffffffffffffffffffffffffffff021916908373ffffffffffffffffffffffffffffffffffffffff160217905550808273ffffffffffffffffffffffffffffffffffffffff168473ffffffffffffffffffffffffffffffffffffffff167fddf252ad1be2c89b69c2b068fc378daa952ba7f163c4a11628f55a4df523b3ef60405160405180910390a461127d83838360016115d1565b505050565b60006002600083815260200190815260200160002060009054906101000a900473ffffffffffffffffffffffffffffffffffffffff169050919050565b6112d98282604051806020016040528060008152506115d7565b5050565b8173ffffffffffffffffffffffffffffffffffffffff168373ffffffffffffffffffffffffffffffffffffffff160361134b576040517f08c379a000000000000000000000000000000000000000000000000000000000815260040161134290612ac5565b60405180910390fd5b80600560008573ffffffffffffffffffffffffffffffffffffffff1673ffffffffffffffffffffffffffffffffffffffff16815260200190815260200160002060008473ffffffffffffffffffffffffffffffffffffffff1673ffffffffffffffffffffffffffffffffffffffff16815260200190815260200160002060006101000a81548160ff0219169083151502179055508173ffffffffffffffffffffffffffffffffffffffff168373ffffffffffffffffffffffffffffffffffffffff167f17307eab39ab6107e8899845ad3d59bd9653f200f220920489ca2b5937696c318360405161143c9190611c23565b60405180910390a3505050565b611454848484610f89565b61146084848484611632565b61149f576040517f08c379a000000000000000000000000000000000000000000000000000000000815260040161149690612b57565b60405180910390fd5b50505050565b606060405180602001604052806000815250905090565b6060600060016114cb846117b9565b01905060008167ffffffffffffffff8111156114ea576114e9611ea2565b5b6040519080825280601f01601f19166020018201604052801561151c5781602001600182028036833780820191505090505b509050600082602001820190505b60011561157f578080600190039150507f3031323334353637383961626364656600000000000000000000000000000000600a86061a8153600a858161157357611572612b77565b5b0494506000850361152a575b819350505050919050565b60008073ffffffffffffffffffffffffffffffffffffffff166115ac83611282565b73ffffffffffffffffffffffffffffffffffffffff1614159050919050565b50505050565b50505050565b6115e1838361190c565b6115ee6000848484611632565b61162d576040517f08c379a000000000000000000000000000000000000000000000000000000000815260040161162490612b57565b60405180910390fd5b505050565b60006116538473ffffffffffffffffffffffffffffffffffffffff16611b29565b156117ac578373ffffffffffffffffffffffffffffffffffffffff1663150b7a0261167c610e33565b8786866040518563ffffffff1660e01b815260040161169e9493929190612bfb565b6020604051808303816000875af19250505080156116da57506040513d601f19601f820116820180604052508101906116d79190612c5c565b60015b61175c573d806000811461170a576040519150601f19603f3d011682016040523d82523d6000602084013e61170f565b606091505b506000815103611754576040517f08c379a000000000000000000000000000000000000000000000000000000000815260040161174b90612b57565b60405180910390fd5b805181602001fd5b63150b7a0260e01b7bffffffffffffffffffffffffffffffffffffffffffffffffffffffff1916817bffffffffffffffffffffffffffffffffffffffffffffffffffffffff1916149150506117b1565b600190505b949350505050565b600080600090507a184f03e93ff9f4daa797ed6e38ed64bf6a1f0100000000000000008310611817577a184f03e93ff9f4daa797ed6e38ed64bf6a1f010000000000000000838161180d5761180c612b77565b5b0492506040810190505b6d04ee2d6d415b85acef81000000008310611854576d04ee2d6d415b85acef8100000000838161184a57611849612b77565b5b0492506020810190505b662386f26fc10000831061188357662386f26fc10000838161187957611878612b77565b5b0492506010810190505b6305f5e10083106118ac576305f5e10083816118a2576118a1612b77565b5b0492506008810190505b61271083106118d15761271083816118c7576118c6612b77565b5b0492506004810190505b606483106118f457606483816118ea576118e9612b77565b5b0492506002810190505b600a8310611903576001810190505b80915050919050565b600073ffffffffffffffffffffffffffffffffffffffff168273ffffffffffffffffffffffffffffffffffffffff160361197b576040517f08c379a000000000000000000000000000000000000000000000000000000000815260040161197290612cd5565b60405180910390fd5b6119848161158a565b156119c4576040517f08c379a00000000000000000000000000000000000000000000000000000000081526004016119bb90612d41565b60405180910390fd5b6119d26000838360016115cb565b6119db8161158a565b15611a1b576040517f08c379a0000000000000000000000000000000000000000000000000000000008152600401611a1290612d41565b60405180910390fd5b6001600360008473ffffffffffffffffffffffffffffffffffffffff1673ffffffffffffffffffffffffffffffffffffffff16815260200190815260200160002060008282540192505081905550816002600083815260200190815260200160002060006101000a81548173ffffffffffffffffffffffffffffffffffffffff021916908373ffffffffffffffffffffffffffffffffffffffff160217905550808273ffffffffffffffffffffffffffffffffffffffff16600073ffffffffffffffffffffffffffffffffffffffff167fddf252ad1be2c89b69c2b068fc378daa952ba7f163c4a11628f55a4df523b3ef60405160405180910390a4611b256000838360016115d1565b5050565b6000808273ffffffffffffffffffffffffffffffffffffffff163b119050919050565b604051806060016040528060608152602001600081526020016000151581525090565b6000604051905090565b600080fd5b600080fd5b60007fffffffff0000000000000000000000000000000000000000000000000000000082169050919050565b611bb881611b83565b8114611bc357600080fd5b50565b600081359050611bd581611baf565b92915050565b600060208284031215611bf157611bf0611b79565b5b6000611bff84828501611bc6565b91505092915050565b60008115159050919050565b611c1d81611c08565b82525050565b6000602082019050611c386000830184611c14565b92915050565b600081519050919050565b600082825260208201905092915050565b60005b83811015611c78578082015181840152602081019050611c5d565b60008484015250505050565b6000601f19601f8301169050919050565b6000611ca082611c3e565b611caa8185611c49565b9350611cba818560208601611c5a565b611cc381611c84565b840191505092915050565b60006020820190508181036000830152611ce88184611c95565b905092915050565b6000819050919050565b611d0381611cf0565b8114611d0e57600080fd5b50565b600081359050611d2081611cfa565b92915050565b600060208284031215611d3c57611d3b611b79565b5b6000611d4a84828501611d11565b91505092915050565b600073ffffffffffffffffffffffffffffffffffffffff82169050919050565b6000611d7e82611d53565b9050919050565b611d8e81611d73565b82525050565b6000602082019050611da96000830184611d85565b92915050565b611db881611d73565b8114611dc357600080fd5b50565b600081359050611dd581611daf565b92915050565b60008060408385031215611df257611df1611b79565b5b6000611e0085828601611dc6565b9250506020611e1185828601611d11565b9150509250929050565b611e2481611cf0565b82525050565b6000602082019050611e3f6000830184611e1b565b92915050565b600080600060608486031215611e5e57611e5d611b79565b5b6000611e6c86828701611dc6565b9350506020611e7d86828701611dc6565b9250506040611e8e86828701611d11565b9150509250925092565b600080fd5b600080fd5b7f4e487b7100000000000000000000000000000000000000000000000000000000600052604160045260246000fd5b611eda82611c84565b810181811067ffffffffffffffff82111715611ef957611ef8611ea2565b5b80604052505050565b6000611f0c611b6f565b9050611f188282611ed1565b919050565b600067ffffffffffffffff821115611f3857611f37611ea2565b5b611f4182611c84565b9050602081019050919050565b82818337600083830152505050565b6000611f70611f6b84611f1d565b611f02565b905082815260208101848484011115611f8c57611f8b611e9d565b5b611f97848285611f4e565b509392505050565b600082601f830112611fb457611fb3611e98565b5b8135611fc4848260208601611f5d565b91505092915050565b60008060408385031215611fe457611fe3611b79565b5b600083013567ffffffffffffffff81111561200257612001611b7e565b5b61200e85828601611f9f565b925050602061201f85828601611d11565b9150509250929050565b60006020828403121561203f5761203e611b79565b5b600061204d84828501611dc6565b91505092915050565b61205f81611c08565b811461206a57600080fd5b50565b60008135905061207c81612056565b92915050565b6000806040838503121561209957612098611b79565b5b60006120a785828601611dc6565b92505060206120b88582860161206d565b9150509250929050565b600082825260208201905092915050565b60006120de82611c3e565b6120e881856120c2565b93506120f8818560208601611c5a565b61210181611c84565b840191505092915050565b61211581611cf0565b82525050565b61212481611c08565b82525050565b6000606083016000830151848203600086015261214782826120d3565b915050602083015161215c602086018261210c565b50604083015161216f604086018261211b565b508091505092915050565b60006020820190508181036000830152612194818461212a565b905092915050565b600067ffffffffffffffff8211156121b7576121b6611ea2565b5b6121c082611c84565b9050602081019050919050565b60006121e06121db8461219c565b611f02565b9050828152602081018484840111156121fc576121fb611e9d565b5b612207848285611f4e565b509392505050565b600082601f83011261222457612223611e98565b5b81356122348482602086016121cd565b91505092915050565b6000806000806080858703121561225757612256611b79565b5b600061226587828801611dc6565b945050602061227687828801611dc6565b935050604061228787828801611d11565b925050606085013567ffffffffffffffff8111156122a8576122a7611b7e565b5b6122b48782880161220f565b91505092959194509250565b600080604083850312156122d7576122d6611b79565b5b60006122e585828601611dc6565b92505060206122f685828601611dc6565b9150509250929050565b7f4e487b7100000000000000000000000000000000000000000000000000000000600052602260045260246000fd5b6000600282049050600182168061234757607f821691505b60208210810361235a57612359612300565b5b50919050565b7f4552433732313a20617070726f76616c20746f2063757272656e74206f776e6560008201527f7200000000000000000000000000000000000000000000000000000000000000602082015250565b60006123bc602183611c49565b91506123c782612360565b604082019050919050565b600060208201905081810360008301526123eb816123af565b9050919050565b7f4552433732313a20617070726f76652063616c6c6572206973206e6f7420746f60008201527f6b656e206f776e6572206f7220617070726f76656420666f7220616c6c000000602082015250565b600061244e603d83611c49565b9150612459826123f2565b604082019050919050565b6000602082019050818103600083015261247d81612441565b9050919050565b7f4552433732313a2063616c6c6572206973206e6f7420746f6b656e206f776e6560008201527f72206f7220617070726f76656400000000000000000000000000000000000000602082015250565b60006124e0602d83611c49565b91506124eb82612484565b604082019050919050565b6000602082019050818103600083015261250f816124d3565b9050919050565b7f4e487b7100000000000000000000000000000000000000000000000000000000600052601160045260246000fd5b600061255082611cf0565b915061255b83611cf0565b925082820190508082111561257357612572612516565b5b92915050565b60008190508160005260206000209050919050565b60006020601f8301049050919050565b600082821b905092915050565b6000600883026125db7fffffffffffffffffffffffffffffffffffffffffffffffffffffffffffffffff8261259e565b6125e5868361259e565b95508019841693508086168417925050509392505050565b6000819050919050565b600061262261261d61261884611cf0565b6125fd565b611cf0565b9050919050565b6000819050919050565b61263c83612607565b61265061264882612629565b8484546125ab565b825550505050565b600090565b612665612658565b612670818484612633565b505050565b5b818110156126945761268960008261265d565b600181019050612676565b5050565b601f8211156126d9576126aa81612579565b6126b38461258e565b810160208510156126c2578190505b6126d66126ce8561258e565b830182612675565b50505b505050565b600082821c905092915050565b60006126fc600019846008026126de565b1980831691505092915050565b600061271583836126eb565b9150826002028217905092915050565b61272e82611c3e565b67ffffffffffffffff81111561274757612746611ea2565b5b612751825461232f565b61275c828285612698565b600060209050601f83116001811461278f576000841561277d578287015190505b6127878582612709565b8655506127ef565b601f19841661279d86612579565b60005b828110156127c5578489015182556001820191506020850194506020810190506127a0565b868310156127e257848901516127de601f8916826126eb565b8355505b6001600288020188555050505b505050505050565b7f4552433732313a20696e76616c696420746f6b656e2049440000000000000000600082015250565b600061282d601883611c49565b9150612838826127f7565b602082019050919050565b6000602082019050818103600083015261285c81612820565b9050919050565b7f4552433732313a2061646472657373207a65726f206973206e6f74206120766160008201527f6c6964206f776e65720000000000000000000000000000000000000000000000602082015250565b60006128bf602983611c49565b91506128ca82612863565b604082019050919050565b600060208201905081810360008301526128ee816128b2565b9050919050565b600081905092915050565b600061290b82611c3e565b61291581856128f5565b9350612925818560208601611c5a565b80840191505092915050565b600061293d8285612900565b91506129498284612900565b91508190509392505050565b7f4552433732313a207472616e736665722066726f6d20696e636f72726563742060008201527f6f776e6572000000000000000000000000000000000000000000000000000000602082015250565b60006129b1602583611c49565b91506129bc82612955565b604082019050919050565b600060208201905081810360008301526129e0816129a4565b9050919050565b7f4552433732313a207472616e7366657220746f20746865207a65726f2061646460008201527f7265737300000000000000000000000000000000000000000000000000000000602082015250565b6000612a43602483611c49565b9150612a4e826129e7565b604082019050919050565b60006020820190508181036000830152612a7281612a36565b9050919050565b7f4552433732313a20617070726f766520746f2063616c6c657200000000000000600082015250565b6000612aaf601983611c49565b9150612aba82612a79565b602082019050919050565b60006020820190508181036000830152612ade81612aa2565b9050919050565b7f4552433732313a207472616e7366657220746f206e6f6e20455243373231526560008201527f63656976657220696d706c656d656e7465720000000000000000000000000000602082015250565b6000612b41603283611c49565b9150612b4c82612ae5565b604082019050919050565b60006020820190508181036000830152612b7081612b34565b9050919050565b7f4e487b7100000000000000000000000000000000000000000000000000000000600052601260045260246000fd5b600081519050919050565b600082825260208201905092915050565b6000612bcd82612ba6565b612bd78185612bb1565b9350612be7818560208601611c5a565b612bf081611c84565b840191505092915050565b6000608082019050612c106000830187611d85565b612c1d6020830186611d85565b612c2a6040830185611e1b565b8181036060830152612c3c8184612bc2565b905095945050505050565b600081519050612c5681611baf565b92915050565b600060208284031215612c7257612c71611b79565b5b6000612c8084828501612c47565b91505092915050565b7f4552433732313a206d696e7420746f20746865207a65726f2061646472657373600082015250565b6000612cbf602083611c49565b9150612cca82612c89565b602082019050919050565b60006020820190508181036000830152612cee81612cb2565b9050919050565b7f4552433732313a20746f6b656e20616c7265616479206d696e74656400000000600082015250565b6000612d2b601c83611c49565b9150612d3682612cf5565b602082019050919050565b60006020820190508181036000830152612d5a81612d1e565b905091905056fea2646970667358221220a8319d629cacbf8f11745e0ecb70bee823da18ff501f9810b9c1f717cb36d53e64736f6c63430008110033",
  "linkReferences": {},
  "deployedLinkReferences": {}
}