{
  "_format": "hh-sol-artifact-1",
  "contractName": "ETHDaddy",
  "sourceName": "contracts/ETHDaddy.sol",
  "abi": [
    {
      "inputs": [
        {
          "internalType": "string",
          "name": "_name",
          "type": "string"
        },
        {
          "internalType": "string",
          "name": "_symbol",
          "type": "string"
        }
      ],
      "stateMutability": "nonpayable",
      "type": "constructor"
    },
    {
      "anonymous": false,
      "inputs": [
        {
          "indexed": true,
          "internalType": "address",
          "name": "owner",
          "type": "address"
        },
        {
          "indexed": true,
          "internalType": "address",
          "name": "approved",
          "type": "address"
        },
        {
          "indexed": true,
          "internalType": "uint256",
          "name": "tokenId",
          "type": "uint256"
        }
      ],
      "name": "Approval",
      "type": "event"
    },
    {
      "anonymous": false,
      "inputs": [
        {
          "indexed": true,
          "internalType": "address",
          "name": "owner",
          "type": "address"
        },
        {
          "indexed": true,
          "internalType": "address",
          "name": "operator",
          "type": "address"
        },
        {
          "indexed": false,
          "internalType": "bool",
          "name": "approved",
          "type": "bool"
        }
      ],
      "name": "ApprovalForAll",
      "type": "event"
    },
    {
      "anonymous": false,
      "inputs": [
        {
          "indexed": true,
          "internalType": "address",
          "name": "from",
          "type": "address"
        },
        {
          "indexed": true,
          "internalType": "address",
          "name": "to",
          "type": "address"
        },
        {
          "indexed": true,
          "internalType": "uint256",
          "name": "tokenId",
          "type": "uint256"
        }
      ],
      "name": "Transfer",
      "type": "event"
    },
    {
      "inputs": [
        {
          "internalType": "address",
          "name": "to",
          "type": "address"
        },
        {
          "internalType": "uint256",
          "name": "tokenId",
          "type": "uint256"
        }
      ],
      "name": "approve",
      "outputs": [],
      "stateMutability": "nonpayable",
      "type": "function"
    },
    {
      "inputs": [
        {
          "internalType": "address",
          "name": "owner",
          "type": "address"
        }
      ],
      "name": "balanceOf",
      "outputs": [
        {
          "internalType": "uint256",
          "name": "",
          "type": "uint256"
        }
      ],
      "stateMutability": "view",
      "type": "function"
    },
    {
      "inputs": [
        {
          "internalType": "uint256",
          "name": "",
          "type": "uint256"
        }
      ],
      "name": "domains",
      "outputs": [
        {
          "internalType": "string",
          "name": "name",
          "type": "string"
        },
        {
          "internalType": "uint256",
          "name": "cost",
          "type": "uint256"
        },
        {
          "internalType": "bool",
          "name": "isOwned",
          "type": "bool"
        }
      ],
      "stateMutability": "view",
      "type": "function"
    },
    {
      "inputs": [
        {
          "internalType": "uint256",
          "name": "tokenId",
          "type": "uint256"
        }
      ],
      "name": "getApproved",
      "outputs": [
        {
          "internalType": "address",
          "name": "",
          "type": "address"
        }
      ],
      "stateMutability": "view",
      "type": "function"
    },
    {
      "inputs": [
        {
          "internalType": "address",
          "name": "owner",
          "type": "address"
        },
        {
          "internalType": "address",
          "name": "operator",
          "type": "address"
        }
      ],
      "name": "isApprovedForAll",
      "outputs": [
        {
          "internalType": "bool",
          "name": "",
          "type": "bool"
        }
      ],
      "stateMutability": "view",
      "type": "function"
    },
    {
      "inputs": [
        {
          "internalType": "string",
          "name": "_name",
          "type": "string"
        },
        {
          "internalType": "uint256",
          "name": "_cost",
          "type": "uint256"
        }
      ],
      "name": "list",
      "outputs": [],
      "stateMutability": "nonpayable",
      "type": "function"
    },
    {
      "inputs": [],
      "name": "maxSupply",
      "outputs": [
        {
          "internalType": "uint256",
          "name": "",
          "type": "uint256"
        }
      ],
      "stateMutability": "view",
      "type": "function"
    },
    {
      "inputs": [],
      "name": "name",
      "outputs": [
        {
          "internalType": "string",
          "name": "",
          "type": "string"
        }
      ],
      "stateMutability": "view",
      "type": "function"
    },
    {
      "inputs": [],
      "name": "owner",
      "outputs": [
        {
          "internalType": "address",
          "name": "",
          "type": "address"
        }
      ],
      "stateMutability": "view",
      "type": "function"
    },
    {
      "inputs": [
        {
          "internalType": "uint256",
          "name": "tokenId",
          "type": "uint256"
        }
      ],
      "name": "ownerOf",
      "outputs": [
        {
          "internalType": "address",
          "name": "",
          "type": "address"
        }
      ],
      "stateMutability": "view",
      "type": "function"
    },
    {
      "inputs": [
        {
          "internalType": "address",
          "name": "from",
          "type": "address"
        },
        {
          "internalType": "address",
          "name": "to",
          "type": "address"
        },
        {
          "internalType": "uint256",
          "name": "tokenId",
          "type": "uint256"
        }
      ],
      "name": "safeTransferFrom",
      "outputs": [],
      "stateMutability": "nonpayable",
      "type": "function"
    },
    {
      "inputs": [
        {
          "internalType": "address",
          "name": "from",
          "type": "address"
        },
        {
          "internalType": "address",
          "name": "to",
          "type": "address"
        },
        {
          "internalType": "uint256",
          "name": "tokenId",
          "type": "uint256"
        },
        {
          "internalType": "bytes",
          "name": "data",
          "type": "bytes"
        }
      ],
      "name": "safeTransferFrom",
      "outputs": [],
      "stateMutability": "nonpayable",
      "type": "function"
    },
    {
      "inputs": [
        {
          "internalType": "address",
          "name": "operator",
          "type": "address"
        },
        {
          "internalType": "bool",
          "name": "approved",
          "type": "bool"
        }
      ],
      "name": "setApprovalForAll",
      "outputs": [],
      "stateMutability": "nonpayable",
      "type": "function"
    },
    {
      "inputs": [
        {
          "internalType": "bytes4",
          "name": "interfaceId",
          "type": "bytes4"
        }
      ],
      "name": "supportsInterface",
      "outputs": [
        {
          "internalType": "bool",
          "name": "",
          "type": "bool"
        }
      ],
      "stateMutability": "view",
      "type": "function"
    },
    {
      "inputs": [],
      "name": "symbol",
      "outputs": [
        {
          "internalType": "string",
          "name": "",
          "type": "string"
        }
      ],
      "stateMutability": "view",
      "type": "function"
    },
    {
      "inputs": [
        {
          "internalType": "uint256",
          "name": "tokenId",
          "type": "uint256"
        }
      ],
      "name": "tokenURI",
      "outputs": [
        {
          "internalType": "string",
          "name": "",
          "type": "string"
        }
      ],
      "stateMutability": "view",
      "type": "function"
    },
    {
      "inputs": [
        {
          "internalType": "address",
          "name": "from",
          "type": "address"
        },
        {
          "internalType": "address",
          "name": "to",
          "type": "address"
        },
        {
          "internalType": "uint256",
          "name": "tokenId",
          "type": "uint256"
        }
      ],
      "name": "transferFrom",
      "outputs": [],
      "stateMutability": "nonpayable",
      "type": "function"
    }
  ],
  "bytecode": "0x60806040523480156200001157600080fd5b5060405162002dd838038062002dd883398181016040528101906200003791906200023b565b818181600090816200004a91906200050b565b5080600190816200005c91906200050b565b50505033600860006101000a81548173ffffffffffffffffffffffffffffffffffffffff021916908373ffffffffffffffffffffffffffffffffffffffff1602179055505050620005f2565b6000604051905090565b600080fd5b600080fd5b600080fd5b600080fd5b6000601f19601f8301169050919050565b7f4e487b7100000000000000000000000000000000000000000000000000000000600052604160045260246000fd5b6200011182620000c6565b810181811067ffffffffffffffff82111715620001335762000132620000d7565b5b80604052505050565b600062000148620000a8565b905062000156828262000106565b919050565b600067ffffffffffffffff821115620001795762000178620000d7565b5b6200018482620000c6565b9050602081019050919050565b60005b83811015620001b157808201518184015260208101905062000194565b60008484015250505050565b6000620001d4620001ce846200015b565b6200013c565b905082815260208101848484011115620001f357620001f2620000c1565b5b6200020084828562000191565b509392505050565b600082601f83011262000220576200021f620000bc565b5b815162000232848260208601620001bd565b91505092915050565b60008060408385031215620002555762000254620000b2565b5b600083015167ffffffffffffffff811115620002765762000275620000b7565b5b620002848582860162000208565b925050602083015167ffffffffffffffff811115620002a857620002a7620000b7565b5b620002b68582860162000208565b9150509250929050565b600081519050919050565b7f4e487b7100000000000000000000000000000000000000000000000000000000600052602260045260246000fd5b600060028204905060018216806200031357607f821691505b602082108103620003295762000328620002cb565b5b50919050565b60008190508160005260206000209050919050565b60006020601f8301049050919050565b600082821b905092915050565b600060088302620003937fffffffffffffffffffffffffffffffffffffffffffffffffffffffffffffffff8262000354565b6200039f868362000354565b95508019841693508086168417925050509392505050565b6000819050919050565b6000819050919050565b6000620003ec620003e6620003e084620003b7565b620003c1565b620003b7565b9050919050565b6000819050919050565b6200040883620003cb565b620004206200041782620003f3565b84845462000361565b825550505050565b600090565b6200043762000428565b62000444818484620003fd565b505050565b5b818110156200046c57620004606000826200042d565b6001810190506200044a565b5050565b601f821115620004bb5762000485816200032f565b620004908462000344565b81016020851015620004a0578190505b620004b8620004af8562000344565b83018262000449565b50505b505050565b600082821c905092915050565b6000620004e060001984600802620004c0565b1980831691505092915050565b6000620004fb8383620004cd565b9150826002028217905092915050565b6200051682620002c0565b67ffffffffffffffff811115620005325762000531620000d7565b5b6200053e8254620002fa565b6200054b82828562000470565b600060209050601f8311600181146200058357600084156200056e578287015190505b6200057a8582620004ed565b865550620005ea565b601f19841662000593866200032f565b60005b82811015620005bd5784890151825560018201915060208501945060208101905062000596565b86831015620005dd5784890151620005d9601f891682620004cd565b8355505b6001600288020188555050505b505050505050565b6127d680620006026000396000f3fe608060405234801561001057600080fd5b506004361061010b5760003560e01c806366cf8fab116100a2578063a22cb46511610071578063a22cb465146102cc578063b88d4fde146102e8578063c87b56dd14610304578063d5abeb0114610334578063e985e9c5146103525761010b565b806366cf8fab1461022e57806370a08231146102605780638da5cb5b1461029057806395d89b41146102ae5761010b565b806323b872dd116100de57806323b872dd146101aa57806342842e0e146101c65780634a878dfa146101e25780636352211e146101fe5761010b565b806301ffc9a71461011057806306fdde0314610140578063081812fc1461015e578063095ea7b31461018e575b600080fd5b61012a6004803603810190610125919061178e565b610382565b60405161013791906117d6565b60405180910390f35b610148610464565b6040516101559190611881565b60405180910390f35b610178600480360381019061017391906118d9565b6104f6565b6040516101859190611947565b60405180910390f35b6101a860048036038101906101a3919061198e565b61053c565b005b6101c460048036038101906101bf91906119ce565b610653565b005b6101e060048036038101906101db91906119ce565b6106b3565b005b6101fc60048036038101906101f79190611b56565b6106d3565b005b610218600480360381019061021391906118d9565b6107bc565b6040516102259190611947565b60405180910390f35b610248600480360381019061024391906118d9565b610842565b60405161025793929190611bc1565b60405180910390f35b61027a60048036038101906102759190611bff565b610901565b6040516102879190611c2c565b60405180910390f35b6102986109b8565b6040516102a59190611947565b60405180910390f35b6102b66109de565b6040516102c39190611881565b60405180910390f35b6102e660048036038101906102e19190611c73565b610a70565b005b61030260048036038101906102fd9190611d54565b610a86565b005b61031e600480360381019061031991906118d9565b610ae8565b60405161032b9190611881565b60405180910390f35b61033c610b50565b6040516103499190611c2c565b60405180910390f35b61036c60048036038101906103679190611dd7565b610b56565b60405161037991906117d6565b60405180910390f35b60007f80ac58cd000000000000000000000000000000000000000000000000000000007bffffffffffffffffffffffffffffffffffffffffffffffffffffffff1916827bffffffffffffffffffffffffffffffffffffffffffffffffffffffff1916148061044d57507f5b5e139f000000000000000000000000000000000000000000000000000000007bffffffffffffffffffffffffffffffffffffffffffffffffffffffff1916827bffffffffffffffffffffffffffffffffffffffffffffffffffffffff1916145b8061045d575061045c82610bea565b5b9050919050565b60606000805461047390611e46565b80601f016020809104026020016040519081016040528092919081815260200182805461049f90611e46565b80156104ec5780601f106104c1576101008083540402835291602001916104ec565b820191906000526020600020905b8154815290600101906020018083116104cf57829003601f168201915b5050505050905090565b600061050182610c54565b6004600083815260200190815260200160002060009054906101000a900473ffffffffffffffffffffffffffffffffffffffff169050919050565b6000610547826107bc565b90508073ffffffffffffffffffffffffffffffffffffffff168373ffffffffffffffffffffffffffffffffffffffff16036105b7576040517f08c379a00000000000000000000000000000000000000000000000000000000081526004016105ae90611ee9565b60405180910390fd5b8073ffffffffffffffffffffffffffffffffffffffff166105d6610c9f565b73ffffffffffffffffffffffffffffffffffffffff1614806106055750610604816105ff610c9f565b610b56565b5b610644576040517f08c379a000000000000000000000000000000000000000000000000000000000815260040161063b90611f7b565b60405180910390fd5b61064e8383610ca7565b505050565b61066461065e610c9f565b82610d60565b6106a3576040517f08c379a000000000000000000000000000000000000000000000000000000000815260040161069a9061200d565b60405180910390fd5b6106ae838383610df5565b505050565b6106ce83838360405180602001604052806000815250610a86565b505050565b600860009054906101000a900473ffffffffffffffffffffffffffffffffffffffff1673ffffffffffffffffffffffffffffffffffffffff163373ffffffffffffffffffffffffffffffffffffffff161461072d57600080fd5b600160065461073c919061205c565b600681905550604051806060016040528083815260200182815260200160001515815250600760006006548152602001908152602001600020600082015181600001908161078a919061223c565b506020820151816001015560408201518160020160006101000a81548160ff0219169083151502179055509050505050565b6000806107c8836110ee565b9050600073ffffffffffffffffffffffffffffffffffffffff168173ffffffffffffffffffffffffffffffffffffffff1603610839576040517f08c379a00000000000000000000000000000000000000000000000000000000081526004016108309061235a565b60405180910390fd5b80915050919050565b600760205280600052604060002060009150905080600001805461086590611e46565b80601f016020809104026020016040519081016040528092919081815260200182805461089190611e46565b80156108de5780601f106108b3576101008083540402835291602001916108de565b820191906000526020600020905b8154815290600101906020018083116108c157829003601f168201915b5050505050908060010154908060020160009054906101000a900460ff16905083565b60008073ffffffffffffffffffffffffffffffffffffffff168273ffffffffffffffffffffffffffffffffffffffff1603610971576040517f08c379a0000000000000000000000000000000000000000000000000000000008152600401610968906123ec565b60405180910390fd5b600360008373ffffffffffffffffffffffffffffffffffffffff1673ffffffffffffffffffffffffffffffffffffffff168152602001908152602001600020549050919050565b600860009054906101000a900473ffffffffffffffffffffffffffffffffffffffff1681565b6060600180546109ed90611e46565b80601f0160208091040260200160405190810160405280929190818152602001828054610a1990611e46565b8015610a665780601f10610a3b57610100808354040283529160200191610a66565b820191906000526020600020905b815481529060010190602001808311610a4957829003601f168201915b5050505050905090565b610a82610a7b610c9f565b838361112b565b5050565b610a97610a91610c9f565b83610d60565b610ad6576040517f08c379a0000000000000000000000000000000000000000000000000000000008152600401610acd9061200d565b60405180910390fd5b610ae284848484611297565b50505050565b6060610af382610c54565b6000610afd6112f3565b90506000815111610b1d5760405180602001604052806000815250610b48565b80610b278461130a565b604051602001610b38929190612448565b6040516020818303038152906040525b915050919050565b60065481565b6000600560008473ffffffffffffffffffffffffffffffffffffffff1673ffffffffffffffffffffffffffffffffffffffff16815260200190815260200160002060008373ffffffffffffffffffffffffffffffffffffffff1673ffffffffffffffffffffffffffffffffffffffff16815260200190815260200160002060009054906101000a900460ff16905092915050565b60007f01ffc9a7000000000000000000000000000000000000000000000000000000007bffffffffffffffffffffffffffffffffffffffffffffffffffffffff1916827bffffffffffffffffffffffffffffffffffffffffffffffffffffffff1916149050919050565b610c5d816113d8565b610c9c576040517f08c379a0000000000000000000000000000000000000000000000000000000008152600401610c939061235a565b60405180910390fd5b50565b600033905090565b816004600083815260200190815260200160002060006101000a81548173ffffffffffffffffffffffffffffffffffffffff021916908373ffffffffffffffffffffffffffffffffffffffff160217905550808273ffffffffffffffffffffffffffffffffffffffff16610d1a836107bc565b73ffffffffffffffffffffffffffffffffffffffff167f8c5be1e5ebec7d5bd14f71427d1e84f3dd0314c0f7b2291e5b200ac8c7c3b92560405160405180910390a45050565b600080610d6c836107bc565b90508073ffffffffffffffffffffffffffffffffffffffff168473ffffffffffffffffffffffffffffffffffffffff161480610dae5750610dad8185610b56565b5b80610dec57508373ffffffffffffffffffffffffffffffffffffffff16610dd4846104f6565b73ffffffffffffffffffffffffffffffffffffffff16145b91505092915050565b8273ffffffffffffffffffffffffffffffffffffffff16610e15826107bc565b73ffffffffffffffffffffffffffffffffffffffff1614610e6b576040517f08c379a0000000000000000000000000000000000000000000000000000000008152600401610e62906124de565b60405180910390fd5b600073ffffffffffffffffffffffffffffffffffffffff168273ffffffffffffffffffffffffffffffffffffffff1603610eda576040517f08c379a0000000000000000000000000000000000000000000000000000000008152600401610ed190612570565b60405180910390fd5b610ee78383836001611419565b8273ffffffffffffffffffffffffffffffffffffffff16610f07826107bc565b73ffffffffffffffffffffffffffffffffffffffff1614610f5d576040517f08c379a0000000000000000000000000000000000000000000000000000000008152600401610f54906124de565b60405180910390fd5b6004600082815260200190815260200160002060006101000a81549073ffffffffffffffffffffffffffffffffffffffff02191690556001600360008573ffffffffffffffffffffffffffffffffffffffff1673ffffffffffffffffffffffffffffffffffffffff168152602001908152602001600020600082825403925050819055506001600360008473ffffffffffffffffffffffffffffffffffffffff1673ffffffffffffffffffffffffffffffffffffffff16815260200190815260200160002060008282540192505081905550816002600083815260200190815260200160002060006101000a81548173ffffffffffffffffffffffffffffffffffffffff021916908373ffffffffffffffffffffffffffffffffffffffff160217905550808273ffffffffffffffffffffffffffffffffffffffff168473ffffffffffffffffffffffffffffffffffffffff167fddf252ad1be2c89b69c2b068fc378daa952ba7f163c4a11628f55a4df523b3ef60405160405180910390a46110e9838383600161141f565b505050565b60006002600083815260200190815260200160002060009054906101000a900473ffffffffffffffffffffffffffffffffffffffff169050919050565b8173ffffffffffffffffffffffffffffffffffffffff168373ffffffffffffffffffffffffffffffffffffffff1603611199576040517f08c379a0000000000000000000000000000000000000000000000000000000008152600401611190906125dc565b60405180910390fd5b80600560008573ffffffffffffffffffffffffffffffffffffffff1673ffffffffffffffffffffffffffffffffffffffff16815260200190815260200160002060008473ffffffffffffffffffffffffffffffffffffffff1673ffffffffffffffffffffffffffffffffffffffff16815260200190815260200160002060006101000a81548160ff0219169083151502179055508173ffffffffffffffffffffffffffffffffffffffff168373ffffffffffffffffffffffffffffffffffffffff167f17307eab39ab6107e8899845ad3d59bd9653f200f220920489ca2b5937696c318360405161128a91906117d6565b60405180910390a3505050565b6112a2848484610df5565b6112ae84848484611425565b6112ed576040517f08c379a00000000000000000000000000000000000000000000000000000000081526004016112e49061266e565b60405180910390fd5b50505050565b606060405180602001604052806000815250905090565b606060006001611319846115ac565b01905060008167ffffffffffffffff81111561133857611337611a2b565b5b6040519080825280601f01601f19166020018201604052801561136a5781602001600182028036833780820191505090505b509050600082602001820190505b6001156113cd578080600190039150507f3031323334353637383961626364656600000000000000000000000000000000600a86061a8153600a85816113c1576113c061268e565b5b04945060008503611378575b819350505050919050565b60008073ffffffffffffffffffffffffffffffffffffffff166113fa836110ee565b73ffffffffffffffffffffffffffffffffffffffff1614159050919050565b50505050565b50505050565b60006114468473ffffffffffffffffffffffffffffffffffffffff166116ff565b1561159f578373ffffffffffffffffffffffffffffffffffffffff1663150b7a0261146f610c9f565b8786866040518563ffffffff1660e01b81526004016114919493929190612712565b6020604051808303816000875af19250505080156114cd57506040513d601f19601f820116820180604052508101906114ca9190612773565b60015b61154f573d80600081146114fd576040519150601f19603f3d011682016040523d82523d6000602084013e611502565b606091505b506000815103611547576040517f08c379a000000000000000000000000000000000000000000000000000000000815260040161153e9061266e565b60405180910390fd5b805181602001fd5b63150b7a0260e01b7bffffffffffffffffffffffffffffffffffffffffffffffffffffffff1916817bffffffffffffffffffffffffffffffffffffffffffffffffffffffff1916149150506115a4565b600190505b949350505050565b600080600090507a184f03e93ff9f4daa797ed6e38ed64bf6a1f010000000000000000831061160a577a184f03e93ff9f4daa797ed6e38ed64bf6a1f0100000000000000008381611600576115ff61268e565b5b0492506040810190505b6d04ee2d6d415b85acef81000000008310611647576d04ee2d6d415b85acef8100000000838161163d5761163c61268e565b5b0492506020810190505b662386f26fc10000831061167657662386f26fc10000838161166c5761166b61268e565b5b0492506010810190505b6305f5e100831061169f576305f5e10083816116955761169461268e565b5b0492506008810190505b61271083106116c45761271083816116ba576116b961268e565b5b0492506004810190505b606483106116e757606483816116dd576116dc61268e565b5b0492506002810190505b600a83106116f6576001810190505b80915050919050565b6000808273ffffffffffffffffffffffffffffffffffffffff163b119050919050565b6000604051905090565b600080fd5b600080fd5b60007fffffffff0000000000000000000000000000000000000000000000000000000082169050919050565b61176b81611736565b811461177657600080fd5b50565b60008135905061178881611762565b92915050565b6000602082840312156117a4576117a361172c565b5b60006117b284828501611779565b91505092915050565b60008115159050919050565b6117d0816117bb565b82525050565b60006020820190506117eb60008301846117c7565b92915050565b600081519050919050565b600082825260208201905092915050565b60005b8381101561182b578082015181840152602081019050611810565b60008484015250505050565b6000601f19601f8301169050919050565b6000611853826117f1565b61185d81856117fc565b935061186d81856020860161180d565b61187681611837565b840191505092915050565b6000602082019050818103600083015261189b8184611848565b905092915050565b6000819050919050565b6118b6816118a3565b81146118c157600080fd5b50565b6000813590506118d3816118ad565b92915050565b6000602082840312156118ef576118ee61172c565b5b60006118fd848285016118c4565b91505092915050565b600073ffffffffffffffffffffffffffffffffffffffff82169050919050565b600061193182611906565b9050919050565b61194181611926565b82525050565b600060208201905061195c6000830184611938565b92915050565b61196b81611926565b811461197657600080fd5b50565b60008135905061198881611962565b92915050565b600080604083850312156119a5576119a461172c565b5b60006119b385828601611979565b92505060206119c4858286016118c4565b9150509250929050565b6000806000606084860312156119e7576119e661172c565b5b60006119f586828701611979565b9350506020611a0686828701611979565b9250506040611a17868287016118c4565b9150509250925092565b600080fd5b600080fd5b7f4e487b7100000000000000000000000000000000000000000000000000000000600052604160045260246000fd5b611a6382611837565b810181811067ffffffffffffffff82111715611a8257611a81611a2b565b5b80604052505050565b6000611a95611722565b9050611aa18282611a5a565b919050565b600067ffffffffffffffff821115611ac157611ac0611a2b565b5b611aca82611837565b9050602081019050919050565b82818337600083830152505050565b6000611af9611af484611aa6565b611a8b565b905082815260208101848484011115611b1557611b14611a26565b5b611b20848285611ad7565b509392505050565b600082601f830112611b3d57611b3c611a21565b5b8135611b4d848260208601611ae6565b91505092915050565b60008060408385031215611b6d57611b6c61172c565b5b600083013567ffffffffffffffff811115611b8b57611b8a611731565b5b611b9785828601611b28565b9250506020611ba8858286016118c4565b9150509250929050565b611bbb816118a3565b82525050565b60006060820190508181036000830152611bdb8186611848565b9050611bea6020830185611bb2565b611bf760408301846117c7565b949350505050565b600060208284031215611c1557611c1461172c565b5b6000611c2384828501611979565b91505092915050565b6000602082019050611c416000830184611bb2565b92915050565b611c50816117bb565b8114611c5b57600080fd5b50565b600081359050611c6d81611c47565b92915050565b60008060408385031215611c8a57611c8961172c565b5b6000611c9885828601611979565b9250506020611ca985828601611c5e565b9150509250929050565b600067ffffffffffffffff821115611cce57611ccd611a2b565b5b611cd782611837565b9050602081019050919050565b6000611cf7611cf284611cb3565b611a8b565b905082815260208101848484011115611d1357611d12611a26565b5b611d1e848285611ad7565b509392505050565b600082601f830112611d3b57611d3a611a21565b5b8135611d4b848260208601611ce4565b91505092915050565b60008060008060808587031215611d6e57611d6d61172c565b5b6000611d7c87828801611979565b9450506020611d8d87828801611979565b9350506040611d9e878288016118c4565b925050606085013567ffffffffffffffff811115611dbf57611dbe611731565b5b611dcb87828801611d26565b91505092959194509250565b60008060408385031215611dee57611ded61172c565b5b6000611dfc85828601611979565b9250506020611e0d85828601611979565b9150509250929050565b7f4e487b7100000000000000000000000000000000000000000000000000000000600052602260045260246000fd5b60006002820490506001821680611e5e57607f821691505b602082108103611e7157611e70611e17565b5b50919050565b7f4552433732313a20617070726f76616c20746f2063757272656e74206f776e6560008201527f7200000000000000000000000000000000000000000000000000000000000000602082015250565b6000611ed36021836117fc565b9150611ede82611e77565b604082019050919050565b60006020820190508181036000830152611f0281611ec6565b9050919050565b7f4552433732313a20617070726f76652063616c6c6572206973206e6f7420746f60008201527f6b656e206f776e6572206f7220617070726f76656420666f7220616c6c000000602082015250565b6000611f65603d836117fc565b9150611f7082611f09565b604082019050919050565b60006020820190508181036000830152611f9481611f58565b9050919050565b7f4552433732313a2063616c6c6572206973206e6f7420746f6b656e206f776e6560008201527f72206f7220617070726f76656400000000000000000000000000000000000000602082015250565b6000611ff7602d836117fc565b915061200282611f9b565b604082019050919050565b6000602082019050818103600083015261202681611fea565b9050919050565b7f4e487b7100000000000000000000000000000000000000000000000000000000600052601160045260246000fd5b6000612067826118a3565b9150612072836118a3565b925082820190508082111561208a5761208961202d565b5b92915050565b60008190508160005260206000209050919050565b60006020601f8301049050919050565b600082821b905092915050565b6000600883026120f27fffffffffffffffffffffffffffffffffffffffffffffffffffffffffffffffff826120b5565b6120fc86836120b5565b95508019841693508086168417925050509392505050565b6000819050919050565b600061213961213461212f846118a3565b612114565b6118a3565b9050919050565b6000819050919050565b6121538361211e565b61216761215f82612140565b8484546120c2565b825550505050565b600090565b61217c61216f565b61218781848461214a565b505050565b5b818110156121ab576121a0600082612174565b60018101905061218d565b5050565b601f8211156121f0576121c181612090565b6121ca846120a5565b810160208510156121d9578190505b6121ed6121e5856120a5565b83018261218c565b50505b505050565b600082821c905092915050565b6000612213600019846008026121f5565b1980831691505092915050565b600061222c8383612202565b9150826002028217905092915050565b612245826117f1565b67ffffffffffffffff81111561225e5761225d611a2b565b5b6122688254611e46565b6122738282856121af565b600060209050601f8311600181146122a65760008415612294578287015190505b61229e8582612220565b865550612306565b601f1984166122b486612090565b60005b828110156122dc578489015182556001820191506020850194506020810190506122b7565b868310156122f957848901516122f5601f891682612202565b8355505b6001600288020188555050505b505050505050565b7f4552433732313a20696e76616c696420746f6b656e2049440000000000000000600082015250565b60006123446018836117fc565b915061234f8261230e565b602082019050919050565b6000602082019050818103600083015261237381612337565b9050919050565b7f4552433732313a2061646472657373207a65726f206973206e6f74206120766160008201527f6c6964206f776e65720000000000000000000000000000000000000000000000602082015250565b60006123d66029836117fc565b91506123e18261237a565b604082019050919050565b60006020820190508181036000830152612405816123c9565b9050919050565b600081905092915050565b6000612422826117f1565b61242c818561240c565b935061243c81856020860161180d565b80840191505092915050565b60006124548285612417565b91506124608284612417565b91508190509392505050565b7f4552433732313a207472616e736665722066726f6d20696e636f72726563742060008201527f6f776e6572000000000000000000000000000000000000000000000000000000602082015250565b60006124c86025836117fc565b91506124d38261246c565b604082019050919050565b600060208201905081810360008301526124f7816124bb565b9050919050565b7f4552433732313a207472616e7366657220746f20746865207a65726f2061646460008201527f7265737300000000000000000000000000000000000000000000000000000000602082015250565b600061255a6024836117fc565b9150612565826124fe565b604082019050919050565b600060208201905081810360008301526125898161254d565b9050919050565b7f4552433732313a20617070726f766520746f2063616c6c657200000000000000600082015250565b60006125c66019836117fc565b91506125d182612590565b602082019050919050565b600060208201905081810360008301526125f5816125b9565b9050919050565b7f4552433732313a207472616e7366657220746f206e6f6e20455243373231526560008201527f63656976657220696d706c656d656e7465720000000000000000000000000000602082015250565b60006126586032836117fc565b9150612663826125fc565b604082019050919050565b600060208201905081810360008301526126878161264b565b9050919050565b7f4e487b7100000000000000000000000000000000000000000000000000000000600052601260045260246000fd5b600081519050919050565b600082825260208201905092915050565b60006126e4826126bd565b6126ee81856126c8565b93506126fe81856020860161180d565b61270781611837565b840191505092915050565b60006080820190506127276000830187611938565b6127346020830186611938565b6127416040830185611bb2565b818103606083015261275381846126d9565b905095945050505050565b60008151905061276d81611762565b92915050565b6000602082840312156127895761278861172c565b5b60006127978482850161275e565b9150509291505056fea26469706673582212203c1b9049d23401094c27a3b05fbded14a43aca94ee9d917e7a5dae41011d9aea64736f6c63430008110033",
  "linkReferences": {},
  "deployedLinkReferences": {}
}