{
  "_format": "hh-sol-artifact-1",
  "contractName": "ETHDaddy",
  "sourceName": "contracts/ETHDaddy.sol",
  "abi": [
    {
      "inputs": [
        {
          "internalType": "string",
          "name": "_name",
          "type": "string"
        },
        {
          "internalType": "string",
          "name": "_symbol",
          "type": "string"
        }
      ],
      "stateMutability": "nonpayable",
      "type": "constructor"
    },
    {
      "anonymous": false,
      "inputs": [
        {
          "indexed": true,
          "internalType": "address",
          "name": "owner",
          "type": "address"
        },
        {
          "indexed": true,
          "internalType": "address",
          "name": "approved",
          "type": "address"
        },
        {
          "indexed": true,
          "internalType": "uint256",
          "name": "tokenId",
          "type": "uint256"
        }
      ],
      "name": "Approval",
      "type": "event"
    },
    {
      "anonymous": false,
      "inputs": [
        {
          "indexed": true,
          "internalType": "address",
          "name": "owner",
          "type": "address"
        },
        {
          "indexed": true,
          "internalType": "address",
          "name": "operator",
          "type": "address"
        },
        {
          "indexed": false,
          "internalType": "bool",
          "name": "approved",
          "type": "bool"
        }
      ],
      "name": "ApprovalForAll",
      "type": "event"
    },
    {
      "anonymous": false,
      "inputs": [
        {
          "indexed": true,
          "internalType": "address",
          "name": "from",
          "type": "address"
        },
        {
          "indexed": true,
          "internalType": "address",
          "name": "to",
          "type": "address"
        },
        {
          "indexed": true,
          "internalType": "uint256",
          "name": "tokenId",
          "type": "uint256"
        }
      ],
      "name": "Transfer",
      "type": "event"
    },
    {
      "inputs": [
        {
          "internalType": "address",
          "name": "to",
          "type": "address"
        },
        {
          "internalType": "uint256",
          "name": "tokenId",
          "type": "uint256"
        }
      ],
      "name": "approve",
      "outputs": [],
      "stateMutability": "nonpayable",
      "type": "function"
    },
    {
      "inputs": [
        {
          "internalType": "address",
          "name": "owner",
          "type": "address"
        }
      ],
      "name": "balanceOf",
      "outputs": [
        {
          "internalType": "uint256",
          "name": "",
          "type": "uint256"
        }
      ],
      "stateMutability": "view",
      "type": "function"
    },
    {
      "inputs": [
        {
          "internalType": "uint256",
          "name": "tokenId",
          "type": "uint256"
        }
      ],
      "name": "getApproved",
      "outputs": [
        {
          "internalType": "address",
          "name": "",
          "type": "address"
        }
      ],
      "stateMutability": "view",
      "type": "function"
    },
    {
      "inputs": [
        {
          "internalType": "uint256",
          "name": "_id",
          "type": "uint256"
        }
      ],
      "name": "getDomains",
      "outputs": [
        {
          "components": [
            {
              "internalType": "string",
              "name": "name",
              "type": "string"
            },
            {
              "internalType": "uint256",
              "name": "cost",
              "type": "uint256"
            },
            {
              "internalType": "bool",
              "name": "isOwned",
              "type": "bool"
            }
          ],
          "internalType": "struct ETHDaddy.Domain",
          "name": "",
          "type": "tuple"
        }
      ],
      "stateMutability": "view",
      "type": "function"
    },
    {
      "inputs": [
        {
          "internalType": "address",
          "name": "owner",
          "type": "address"
        },
        {
          "internalType": "address",
          "name": "operator",
          "type": "address"
        }
      ],
      "name": "isApprovedForAll",
      "outputs": [
        {
          "internalType": "bool",
          "name": "",
          "type": "bool"
        }
      ],
      "stateMutability": "view",
      "type": "function"
    },
    {
      "inputs": [
        {
          "internalType": "string",
          "name": "_name",
          "type": "string"
        },
        {
          "internalType": "uint256",
          "name": "_cost",
          "type": "uint256"
        }
      ],
      "name": "list",
      "outputs": [],
      "stateMutability": "nonpayable",
      "type": "function"
    },
    {
      "inputs": [],
      "name": "maxSupply",
      "outputs": [
        {
          "internalType": "uint256",
          "name": "",
          "type": "uint256"
        }
      ],
      "stateMutability": "view",
      "type": "function"
    },
    {
      "inputs": [
        {
          "internalType": "uint256",
          "name": "_id",
          "type": "uint256"
        }
      ],
      "name": "mint",
      "outputs": [],
      "stateMutability": "nonpayable",
      "type": "function"
    },
    {
      "inputs": [],
      "name": "name",
      "outputs": [
        {
          "internalType": "string",
          "name": "",
          "type": "string"
        }
      ],
      "stateMutability": "view",
      "type": "function"
    },
    {
      "inputs": [],
      "name": "owner",
      "outputs": [
        {
          "internalType": "address",
          "name": "",
          "type": "address"
        }
      ],
      "stateMutability": "view",
      "type": "function"
    },
    {
      "inputs": [
        {
          "internalType": "uint256",
          "name": "tokenId",
          "type": "uint256"
        }
      ],
      "name": "ownerOf",
      "outputs": [
        {
          "internalType": "address",
          "name": "",
          "type": "address"
        }
      ],
      "stateMutability": "view",
      "type": "function"
    },
    {
      "inputs": [
        {
          "internalType": "address",
          "name": "from",
          "type": "address"
        },
        {
          "internalType": "address",
          "name": "to",
          "type": "address"
        },
        {
          "internalType": "uint256",
          "name": "tokenId",
          "type": "uint256"
        }
      ],
      "name": "safeTransferFrom",
      "outputs": [],
      "stateMutability": "nonpayable",
      "type": "function"
    },
    {
      "inputs": [
        {
          "internalType": "address",
          "name": "from",
          "type": "address"
        },
        {
          "internalType": "address",
          "name": "to",
          "type": "address"
        },
        {
          "internalType": "uint256",
          "name": "tokenId",
          "type": "uint256"
        },
        {
          "internalType": "bytes",
          "name": "data",
          "type": "bytes"
        }
      ],
      "name": "safeTransferFrom",
      "outputs": [],
      "stateMutability": "nonpayable",
      "type": "function"
    },
    {
      "inputs": [
        {
          "internalType": "address",
          "name": "operator",
          "type": "address"
        },
        {
          "internalType": "bool",
          "name": "approved",
          "type": "bool"
        }
      ],
      "name": "setApprovalForAll",
      "outputs": [],
      "stateMutability": "nonpayable",
      "type": "function"
    },
    {
      "inputs": [
        {
          "internalType": "bytes4",
          "name": "interfaceId",
          "type": "bytes4"
        }
      ],
      "name": "supportsInterface",
      "outputs": [
        {
          "internalType": "bool",
          "name": "",
          "type": "bool"
        }
      ],
      "stateMutability": "view",
      "type": "function"
    },
    {
      "inputs": [],
      "name": "symbol",
      "outputs": [
        {
          "internalType": "string",
          "name": "",
          "type": "string"
        }
      ],
      "stateMutability": "view",
      "type": "function"
    },
    {
      "inputs": [
        {
          "internalType": "uint256",
          "name": "tokenId",
          "type": "uint256"
        }
      ],
      "name": "tokenURI",
      "outputs": [
        {
          "internalType": "string",
          "name": "",
          "type": "string"
        }
      ],
      "stateMutability": "view",
      "type": "function"
    },
    {
      "inputs": [
        {
          "internalType": "address",
          "name": "from",
          "type": "address"
        },
        {
          "internalType": "address",
          "name": "to",
          "type": "address"
        },
        {
          "internalType": "uint256",
          "name": "tokenId",
          "type": "uint256"
        }
      ],
      "name": "transferFrom",
      "outputs": [],
      "stateMutability": "nonpayable",
      "type": "function"
    }
  ],
  "bytecode": "0x60806040523480156200001157600080fd5b506040516200325c3803806200325c83398181016040528101906200003791906200023b565b818181600090816200004a91906200050b565b5080600190816200005c91906200050b565b50505033600860006101000a81548173ffffffffffffffffffffffffffffffffffffffff021916908373ffffffffffffffffffffffffffffffffffffffff1602179055505050620005f2565b6000604051905090565b600080fd5b600080fd5b600080fd5b600080fd5b6000601f19601f8301169050919050565b7f4e487b7100000000000000000000000000000000000000000000000000000000600052604160045260246000fd5b6200011182620000c6565b810181811067ffffffffffffffff82111715620001335762000132620000d7565b5b80604052505050565b600062000148620000a8565b905062000156828262000106565b919050565b600067ffffffffffffffff821115620001795762000178620000d7565b5b6200018482620000c6565b9050602081019050919050565b60005b83811015620001b157808201518184015260208101905062000194565b60008484015250505050565b6000620001d4620001ce846200015b565b6200013c565b905082815260208101848484011115620001f357620001f2620000c1565b5b6200020084828562000191565b509392505050565b600082601f83011262000220576200021f620000bc565b5b815162000232848260208601620001bd565b91505092915050565b60008060408385031215620002555762000254620000b2565b5b600083015167ffffffffffffffff811115620002765762000275620000b7565b5b620002848582860162000208565b925050602083015167ffffffffffffffff811115620002a857620002a7620000b7565b5b620002b68582860162000208565b9150509250929050565b600081519050919050565b7f4e487b7100000000000000000000000000000000000000000000000000000000600052602260045260246000fd5b600060028204905060018216806200031357607f821691505b602082108103620003295762000328620002cb565b5b50919050565b60008190508160005260206000209050919050565b60006020601f8301049050919050565b600082821b905092915050565b600060088302620003937fffffffffffffffffffffffffffffffffffffffffffffffffffffffffffffffff8262000354565b6200039f868362000354565b95508019841693508086168417925050509392505050565b6000819050919050565b6000819050919050565b6000620003ec620003e6620003e084620003b7565b620003c1565b620003b7565b9050919050565b6000819050919050565b6200040883620003cb565b620004206200041782620003f3565b84845462000361565b825550505050565b600090565b6200043762000428565b62000444818484620003fd565b505050565b5b818110156200046c57620004606000826200042d565b6001810190506200044a565b5050565b601f821115620004bb5762000485816200032f565b620004908462000344565b81016020851015620004a0578190505b620004b8620004af8562000344565b83018262000449565b50505b505050565b600082821c905092915050565b6000620004e060001984600802620004c0565b1980831691505092915050565b6000620004fb8383620004cd565b9150826002028217905092915050565b6200051682620002c0565b67ffffffffffffffff811115620005325762000531620000d7565b5b6200053e8254620002fa565b6200054b82828562000470565b600060209050601f8311600181146200058357600084156200056e578287015190505b6200057a8582620004ed565b865550620005ea565b601f19841662000593866200032f565b60005b82811015620005bd5784890151825560018201915060208501945060208101905062000596565b86831015620005dd5784890151620005d9601f891682620004cd565b8355505b6001600288020188555050505b505050505050565b612c5a80620006026000396000f3fe608060405234801561001057600080fd5b50600436106101165760003560e01c80638da5cb5b116100a2578063b36b652c11610071578063b36b652c146102dd578063b88d4fde1461030d578063c87b56dd14610329578063d5abeb0114610359578063e985e9c51461037757610116565b80638da5cb5b1461026957806395d89b4114610287578063a0712d68146102a5578063a22cb465146102c157610116565b806323b872dd116100e957806323b872dd146101b557806342842e0e146101d15780634a878dfa146101ed5780636352211e1461020957806370a082311461023957610116565b806301ffc9a71461011b57806306fdde031461014b578063081812fc14610169578063095ea7b314610199575b600080fd5b61013560048036038101906101309190611a9e565b6103a7565b6040516101429190611ae6565b60405180910390f35b610153610489565b6040516101609190611b91565b60405180910390f35b610183600480360381019061017e9190611be9565b61051b565b6040516101909190611c57565b60405180910390f35b6101b360048036038101906101ae9190611c9e565b610561565b005b6101cf60048036038101906101ca9190611cde565b610678565b005b6101eb60048036038101906101e69190611cde565b6106d8565b005b61020760048036038101906102029190611e66565b6106f8565b005b610223600480360381019061021e9190611be9565b6107e1565b6040516102309190611c57565b60405180910390f35b610253600480360381019061024e9190611ec2565b610867565b6040516102609190611efe565b60405180910390f35b61027161091e565b60405161027e9190611c57565b60405180910390f35b61028f610944565b60405161029c9190611b91565b60405180910390f35b6102bf60048036038101906102ba9190611be9565b6109d6565b005b6102db60048036038101906102d69190611f45565b6109e3565b005b6102f760048036038101906102f29190611be9565b6109f9565b604051610304919061203d565b60405180910390f35b61032760048036038101906103229190612100565b610add565b005b610343600480360381019061033e9190611be9565b610b3f565b6040516103509190611b91565b60405180910390f35b610361610ba7565b60405161036e9190611efe565b60405180910390f35b610391600480360381019061038c9190612183565b610bad565b60405161039e9190611ae6565b60405180910390f35b60007f80ac58cd000000000000000000000000000000000000000000000000000000007bffffffffffffffffffffffffffffffffffffffffffffffffffffffff1916827bffffffffffffffffffffffffffffffffffffffffffffffffffffffff1916148061047257507f5b5e139f000000000000000000000000000000000000000000000000000000007bffffffffffffffffffffffffffffffffffffffffffffffffffffffff1916827bffffffffffffffffffffffffffffffffffffffffffffffffffffffff1916145b80610482575061048182610c41565b5b9050919050565b606060008054610498906121f2565b80601f01602080910402602001604051908101604052809291908181526020018280546104c4906121f2565b80156105115780601f106104e657610100808354040283529160200191610511565b820191906000526020600020905b8154815290600101906020018083116104f457829003601f168201915b5050505050905090565b600061052682610cab565b6004600083815260200190815260200160002060009054906101000a900473ffffffffffffffffffffffffffffffffffffffff169050919050565b600061056c826107e1565b90508073ffffffffffffffffffffffffffffffffffffffff168373ffffffffffffffffffffffffffffffffffffffff16036105dc576040517f08c379a00000000000000000000000000000000000000000000000000000000081526004016105d390612295565b60405180910390fd5b8073ffffffffffffffffffffffffffffffffffffffff166105fb610cf6565b73ffffffffffffffffffffffffffffffffffffffff16148061062a575061062981610624610cf6565b610bad565b5b610669576040517f08c379a000000000000000000000000000000000000000000000000000000000815260040161066090612327565b60405180910390fd5b6106738383610cfe565b505050565b610689610683610cf6565b82610db7565b6106c8576040517f08c379a00000000000000000000000000000000000000000000000000000000081526004016106bf906123b9565b60405180910390fd5b6106d3838383610e4c565b505050565b6106f383838360405180602001604052806000815250610add565b505050565b600860009054906101000a900473ffffffffffffffffffffffffffffffffffffffff1673ffffffffffffffffffffffffffffffffffffffff163373ffffffffffffffffffffffffffffffffffffffff161461075257600080fd5b60016006546107619190612408565b60068190555060405180606001604052808381526020018281526020016000151581525060076000600654815260200190815260200160002060008201518160000190816107af91906125e8565b506020820151816001015560408201518160020160006101000a81548160ff0219169083151502179055509050505050565b6000806107ed83611145565b9050600073ffffffffffffffffffffffffffffffffffffffff168173ffffffffffffffffffffffffffffffffffffffff160361085e576040517f08c379a000000000000000000000000000000000000000000000000000000000815260040161085590612706565b60405180910390fd5b80915050919050565b60008073ffffffffffffffffffffffffffffffffffffffff168273ffffffffffffffffffffffffffffffffffffffff16036108d7576040517f08c379a00000000000000000000000000000000000000000000000000000000081526004016108ce90612798565b60405180910390fd5b600360008373ffffffffffffffffffffffffffffffffffffffff1673ffffffffffffffffffffffffffffffffffffffff168152602001908152602001600020549050919050565b600860009054906101000a900473ffffffffffffffffffffffffffffffffffffffff1681565b606060018054610953906121f2565b80601f016020809104026020016040519081016040528092919081815260200182805461097f906121f2565b80156109cc5780601f106109a1576101008083540402835291602001916109cc565b820191906000526020600020905b8154815290600101906020018083116109af57829003601f168201915b5050505050905090565b6109e03382611182565b50565b6109f56109ee610cf6565b83836111a0565b5050565b610a01611a0f565b60076000838152602001908152602001600020604051806060016040529081600082018054610a2f906121f2565b80601f0160208091040260200160405190810160405280929190818152602001828054610a5b906121f2565b8015610aa85780601f10610a7d57610100808354040283529160200191610aa8565b820191906000526020600020905b815481529060010190602001808311610a8b57829003601f168201915b50505050508152602001600182015481526020016002820160009054906101000a900460ff1615151515815250509050919050565b610aee610ae8610cf6565b83610db7565b610b2d576040517f08c379a0000000000000000000000000000000000000000000000000000000008152600401610b24906123b9565b60405180910390fd5b610b398484848461130c565b50505050565b6060610b4a82610cab565b6000610b54611368565b90506000815111610b745760405180602001604052806000815250610b9f565b80610b7e8461137f565b604051602001610b8f9291906127f4565b6040516020818303038152906040525b915050919050565b60065481565b6000600560008473ffffffffffffffffffffffffffffffffffffffff1673ffffffffffffffffffffffffffffffffffffffff16815260200190815260200160002060008373ffffffffffffffffffffffffffffffffffffffff1673ffffffffffffffffffffffffffffffffffffffff16815260200190815260200160002060009054906101000a900460ff16905092915050565b60007f01ffc9a7000000000000000000000000000000000000000000000000000000007bffffffffffffffffffffffffffffffffffffffffffffffffffffffff1916827bffffffffffffffffffffffffffffffffffffffffffffffffffffffff1916149050919050565b610cb48161144d565b610cf3576040517f08c379a0000000000000000000000000000000000000000000000000000000008152600401610cea90612706565b60405180910390fd5b50565b600033905090565b816004600083815260200190815260200160002060006101000a81548173ffffffffffffffffffffffffffffffffffffffff021916908373ffffffffffffffffffffffffffffffffffffffff160217905550808273ffffffffffffffffffffffffffffffffffffffff16610d71836107e1565b73ffffffffffffffffffffffffffffffffffffffff167f8c5be1e5ebec7d5bd14f71427d1e84f3dd0314c0f7b2291e5b200ac8c7c3b92560405160405180910390a45050565b600080610dc3836107e1565b90508073ffffffffffffffffffffffffffffffffffffffff168473ffffffffffffffffffffffffffffffffffffffff161480610e055750610e048185610bad565b5b80610e4357508373ffffffffffffffffffffffffffffffffffffffff16610e2b8461051b565b73ffffffffffffffffffffffffffffffffffffffff16145b91505092915050565b8273ffffffffffffffffffffffffffffffffffffffff16610e6c826107e1565b73ffffffffffffffffffffffffffffffffffffffff1614610ec2576040517f08c379a0000000000000000000000000000000000000000000000000000000008152600401610eb99061288a565b60405180910390fd5b600073ffffffffffffffffffffffffffffffffffffffff168273ffffffffffffffffffffffffffffffffffffffff1603610f31576040517f08c379a0000000000000000000000000000000000000000000000000000000008152600401610f289061291c565b60405180910390fd5b610f3e838383600161148e565b8273ffffffffffffffffffffffffffffffffffffffff16610f5e826107e1565b73ffffffffffffffffffffffffffffffffffffffff1614610fb4576040517f08c379a0000000000000000000000000000000000000000000000000000000008152600401610fab9061288a565b60405180910390fd5b6004600082815260200190815260200160002060006101000a81549073ffffffffffffffffffffffffffffffffffffffff02191690556001600360008573ffffffffffffffffffffffffffffffffffffffff1673ffffffffffffffffffffffffffffffffffffffff168152602001908152602001600020600082825403925050819055506001600360008473ffffffffffffffffffffffffffffffffffffffff1673ffffffffffffffffffffffffffffffffffffffff16815260200190815260200160002060008282540192505081905550816002600083815260200190815260200160002060006101000a81548173ffffffffffffffffffffffffffffffffffffffff021916908373ffffffffffffffffffffffffffffffffffffffff160217905550808273ffffffffffffffffffffffffffffffffffffffff168473ffffffffffffffffffffffffffffffffffffffff167fddf252ad1be2c89b69c2b068fc378daa952ba7f163c4a11628f55a4df523b3ef60405160405180910390a46111408383836001611494565b505050565b60006002600083815260200190815260200160002060009054906101000a900473ffffffffffffffffffffffffffffffffffffffff169050919050565b61119c82826040518060200160405280600081525061149a565b5050565b8173ffffffffffffffffffffffffffffffffffffffff168373ffffffffffffffffffffffffffffffffffffffff160361120e576040517f08c379a000000000000000000000000000000000000000000000000000000000815260040161120590612988565b60405180910390fd5b80600560008573ffffffffffffffffffffffffffffffffffffffff1673ffffffffffffffffffffffffffffffffffffffff16815260200190815260200160002060008473ffffffffffffffffffffffffffffffffffffffff1673ffffffffffffffffffffffffffffffffffffffff16815260200190815260200160002060006101000a81548160ff0219169083151502179055508173ffffffffffffffffffffffffffffffffffffffff168373ffffffffffffffffffffffffffffffffffffffff167f17307eab39ab6107e8899845ad3d59bd9653f200f220920489ca2b5937696c31836040516112ff9190611ae6565b60405180910390a3505050565b611317848484610e4c565b611323848484846114f5565b611362576040517f08c379a000000000000000000000000000000000000000000000000000000000815260040161135990612a1a565b60405180910390fd5b50505050565b606060405180602001604052806000815250905090565b60606000600161138e8461167c565b01905060008167ffffffffffffffff8111156113ad576113ac611d3b565b5b6040519080825280601f01601f1916602001820160405280156113df5781602001600182028036833780820191505090505b509050600082602001820190505b600115611442578080600190039150507f3031323334353637383961626364656600000000000000000000000000000000600a86061a8153600a858161143657611435612a3a565b5b049450600085036113ed575b819350505050919050565b60008073ffffffffffffffffffffffffffffffffffffffff1661146f83611145565b73ffffffffffffffffffffffffffffffffffffffff1614159050919050565b50505050565b50505050565b6114a483836117cf565b6114b160008484846114f5565b6114f0576040517f08c379a00000000000000000000000000000000000000000000000000000000081526004016114e790612a1a565b60405180910390fd5b505050565b60006115168473ffffffffffffffffffffffffffffffffffffffff166119ec565b1561166f578373ffffffffffffffffffffffffffffffffffffffff1663150b7a0261153f610cf6565b8786866040518563ffffffff1660e01b81526004016115619493929190612abe565b6020604051808303816000875af192505050801561159d57506040513d601f19601f8201168201806040525081019061159a9190612b1f565b60015b61161f573d80600081146115cd576040519150601f19603f3d011682016040523d82523d6000602084013e6115d2565b606091505b506000815103611617576040517f08c379a000000000000000000000000000000000000000000000000000000000815260040161160e90612a1a565b60405180910390fd5b805181602001fd5b63150b7a0260e01b7bffffffffffffffffffffffffffffffffffffffffffffffffffffffff1916817bffffffffffffffffffffffffffffffffffffffffffffffffffffffff191614915050611674565b600190505b949350505050565b600080600090507a184f03e93ff9f4daa797ed6e38ed64bf6a1f01000000000000000083106116da577a184f03e93ff9f4daa797ed6e38ed64bf6a1f01000000000000000083816116d0576116cf612a3a565b5b0492506040810190505b6d04ee2d6d415b85acef81000000008310611717576d04ee2d6d415b85acef8100000000838161170d5761170c612a3a565b5b0492506020810190505b662386f26fc10000831061174657662386f26fc10000838161173c5761173b612a3a565b5b0492506010810190505b6305f5e100831061176f576305f5e100838161176557611764612a3a565b5b0492506008810190505b612710831061179457612710838161178a57611789612a3a565b5b0492506004810190505b606483106117b757606483816117ad576117ac612a3a565b5b0492506002810190505b600a83106117c6576001810190505b80915050919050565b600073ffffffffffffffffffffffffffffffffffffffff168273ffffffffffffffffffffffffffffffffffffffff160361183e576040517f08c379a000000000000000000000000000000000000000000000000000000000815260040161183590612b98565b60405180910390fd5b6118478161144d565b15611887576040517f08c379a000000000000000000000000000000000000000000000000000000000815260040161187e90612c04565b60405180910390fd5b61189560008383600161148e565b61189e8161144d565b156118de576040517f08c379a00000000000000000000000000000000000000000000000000000000081526004016118d590612c04565b60405180910390fd5b6001600360008473ffffffffffffffffffffffffffffffffffffffff1673ffffffffffffffffffffffffffffffffffffffff16815260200190815260200160002060008282540192505081905550816002600083815260200190815260200160002060006101000a81548173ffffffffffffffffffffffffffffffffffffffff021916908373ffffffffffffffffffffffffffffffffffffffff160217905550808273ffffffffffffffffffffffffffffffffffffffff16600073ffffffffffffffffffffffffffffffffffffffff167fddf252ad1be2c89b69c2b068fc378daa952ba7f163c4a11628f55a4df523b3ef60405160405180910390a46119e8600083836001611494565b5050565b6000808273ffffffffffffffffffffffffffffffffffffffff163b119050919050565b604051806060016040528060608152602001600081526020016000151581525090565b6000604051905090565b600080fd5b600080fd5b60007fffffffff0000000000000000000000000000000000000000000000000000000082169050919050565b611a7b81611a46565b8114611a8657600080fd5b50565b600081359050611a9881611a72565b92915050565b600060208284031215611ab457611ab3611a3c565b5b6000611ac284828501611a89565b91505092915050565b60008115159050919050565b611ae081611acb565b82525050565b6000602082019050611afb6000830184611ad7565b92915050565b600081519050919050565b600082825260208201905092915050565b60005b83811015611b3b578082015181840152602081019050611b20565b60008484015250505050565b6000601f19601f8301169050919050565b6000611b6382611b01565b611b6d8185611b0c565b9350611b7d818560208601611b1d565b611b8681611b47565b840191505092915050565b60006020820190508181036000830152611bab8184611b58565b905092915050565b6000819050919050565b611bc681611bb3565b8114611bd157600080fd5b50565b600081359050611be381611bbd565b92915050565b600060208284031215611bff57611bfe611a3c565b5b6000611c0d84828501611bd4565b91505092915050565b600073ffffffffffffffffffffffffffffffffffffffff82169050919050565b6000611c4182611c16565b9050919050565b611c5181611c36565b82525050565b6000602082019050611c6c6000830184611c48565b92915050565b611c7b81611c36565b8114611c8657600080fd5b50565b600081359050611c9881611c72565b92915050565b60008060408385031215611cb557611cb4611a3c565b5b6000611cc385828601611c89565b9250506020611cd485828601611bd4565b9150509250929050565b600080600060608486031215611cf757611cf6611a3c565b5b6000611d0586828701611c89565b9350506020611d1686828701611c89565b9250506040611d2786828701611bd4565b9150509250925092565b600080fd5b600080fd5b7f4e487b7100000000000000000000000000000000000000000000000000000000600052604160045260246000fd5b611d7382611b47565b810181811067ffffffffffffffff82111715611d9257611d91611d3b565b5b80604052505050565b6000611da5611a32565b9050611db18282611d6a565b919050565b600067ffffffffffffffff821115611dd157611dd0611d3b565b5b611dda82611b47565b9050602081019050919050565b82818337600083830152505050565b6000611e09611e0484611db6565b611d9b565b905082815260208101848484011115611e2557611e24611d36565b5b611e30848285611de7565b509392505050565b600082601f830112611e4d57611e4c611d31565b5b8135611e5d848260208601611df6565b91505092915050565b60008060408385031215611e7d57611e7c611a3c565b5b600083013567ffffffffffffffff811115611e9b57611e9a611a41565b5b611ea785828601611e38565b9250506020611eb885828601611bd4565b9150509250929050565b600060208284031215611ed857611ed7611a3c565b5b6000611ee684828501611c89565b91505092915050565b611ef881611bb3565b82525050565b6000602082019050611f136000830184611eef565b92915050565b611f2281611acb565b8114611f2d57600080fd5b50565b600081359050611f3f81611f19565b92915050565b60008060408385031215611f5c57611f5b611a3c565b5b6000611f6a85828601611c89565b9250506020611f7b85828601611f30565b9150509250929050565b600082825260208201905092915050565b6000611fa182611b01565b611fab8185611f85565b9350611fbb818560208601611b1d565b611fc481611b47565b840191505092915050565b611fd881611bb3565b82525050565b611fe781611acb565b82525050565b6000606083016000830151848203600086015261200a8282611f96565b915050602083015161201f6020860182611fcf565b5060408301516120326040860182611fde565b508091505092915050565b600060208201905081810360008301526120578184611fed565b905092915050565b600067ffffffffffffffff82111561207a57612079611d3b565b5b61208382611b47565b9050602081019050919050565b60006120a361209e8461205f565b611d9b565b9050828152602081018484840111156120bf576120be611d36565b5b6120ca848285611de7565b509392505050565b600082601f8301126120e7576120e6611d31565b5b81356120f7848260208601612090565b91505092915050565b6000806000806080858703121561211a57612119611a3c565b5b600061212887828801611c89565b945050602061213987828801611c89565b935050604061214a87828801611bd4565b925050606085013567ffffffffffffffff81111561216b5761216a611a41565b5b612177878288016120d2565b91505092959194509250565b6000806040838503121561219a57612199611a3c565b5b60006121a885828601611c89565b92505060206121b985828601611c89565b9150509250929050565b7f4e487b7100000000000000000000000000000000000000000000000000000000600052602260045260246000fd5b6000600282049050600182168061220a57607f821691505b60208210810361221d5761221c6121c3565b5b50919050565b7f4552433732313a20617070726f76616c20746f2063757272656e74206f776e6560008201527f7200000000000000000000000000000000000000000000000000000000000000602082015250565b600061227f602183611b0c565b915061228a82612223565b604082019050919050565b600060208201905081810360008301526122ae81612272565b9050919050565b7f4552433732313a20617070726f76652063616c6c6572206973206e6f7420746f60008201527f6b656e206f776e6572206f7220617070726f76656420666f7220616c6c000000602082015250565b6000612311603d83611b0c565b915061231c826122b5565b604082019050919050565b6000602082019050818103600083015261234081612304565b9050919050565b7f4552433732313a2063616c6c6572206973206e6f7420746f6b656e206f776e6560008201527f72206f7220617070726f76656400000000000000000000000000000000000000602082015250565b60006123a3602d83611b0c565b91506123ae82612347565b604082019050919050565b600060208201905081810360008301526123d281612396565b9050919050565b7f4e487b7100000000000000000000000000000000000000000000000000000000600052601160045260246000fd5b600061241382611bb3565b915061241e83611bb3565b9250828201905080821115612436576124356123d9565b5b92915050565b60008190508160005260206000209050919050565b60006020601f8301049050919050565b600082821b905092915050565b60006008830261249e7fffffffffffffffffffffffffffffffffffffffffffffffffffffffffffffffff82612461565b6124a88683612461565b95508019841693508086168417925050509392505050565b6000819050919050565b60006124e56124e06124db84611bb3565b6124c0565b611bb3565b9050919050565b6000819050919050565b6124ff836124ca565b61251361250b826124ec565b84845461246e565b825550505050565b600090565b61252861251b565b6125338184846124f6565b505050565b5b818110156125575761254c600082612520565b600181019050612539565b5050565b601f82111561259c5761256d8161243c565b61257684612451565b81016020851015612585578190505b61259961259185612451565b830182612538565b50505b505050565b600082821c905092915050565b60006125bf600019846008026125a1565b1980831691505092915050565b60006125d883836125ae565b9150826002028217905092915050565b6125f182611b01565b67ffffffffffffffff81111561260a57612609611d3b565b5b61261482546121f2565b61261f82828561255b565b600060209050601f8311600181146126525760008415612640578287015190505b61264a85826125cc565b8655506126b2565b601f1984166126608661243c565b60005b8281101561268857848901518255600182019150602085019450602081019050612663565b868310156126a557848901516126a1601f8916826125ae565b8355505b6001600288020188555050505b505050505050565b7f4552433732313a20696e76616c696420746f6b656e2049440000000000000000600082015250565b60006126f0601883611b0c565b91506126fb826126ba565b602082019050919050565b6000602082019050818103600083015261271f816126e3565b9050919050565b7f4552433732313a2061646472657373207a65726f206973206e6f74206120766160008201527f6c6964206f776e65720000000000000000000000000000000000000000000000602082015250565b6000612782602983611b0c565b915061278d82612726565b604082019050919050565b600060208201905081810360008301526127b181612775565b9050919050565b600081905092915050565b60006127ce82611b01565b6127d881856127b8565b93506127e8818560208601611b1d565b80840191505092915050565b600061280082856127c3565b915061280c82846127c3565b91508190509392505050565b7f4552433732313a207472616e736665722066726f6d20696e636f72726563742060008201527f6f776e6572000000000000000000000000000000000000000000000000000000602082015250565b6000612874602583611b0c565b915061287f82612818565b604082019050919050565b600060208201905081810360008301526128a381612867565b9050919050565b7f4552433732313a207472616e7366657220746f20746865207a65726f2061646460008201527f7265737300000000000000000000000000000000000000000000000000000000602082015250565b6000612906602483611b0c565b9150612911826128aa565b604082019050919050565b60006020820190508181036000830152612935816128f9565b9050919050565b7f4552433732313a20617070726f766520746f2063616c6c657200000000000000600082015250565b6000612972601983611b0c565b915061297d8261293c565b602082019050919050565b600060208201905081810360008301526129a181612965565b9050919050565b7f4552433732313a207472616e7366657220746f206e6f6e20455243373231526560008201527f63656976657220696d706c656d656e7465720000000000000000000000000000602082015250565b6000612a04603283611b0c565b9150612a0f826129a8565b604082019050919050565b60006020820190508181036000830152612a33816129f7565b9050919050565b7f4e487b7100000000000000000000000000000000000000000000000000000000600052601260045260246000fd5b600081519050919050565b600082825260208201905092915050565b6000612a9082612a69565b612a9a8185612a74565b9350612aaa818560208601611b1d565b612ab381611b47565b840191505092915050565b6000608082019050612ad36000830187611c48565b612ae06020830186611c48565b612aed6040830185611eef565b8181036060830152612aff8184612a85565b905095945050505050565b600081519050612b1981611a72565b92915050565b600060208284031215612b3557612b34611a3c565b5b6000612b4384828501612b0a565b91505092915050565b7f4552433732313a206d696e7420746f20746865207a65726f2061646472657373600082015250565b6000612b82602083611b0c565b9150612b8d82612b4c565b602082019050919050565b60006020820190508181036000830152612bb181612b75565b9050919050565b7f4552433732313a20746f6b656e20616c7265616479206d696e74656400000000600082015250565b6000612bee601c83611b0c565b9150612bf982612bb8565b602082019050919050565b60006020820190508181036000830152612c1d81612be1565b905091905056fea26469706673582212204bf30cc092fd736370d954891e9d05061e238a436dd898c91e418d5a2b3a251264736f6c63430008110033",
  "linkReferences": {},
  "deployedLinkReferences": {}
}