{
  "_format": "hh-sol-artifact-1",
  "contractName": "ETHDaddy",
  "sourceName": "contracts/ETHDaddy.sol",
  "abi": [
    {
      "inputs": [
        {
          "internalType": "string",
          "name": "_name",
          "type": "string"
        },
        {
          "internalType": "string",
          "name": "_symbol",
          "type": "string"
        }
      ],
      "stateMutability": "nonpayable",
      "type": "constructor"
    },
    {
      "anonymous": false,
      "inputs": [
        {
          "indexed": true,
          "internalType": "address",
          "name": "owner",
          "type": "address"
        },
        {
          "indexed": true,
          "internalType": "address",
          "name": "approved",
          "type": "address"
        },
        {
          "indexed": true,
          "internalType": "uint256",
          "name": "tokenId",
          "type": "uint256"
        }
      ],
      "name": "Approval",
      "type": "event"
    },
    {
      "anonymous": false,
      "inputs": [
        {
          "indexed": true,
          "internalType": "address",
          "name": "owner",
          "type": "address"
        },
        {
          "indexed": true,
          "internalType": "address",
          "name": "operator",
          "type": "address"
        },
        {
          "indexed": false,
          "internalType": "bool",
          "name": "approved",
          "type": "bool"
        }
      ],
      "name": "ApprovalForAll",
      "type": "event"
    },
    {
      "anonymous": false,
      "inputs": [
        {
          "indexed": true,
          "internalType": "address",
          "name": "from",
          "type": "address"
        },
        {
          "indexed": true,
          "internalType": "address",
          "name": "to",
          "type": "address"
        },
        {
          "indexed": true,
          "internalType": "uint256",
          "name": "tokenId",
          "type": "uint256"
        }
      ],
      "name": "Transfer",
      "type": "event"
    },
    {
      "inputs": [
        {
          "internalType": "address",
          "name": "to",
          "type": "address"
        },
        {
          "internalType": "uint256",
          "name": "tokenId",
          "type": "uint256"
        }
      ],
      "name": "approve",
      "outputs": [],
      "stateMutability": "nonpayable",
      "type": "function"
    },
    {
      "inputs": [
        {
          "internalType": "address",
          "name": "owner",
          "type": "address"
        }
      ],
      "name": "balanceOf",
      "outputs": [
        {
          "internalType": "uint256",
          "name": "",
          "type": "uint256"
        }
      ],
      "stateMutability": "view",
      "type": "function"
    },
    {
      "inputs": [
        {
          "internalType": "uint256",
          "name": "",
          "type": "uint256"
        }
      ],
      "name": "domains",
      "outputs": [
        {
          "internalType": "string",
          "name": "name",
          "type": "string"
        },
        {
          "internalType": "uint256",
          "name": "cost",
          "type": "uint256"
        },
        {
          "internalType": "bool",
          "name": "isOwned",
          "type": "bool"
        }
      ],
      "stateMutability": "view",
      "type": "function"
    },
    {
      "inputs": [
        {
          "internalType": "uint256",
          "name": "tokenId",
          "type": "uint256"
        }
      ],
      "name": "getApproved",
      "outputs": [
        {
          "internalType": "address",
          "name": "",
          "type": "address"
        }
      ],
      "stateMutability": "view",
      "type": "function"
    },
    {
      "inputs": [
        {
          "internalType": "address",
          "name": "owner",
          "type": "address"
        },
        {
          "internalType": "address",
          "name": "operator",
          "type": "address"
        }
      ],
      "name": "isApprovedForAll",
      "outputs": [
        {
          "internalType": "bool",
          "name": "",
          "type": "bool"
        }
      ],
      "stateMutability": "view",
      "type": "function"
    },
    {
      "inputs": [
        {
          "internalType": "string",
          "name": "_name",
          "type": "string"
        },
        {
          "internalType": "uint256",
          "name": "_cost",
          "type": "uint256"
        }
      ],
      "name": "list",
      "outputs": [],
      "stateMutability": "nonpayable",
      "type": "function"
    },
    {
      "inputs": [],
      "name": "maxSupply",
      "outputs": [
        {
          "internalType": "uint256",
          "name": "",
          "type": "uint256"
        }
      ],
      "stateMutability": "view",
      "type": "function"
    },
    {
      "inputs": [],
      "name": "name",
      "outputs": [
        {
          "internalType": "string",
          "name": "",
          "type": "string"
        }
      ],
      "stateMutability": "view",
      "type": "function"
    },
    {
      "inputs": [],
      "name": "owner",
      "outputs": [
        {
          "internalType": "address",
          "name": "",
          "type": "address"
        }
      ],
      "stateMutability": "view",
      "type": "function"
    },
    {
      "inputs": [
        {
          "internalType": "uint256",
          "name": "tokenId",
          "type": "uint256"
        }
      ],
      "name": "ownerOf",
      "outputs": [
        {
          "internalType": "address",
          "name": "",
          "type": "address"
        }
      ],
      "stateMutability": "view",
      "type": "function"
    },
    {
      "inputs": [
        {
          "internalType": "address",
          "name": "from",
          "type": "address"
        },
        {
          "internalType": "address",
          "name": "to",
          "type": "address"
        },
        {
          "internalType": "uint256",
          "name": "tokenId",
          "type": "uint256"
        }
      ],
      "name": "safeTransferFrom",
      "outputs": [],
      "stateMutability": "nonpayable",
      "type": "function"
    },
    {
      "inputs": [
        {
          "internalType": "address",
          "name": "from",
          "type": "address"
        },
        {
          "internalType": "address",
          "name": "to",
          "type": "address"
        },
        {
          "internalType": "uint256",
          "name": "tokenId",
          "type": "uint256"
        },
        {
          "internalType": "bytes",
          "name": "data",
          "type": "bytes"
        }
      ],
      "name": "safeTransferFrom",
      "outputs": [],
      "stateMutability": "nonpayable",
      "type": "function"
    },
    {
      "inputs": [
        {
          "internalType": "address",
          "name": "operator",
          "type": "address"
        },
        {
          "internalType": "bool",
          "name": "approved",
          "type": "bool"
        }
      ],
      "name": "setApprovalForAll",
      "outputs": [],
      "stateMutability": "nonpayable",
      "type": "function"
    },
    {
      "inputs": [
        {
          "internalType": "bytes4",
          "name": "interfaceId",
          "type": "bytes4"
        }
      ],
      "name": "supportsInterface",
      "outputs": [
        {
          "internalType": "bool",
          "name": "",
          "type": "bool"
        }
      ],
      "stateMutability": "view",
      "type": "function"
    },
    {
      "inputs": [],
      "name": "symbol",
      "outputs": [
        {
          "internalType": "string",
          "name": "",
          "type": "string"
        }
      ],
      "stateMutability": "view",
      "type": "function"
    },
    {
      "inputs": [
        {
          "internalType": "uint256",
          "name": "tokenId",
          "type": "uint256"
        }
      ],
      "name": "tokenURI",
      "outputs": [
        {
          "internalType": "string",
          "name": "",
          "type": "string"
        }
      ],
      "stateMutability": "view",
      "type": "function"
    },
    {
      "inputs": [
        {
          "internalType": "address",
          "name": "from",
          "type": "address"
        },
        {
          "internalType": "address",
          "name": "to",
          "type": "address"
        },
        {
          "internalType": "uint256",
          "name": "tokenId",
          "type": "uint256"
        }
      ],
      "name": "transferFrom",
      "outputs": [],
      "stateMutability": "nonpayable",
      "type": "function"
    }
  ],
  "bytecode": "0x60806040523480156200001157600080fd5b5060405162002e7a38038062002e7a83398181016040528101906200003791906200023b565b818181600090816200004a91906200050b565b5080600190816200005c91906200050b565b50505033600860006101000a81548173ffffffffffffffffffffffffffffffffffffffff021916908373ffffffffffffffffffffffffffffffffffffffff1602179055505050620005f2565b6000604051905090565b600080fd5b600080fd5b600080fd5b600080fd5b6000601f19601f8301169050919050565b7f4e487b7100000000000000000000000000000000000000000000000000000000600052604160045260246000fd5b6200011182620000c6565b810181811067ffffffffffffffff82111715620001335762000132620000d7565b5b80604052505050565b600062000148620000a8565b905062000156828262000106565b919050565b600067ffffffffffffffff821115620001795762000178620000d7565b5b6200018482620000c6565b9050602081019050919050565b60005b83811015620001b157808201518184015260208101905062000194565b60008484015250505050565b6000620001d4620001ce846200015b565b6200013c565b905082815260208101848484011115620001f357620001f2620000c1565b5b6200020084828562000191565b509392505050565b600082601f83011262000220576200021f620000bc565b5b815162000232848260208601620001bd565b91505092915050565b60008060408385031215620002555762000254620000b2565b5b600083015167ffffffffffffffff811115620002765762000275620000b7565b5b620002848582860162000208565b925050602083015167ffffffffffffffff811115620002a857620002a7620000b7565b5b620002b68582860162000208565b9150509250929050565b600081519050919050565b7f4e487b7100000000000000000000000000000000000000000000000000000000600052602260045260246000fd5b600060028204905060018216806200031357607f821691505b602082108103620003295762000328620002cb565b5b50919050565b60008190508160005260206000209050919050565b60006020601f8301049050919050565b600082821b905092915050565b600060088302620003937fffffffffffffffffffffffffffffffffffffffffffffffffffffffffffffffff8262000354565b6200039f868362000354565b95508019841693508086168417925050509392505050565b6000819050919050565b6000819050919050565b6000620003ec620003e6620003e084620003b7565b620003c1565b620003b7565b9050919050565b6000819050919050565b6200040883620003cb565b620004206200041782620003f3565b84845462000361565b825550505050565b600090565b6200043762000428565b62000444818484620003fd565b505050565b5b818110156200046c57620004606000826200042d565b6001810190506200044a565b5050565b601f821115620004bb5762000485816200032f565b620004908462000344565b81016020851015620004a0578190505b620004b8620004af8562000344565b83018262000449565b50505b505050565b600082821c905092915050565b6000620004e060001984600802620004c0565b1980831691505092915050565b6000620004fb8383620004cd565b9150826002028217905092915050565b6200051682620002c0565b67ffffffffffffffff811115620005325762000531620000d7565b5b6200053e8254620002fa565b6200054b82828562000470565b600060209050601f8311600181146200058357600084156200056e578287015190505b6200057a8582620004ed565b865550620005ea565b601f19841662000593866200032f565b60005b82811015620005bd5784890151825560018201915060208501945060208101905062000596565b86831015620005dd5784890151620005d9601f891682620004cd565b8355505b6001600288020188555050505b505050505050565b61287880620006026000396000f3fe608060405234801561001057600080fd5b506004361061010b5760003560e01c806366cf8fab116100a2578063a22cb46511610071578063a22cb465146102cc578063b88d4fde146102e8578063c87b56dd14610304578063d5abeb0114610334578063e985e9c5146103525761010b565b806366cf8fab1461022e57806370a08231146102605780638da5cb5b1461029057806395d89b41146102ae5761010b565b806323b872dd116100de57806323b872dd146101aa57806342842e0e146101c65780634a878dfa146101e25780636352211e146101fe5761010b565b806301ffc9a71461011057806306fdde0314610140578063081812fc1461015e578063095ea7b31461018e575b600080fd5b61012a600480360381019061012591906117c4565b610382565b604051610137919061180c565b60405180910390f35b610148610464565b60405161015591906118b7565b60405180910390f35b6101786004803603810190610173919061190f565b6104f6565b604051610185919061197d565b60405180910390f35b6101a860048036038101906101a391906119c4565b61053c565b005b6101c460048036038101906101bf9190611a04565b610653565b005b6101e060048036038101906101db9190611a04565b6106b3565b005b6101fc60048036038101906101f79190611b8c565b6106d3565b005b6102186004803603810190610213919061190f565b6107f2565b604051610225919061197d565b60405180910390f35b6102486004803603810190610243919061190f565b610878565b60405161025793929190611bf7565b60405180910390f35b61027a60048036038101906102759190611c35565b610937565b6040516102879190611c62565b60405180910390f35b6102986109ee565b6040516102a5919061197d565b60405180910390f35b6102b6610a14565b6040516102c391906118b7565b60405180910390f35b6102e660048036038101906102e19190611ca9565b610aa6565b005b61030260048036038101906102fd9190611d8a565b610abc565b005b61031e6004803603810190610319919061190f565b610b1e565b60405161032b91906118b7565b60405180910390f35b61033c610b86565b6040516103499190611c62565b60405180910390f35b61036c60048036038101906103679190611e0d565b610b8c565b604051610379919061180c565b60405180910390f35b60007f80ac58cd000000000000000000000000000000000000000000000000000000007bffffffffffffffffffffffffffffffffffffffffffffffffffffffff1916827bffffffffffffffffffffffffffffffffffffffffffffffffffffffff1916148061044d57507f5b5e139f000000000000000000000000000000000000000000000000000000007bffffffffffffffffffffffffffffffffffffffffffffffffffffffff1916827bffffffffffffffffffffffffffffffffffffffffffffffffffffffff1916145b8061045d575061045c82610c20565b5b9050919050565b60606000805461047390611e7c565b80601f016020809104026020016040519081016040528092919081815260200182805461049f90611e7c565b80156104ec5780601f106104c1576101008083540402835291602001916104ec565b820191906000526020600020905b8154815290600101906020018083116104cf57829003601f168201915b5050505050905090565b600061050182610c8a565b6004600083815260200190815260200160002060009054906101000a900473ffffffffffffffffffffffffffffffffffffffff169050919050565b6000610547826107f2565b90508073ffffffffffffffffffffffffffffffffffffffff168373ffffffffffffffffffffffffffffffffffffffff16036105b7576040517f08c379a00000000000000000000000000000000000000000000000000000000081526004016105ae90611f1f565b60405180910390fd5b8073ffffffffffffffffffffffffffffffffffffffff166105d6610cd5565b73ffffffffffffffffffffffffffffffffffffffff1614806106055750610604816105ff610cd5565b610b8c565b5b610644576040517f08c379a000000000000000000000000000000000000000000000000000000000815260040161063b90611fb1565b60405180910390fd5b61064e8383610cdd565b505050565b61066461065e610cd5565b82610d96565b6106a3576040517f08c379a000000000000000000000000000000000000000000000000000000000815260040161069a90612043565b60405180910390fd5b6106ae838383610e2b565b505050565b6106ce83838360405180602001604052806000815250610abc565b505050565b600860009054906101000a900473ffffffffffffffffffffffffffffffffffffffff1673ffffffffffffffffffffffffffffffffffffffff163373ffffffffffffffffffffffffffffffffffffffff1614610763576040517f08c379a000000000000000000000000000000000000000000000000000000000815260040161075a906120af565b60405180910390fd5b600160065461077291906120fe565b60068190555060405180606001604052808381526020018281526020016000151581525060076000600654815260200190815260200160002060008201518160000190816107c091906122de565b506020820151816001015560408201518160020160006101000a81548160ff0219169083151502179055509050505050565b6000806107fe83611124565b9050600073ffffffffffffffffffffffffffffffffffffffff168173ffffffffffffffffffffffffffffffffffffffff160361086f576040517f08c379a0000000000000000000000000000000000000000000000000000000008152600401610866906123fc565b60405180910390fd5b80915050919050565b600760205280600052604060002060009150905080600001805461089b90611e7c565b80601f01602080910402602001604051908101604052809291908181526020018280546108c790611e7c565b80156109145780601f106108e957610100808354040283529160200191610914565b820191906000526020600020905b8154815290600101906020018083116108f757829003601f168201915b5050505050908060010154908060020160009054906101000a900460ff16905083565b60008073ffffffffffffffffffffffffffffffffffffffff168273ffffffffffffffffffffffffffffffffffffffff16036109a7576040517f08c379a000000000000000000000000000000000000000000000000000000000815260040161099e9061248e565b60405180910390fd5b600360008373ffffffffffffffffffffffffffffffffffffffff1673ffffffffffffffffffffffffffffffffffffffff168152602001908152602001600020549050919050565b600860009054906101000a900473ffffffffffffffffffffffffffffffffffffffff1681565b606060018054610a2390611e7c565b80601f0160208091040260200160405190810160405280929190818152602001828054610a4f90611e7c565b8015610a9c5780601f10610a7157610100808354040283529160200191610a9c565b820191906000526020600020905b815481529060010190602001808311610a7f57829003601f168201915b5050505050905090565b610ab8610ab1610cd5565b8383611161565b5050565b610acd610ac7610cd5565b83610d96565b610b0c576040517f08c379a0000000000000000000000000000000000000000000000000000000008152600401610b0390612043565b60405180910390fd5b610b18848484846112cd565b50505050565b6060610b2982610c8a565b6000610b33611329565b90506000815111610b535760405180602001604052806000815250610b7e565b80610b5d84611340565b604051602001610b6e9291906124ea565b6040516020818303038152906040525b915050919050565b60065481565b6000600560008473ffffffffffffffffffffffffffffffffffffffff1673ffffffffffffffffffffffffffffffffffffffff16815260200190815260200160002060008373ffffffffffffffffffffffffffffffffffffffff1673ffffffffffffffffffffffffffffffffffffffff16815260200190815260200160002060009054906101000a900460ff16905092915050565b60007f01ffc9a7000000000000000000000000000000000000000000000000000000007bffffffffffffffffffffffffffffffffffffffffffffffffffffffff1916827bffffffffffffffffffffffffffffffffffffffffffffffffffffffff1916149050919050565b610c938161140e565b610cd2576040517f08c379a0000000000000000000000000000000000000000000000000000000008152600401610cc9906123fc565b60405180910390fd5b50565b600033905090565b816004600083815260200190815260200160002060006101000a81548173ffffffffffffffffffffffffffffffffffffffff021916908373ffffffffffffffffffffffffffffffffffffffff160217905550808273ffffffffffffffffffffffffffffffffffffffff16610d50836107f2565b73ffffffffffffffffffffffffffffffffffffffff167f8c5be1e5ebec7d5bd14f71427d1e84f3dd0314c0f7b2291e5b200ac8c7c3b92560405160405180910390a45050565b600080610da2836107f2565b90508073ffffffffffffffffffffffffffffffffffffffff168473ffffffffffffffffffffffffffffffffffffffff161480610de45750610de38185610b8c565b5b80610e2257508373ffffffffffffffffffffffffffffffffffffffff16610e0a846104f6565b73ffffffffffffffffffffffffffffffffffffffff16145b91505092915050565b8273ffffffffffffffffffffffffffffffffffffffff16610e4b826107f2565b73ffffffffffffffffffffffffffffffffffffffff1614610ea1576040517f08c379a0000000000000000000000000000000000000000000000000000000008152600401610e9890612580565b60405180910390fd5b600073ffffffffffffffffffffffffffffffffffffffff168273ffffffffffffffffffffffffffffffffffffffff1603610f10576040517f08c379a0000000000000000000000000000000000000000000000000000000008152600401610f0790612612565b60405180910390fd5b610f1d838383600161144f565b8273ffffffffffffffffffffffffffffffffffffffff16610f3d826107f2565b73ffffffffffffffffffffffffffffffffffffffff1614610f93576040517f08c379a0000000000000000000000000000000000000000000000000000000008152600401610f8a90612580565b60405180910390fd5b6004600082815260200190815260200160002060006101000a81549073ffffffffffffffffffffffffffffffffffffffff02191690556001600360008573ffffffffffffffffffffffffffffffffffffffff1673ffffffffffffffffffffffffffffffffffffffff168152602001908152602001600020600082825403925050819055506001600360008473ffffffffffffffffffffffffffffffffffffffff1673ffffffffffffffffffffffffffffffffffffffff16815260200190815260200160002060008282540192505081905550816002600083815260200190815260200160002060006101000a81548173ffffffffffffffffffffffffffffffffffffffff021916908373ffffffffffffffffffffffffffffffffffffffff160217905550808273ffffffffffffffffffffffffffffffffffffffff168473ffffffffffffffffffffffffffffffffffffffff167fddf252ad1be2c89b69c2b068fc378daa952ba7f163c4a11628f55a4df523b3ef60405160405180910390a461111f8383836001611455565b505050565b60006002600083815260200190815260200160002060009054906101000a900473ffffffffffffffffffffffffffffffffffffffff169050919050565b8173ffffffffffffffffffffffffffffffffffffffff168373ffffffffffffffffffffffffffffffffffffffff16036111cf576040517f08c379a00000000000000000000000000000000000000000000000000000000081526004016111c69061267e565b60405180910390fd5b80600560008573ffffffffffffffffffffffffffffffffffffffff1673ffffffffffffffffffffffffffffffffffffffff16815260200190815260200160002060008473ffffffffffffffffffffffffffffffffffffffff1673ffffffffffffffffffffffffffffffffffffffff16815260200190815260200160002060006101000a81548160ff0219169083151502179055508173ffffffffffffffffffffffffffffffffffffffff168373ffffffffffffffffffffffffffffffffffffffff167f17307eab39ab6107e8899845ad3d59bd9653f200f220920489ca2b5937696c31836040516112c0919061180c565b60405180910390a3505050565b6112d8848484610e2b565b6112e48484848461145b565b611323576040517f08c379a000000000000000000000000000000000000000000000000000000000815260040161131a90612710565b60405180910390fd5b50505050565b606060405180602001604052806000815250905090565b60606000600161134f846115e2565b01905060008167ffffffffffffffff81111561136e5761136d611a61565b5b6040519080825280601f01601f1916602001820160405280156113a05781602001600182028036833780820191505090505b509050600082602001820190505b600115611403578080600190039150507f3031323334353637383961626364656600000000000000000000000000000000600a86061a8153600a85816113f7576113f6612730565b5b049450600085036113ae575b819350505050919050565b60008073ffffffffffffffffffffffffffffffffffffffff1661143083611124565b73ffffffffffffffffffffffffffffffffffffffff1614159050919050565b50505050565b50505050565b600061147c8473ffffffffffffffffffffffffffffffffffffffff16611735565b156115d5578373ffffffffffffffffffffffffffffffffffffffff1663150b7a026114a5610cd5565b8786866040518563ffffffff1660e01b81526004016114c794939291906127b4565b6020604051808303816000875af192505050801561150357506040513d601f19601f820116820180604052508101906115009190612815565b60015b611585573d8060008114611533576040519150601f19603f3d011682016040523d82523d6000602084013e611538565b606091505b50600081510361157d576040517f08c379a000000000000000000000000000000000000000000000000000000000815260040161157490612710565b60405180910390fd5b805181602001fd5b63150b7a0260e01b7bffffffffffffffffffffffffffffffffffffffffffffffffffffffff1916817bffffffffffffffffffffffffffffffffffffffffffffffffffffffff1916149150506115da565b600190505b949350505050565b600080600090507a184f03e93ff9f4daa797ed6e38ed64bf6a1f0100000000000000008310611640577a184f03e93ff9f4daa797ed6e38ed64bf6a1f010000000000000000838161163657611635612730565b5b0492506040810190505b6d04ee2d6d415b85acef8100000000831061167d576d04ee2d6d415b85acef8100000000838161167357611672612730565b5b0492506020810190505b662386f26fc1000083106116ac57662386f26fc1000083816116a2576116a1612730565b5b0492506010810190505b6305f5e10083106116d5576305f5e10083816116cb576116ca612730565b5b0492506008810190505b61271083106116fa5761271083816116f0576116ef612730565b5b0492506004810190505b6064831061171d576064838161171357611712612730565b5b0492506002810190505b600a831061172c576001810190505b80915050919050565b6000808273ffffffffffffffffffffffffffffffffffffffff163b119050919050565b6000604051905090565b600080fd5b600080fd5b60007fffffffff0000000000000000000000000000000000000000000000000000000082169050919050565b6117a18161176c565b81146117ac57600080fd5b50565b6000813590506117be81611798565b92915050565b6000602082840312156117da576117d9611762565b5b60006117e8848285016117af565b91505092915050565b60008115159050919050565b611806816117f1565b82525050565b600060208201905061182160008301846117fd565b92915050565b600081519050919050565b600082825260208201905092915050565b60005b83811015611861578082015181840152602081019050611846565b60008484015250505050565b6000601f19601f8301169050919050565b600061188982611827565b6118938185611832565b93506118a3818560208601611843565b6118ac8161186d565b840191505092915050565b600060208201905081810360008301526118d1818461187e565b905092915050565b6000819050919050565b6118ec816118d9565b81146118f757600080fd5b50565b600081359050611909816118e3565b92915050565b60006020828403121561192557611924611762565b5b6000611933848285016118fa565b91505092915050565b600073ffffffffffffffffffffffffffffffffffffffff82169050919050565b60006119678261193c565b9050919050565b6119778161195c565b82525050565b6000602082019050611992600083018461196e565b92915050565b6119a18161195c565b81146119ac57600080fd5b50565b6000813590506119be81611998565b92915050565b600080604083850312156119db576119da611762565b5b60006119e9858286016119af565b92505060206119fa858286016118fa565b9150509250929050565b600080600060608486031215611a1d57611a1c611762565b5b6000611a2b868287016119af565b9350506020611a3c868287016119af565b9250506040611a4d868287016118fa565b9150509250925092565b600080fd5b600080fd5b7f4e487b7100000000000000000000000000000000000000000000000000000000600052604160045260246000fd5b611a998261186d565b810181811067ffffffffffffffff82111715611ab857611ab7611a61565b5b80604052505050565b6000611acb611758565b9050611ad78282611a90565b919050565b600067ffffffffffffffff821115611af757611af6611a61565b5b611b008261186d565b9050602081019050919050565b82818337600083830152505050565b6000611b2f611b2a84611adc565b611ac1565b905082815260208101848484011115611b4b57611b4a611a5c565b5b611b56848285611b0d565b509392505050565b600082601f830112611b7357611b72611a57565b5b8135611b83848260208601611b1c565b91505092915050565b60008060408385031215611ba357611ba2611762565b5b600083013567ffffffffffffffff811115611bc157611bc0611767565b5b611bcd85828601611b5e565b9250506020611bde858286016118fa565b9150509250929050565b611bf1816118d9565b82525050565b60006060820190508181036000830152611c11818661187e565b9050611c206020830185611be8565b611c2d60408301846117fd565b949350505050565b600060208284031215611c4b57611c4a611762565b5b6000611c59848285016119af565b91505092915050565b6000602082019050611c776000830184611be8565b92915050565b611c86816117f1565b8114611c9157600080fd5b50565b600081359050611ca381611c7d565b92915050565b60008060408385031215611cc057611cbf611762565b5b6000611cce858286016119af565b9250506020611cdf85828601611c94565b9150509250929050565b600067ffffffffffffffff821115611d0457611d03611a61565b5b611d0d8261186d565b9050602081019050919050565b6000611d2d611d2884611ce9565b611ac1565b905082815260208101848484011115611d4957611d48611a5c565b5b611d54848285611b0d565b509392505050565b600082601f830112611d7157611d70611a57565b5b8135611d81848260208601611d1a565b91505092915050565b60008060008060808587031215611da457611da3611762565b5b6000611db2878288016119af565b9450506020611dc3878288016119af565b9350506040611dd4878288016118fa565b925050606085013567ffffffffffffffff811115611df557611df4611767565b5b611e0187828801611d5c565b91505092959194509250565b60008060408385031215611e2457611e23611762565b5b6000611e32858286016119af565b9250506020611e43858286016119af565b9150509250929050565b7f4e487b7100000000000000000000000000000000000000000000000000000000600052602260045260246000fd5b60006002820490506001821680611e9457607f821691505b602082108103611ea757611ea6611e4d565b5b50919050565b7f4552433732313a20617070726f76616c20746f2063757272656e74206f776e6560008201527f7200000000000000000000000000000000000000000000000000000000000000602082015250565b6000611f09602183611832565b9150611f1482611ead565b604082019050919050565b60006020820190508181036000830152611f3881611efc565b9050919050565b7f4552433732313a20617070726f76652063616c6c6572206973206e6f7420746f60008201527f6b656e206f776e6572206f7220617070726f76656420666f7220616c6c000000602082015250565b6000611f9b603d83611832565b9150611fa682611f3f565b604082019050919050565b60006020820190508181036000830152611fca81611f8e565b9050919050565b7f4552433732313a2063616c6c6572206973206e6f7420746f6b656e206f776e6560008201527f72206f7220617070726f76656400000000000000000000000000000000000000602082015250565b600061202d602d83611832565b915061203882611fd1565b604082019050919050565b6000602082019050818103600083015261205c81612020565b9050919050565b7f4f6e6c79206f776e65722063616e206c69737400000000000000000000000000600082015250565b6000612099601383611832565b91506120a482612063565b602082019050919050565b600060208201905081810360008301526120c88161208c565b9050919050565b7f4e487b7100000000000000000000000000000000000000000000000000000000600052601160045260246000fd5b6000612109826118d9565b9150612114836118d9565b925082820190508082111561212c5761212b6120cf565b5b92915050565b60008190508160005260206000209050919050565b60006020601f8301049050919050565b600082821b905092915050565b6000600883026121947fffffffffffffffffffffffffffffffffffffffffffffffffffffffffffffffff82612157565b61219e8683612157565b95508019841693508086168417925050509392505050565b6000819050919050565b60006121db6121d66121d1846118d9565b6121b6565b6118d9565b9050919050565b6000819050919050565b6121f5836121c0565b612209612201826121e2565b848454612164565b825550505050565b600090565b61221e612211565b6122298184846121ec565b505050565b5b8181101561224d57612242600082612216565b60018101905061222f565b5050565b601f8211156122925761226381612132565b61226c84612147565b8101602085101561227b578190505b61228f61228785612147565b83018261222e565b50505b505050565b600082821c905092915050565b60006122b560001984600802612297565b1980831691505092915050565b60006122ce83836122a4565b9150826002028217905092915050565b6122e782611827565b67ffffffffffffffff811115612300576122ff611a61565b5b61230a8254611e7c565b612315828285612251565b600060209050601f8311600181146123485760008415612336578287015190505b61234085826122c2565b8655506123a8565b601f19841661235686612132565b60005b8281101561237e57848901518255600182019150602085019450602081019050612359565b8683101561239b5784890151612397601f8916826122a4565b8355505b6001600288020188555050505b505050505050565b7f4552433732313a20696e76616c696420746f6b656e2049440000000000000000600082015250565b60006123e6601883611832565b91506123f1826123b0565b602082019050919050565b60006020820190508181036000830152612415816123d9565b9050919050565b7f4552433732313a2061646472657373207a65726f206973206e6f74206120766160008201527f6c6964206f776e65720000000000000000000000000000000000000000000000602082015250565b6000612478602983611832565b91506124838261241c565b604082019050919050565b600060208201905081810360008301526124a78161246b565b9050919050565b600081905092915050565b60006124c482611827565b6124ce81856124ae565b93506124de818560208601611843565b80840191505092915050565b60006124f682856124b9565b915061250282846124b9565b91508190509392505050565b7f4552433732313a207472616e736665722066726f6d20696e636f72726563742060008201527f6f776e6572000000000000000000000000000000000000000000000000000000602082015250565b600061256a602583611832565b91506125758261250e565b604082019050919050565b600060208201905081810360008301526125998161255d565b9050919050565b7f4552433732313a207472616e7366657220746f20746865207a65726f2061646460008201527f7265737300000000000000000000000000000000000000000000000000000000602082015250565b60006125fc602483611832565b9150612607826125a0565b604082019050919050565b6000602082019050818103600083015261262b816125ef565b9050919050565b7f4552433732313a20617070726f766520746f2063616c6c657200000000000000600082015250565b6000612668601983611832565b915061267382612632565b602082019050919050565b600060208201905081810360008301526126978161265b565b9050919050565b7f4552433732313a207472616e7366657220746f206e6f6e20455243373231526560008201527f63656976657220696d706c656d656e7465720000000000000000000000000000602082015250565b60006126fa603283611832565b91506127058261269e565b604082019050919050565b60006020820190508181036000830152612729816126ed565b9050919050565b7f4e487b7100000000000000000000000000000000000000000000000000000000600052601260045260246000fd5b600081519050919050565b600082825260208201905092915050565b60006127868261275f565b612790818561276a565b93506127a0818560208601611843565b6127a98161186d565b840191505092915050565b60006080820190506127c9600083018761196e565b6127d6602083018661196e565b6127e36040830185611be8565b81810360608301526127f5818461277b565b905095945050505050565b60008151905061280f81611798565b92915050565b60006020828403121561282b5761282a611762565b5b600061283984828501612800565b9150509291505056fea264697066735822122006011f04b3a0785b1452e02bc880d208f3ae62dccde16fde30654955fd24edaf64736f6c63430008110033",
  "linkReferences": {},
  "deployedLinkReferences": {}
}