{
  "_format": "hh-sol-artifact-1",
  "contractName": "ETHDaddy",
  "sourceName": "contracts/ETHDaddy.sol",
  "abi": [
    {
      "inputs": [
        {
          "internalType": "string",
          "name": "_name",
          "type": "string"
        },
        {
          "internalType": "string",
          "name": "_symbol",
          "type": "string"
        }
      ],
      "stateMutability": "nonpayable",
      "type": "constructor"
    },
    {
      "anonymous": false,
      "inputs": [
        {
          "indexed": true,
          "internalType": "address",
          "name": "owner",
          "type": "address"
        },
        {
          "indexed": true,
          "internalType": "address",
          "name": "approved",
          "type": "address"
        },
        {
          "indexed": true,
          "internalType": "uint256",
          "name": "tokenId",
          "type": "uint256"
        }
      ],
      "name": "Approval",
      "type": "event"
    },
    {
      "anonymous": false,
      "inputs": [
        {
          "indexed": true,
          "internalType": "address",
          "name": "owner",
          "type": "address"
        },
        {
          "indexed": true,
          "internalType": "address",
          "name": "operator",
          "type": "address"
        },
        {
          "indexed": false,
          "internalType": "bool",
          "name": "approved",
          "type": "bool"
        }
      ],
      "name": "ApprovalForAll",
      "type": "event"
    },
    {
      "anonymous": false,
      "inputs": [
        {
          "indexed": true,
          "internalType": "address",
          "name": "from",
          "type": "address"
        },
        {
          "indexed": true,
          "internalType": "address",
          "name": "to",
          "type": "address"
        },
        {
          "indexed": true,
          "internalType": "uint256",
          "name": "tokenId",
          "type": "uint256"
        }
      ],
      "name": "Transfer",
      "type": "event"
    },
    {
      "inputs": [
        {
          "internalType": "address",
          "name": "to",
          "type": "address"
        },
        {
          "internalType": "uint256",
          "name": "tokenId",
          "type": "uint256"
        }
      ],
      "name": "approve",
      "outputs": [],
      "stateMutability": "nonpayable",
      "type": "function"
    },
    {
      "inputs": [
        {
          "internalType": "address",
          "name": "owner",
          "type": "address"
        }
      ],
      "name": "balanceOf",
      "outputs": [
        {
          "internalType": "uint256",
          "name": "",
          "type": "uint256"
        }
      ],
      "stateMutability": "view",
      "type": "function"
    },
    {
      "inputs": [
        {
          "internalType": "uint256",
          "name": "tokenId",
          "type": "uint256"
        }
      ],
      "name": "getApproved",
      "outputs": [
        {
          "internalType": "address",
          "name": "",
          "type": "address"
        }
      ],
      "stateMutability": "view",
      "type": "function"
    },
    {
      "inputs": [],
      "name": "getBalance",
      "outputs": [
        {
          "internalType": "uint256",
          "name": "",
          "type": "uint256"
        }
      ],
      "stateMutability": "view",
      "type": "function"
    },
    {
      "inputs": [
        {
          "internalType": "uint256",
          "name": "_id",
          "type": "uint256"
        }
      ],
      "name": "getDomains",
      "outputs": [
        {
          "components": [
            {
              "internalType": "string",
              "name": "name",
              "type": "string"
            },
            {
              "internalType": "uint256",
              "name": "cost",
              "type": "uint256"
            },
            {
              "internalType": "bool",
              "name": "isOwned",
              "type": "bool"
            }
          ],
          "internalType": "struct ETHDaddy.Domain",
          "name": "",
          "type": "tuple"
        }
      ],
      "stateMutability": "view",
      "type": "function"
    },
    {
      "inputs": [
        {
          "internalType": "address",
          "name": "owner",
          "type": "address"
        },
        {
          "internalType": "address",
          "name": "operator",
          "type": "address"
        }
      ],
      "name": "isApprovedForAll",
      "outputs": [
        {
          "internalType": "bool",
          "name": "",
          "type": "bool"
        }
      ],
      "stateMutability": "view",
      "type": "function"
    },
    {
      "inputs": [
        {
          "internalType": "string",
          "name": "_name",
          "type": "string"
        },
        {
          "internalType": "uint256",
          "name": "_cost",
          "type": "uint256"
        }
      ],
      "name": "list",
      "outputs": [],
      "stateMutability": "nonpayable",
      "type": "function"
    },
    {
      "inputs": [],
      "name": "maxSupply",
      "outputs": [
        {
          "internalType": "uint256",
          "name": "",
          "type": "uint256"
        }
      ],
      "stateMutability": "view",
      "type": "function"
    },
    {
      "inputs": [
        {
          "internalType": "uint256",
          "name": "_id",
          "type": "uint256"
        }
      ],
      "name": "mint",
      "outputs": [],
      "stateMutability": "payable",
      "type": "function"
    },
    {
      "inputs": [],
      "name": "name",
      "outputs": [
        {
          "internalType": "string",
          "name": "",
          "type": "string"
        }
      ],
      "stateMutability": "view",
      "type": "function"
    },
    {
      "inputs": [],
      "name": "owner",
      "outputs": [
        {
          "internalType": "address",
          "name": "",
          "type": "address"
        }
      ],
      "stateMutability": "view",
      "type": "function"
    },
    {
      "inputs": [
        {
          "internalType": "uint256",
          "name": "tokenId",
          "type": "uint256"
        }
      ],
      "name": "ownerOf",
      "outputs": [
        {
          "internalType": "address",
          "name": "",
          "type": "address"
        }
      ],
      "stateMutability": "view",
      "type": "function"
    },
    {
      "inputs": [
        {
          "internalType": "address",
          "name": "from",
          "type": "address"
        },
        {
          "internalType": "address",
          "name": "to",
          "type": "address"
        },
        {
          "internalType": "uint256",
          "name": "tokenId",
          "type": "uint256"
        }
      ],
      "name": "safeTransferFrom",
      "outputs": [],
      "stateMutability": "nonpayable",
      "type": "function"
    },
    {
      "inputs": [
        {
          "internalType": "address",
          "name": "from",
          "type": "address"
        },
        {
          "internalType": "address",
          "name": "to",
          "type": "address"
        },
        {
          "internalType": "uint256",
          "name": "tokenId",
          "type": "uint256"
        },
        {
          "internalType": "bytes",
          "name": "data",
          "type": "bytes"
        }
      ],
      "name": "safeTransferFrom",
      "outputs": [],
      "stateMutability": "nonpayable",
      "type": "function"
    },
    {
      "inputs": [
        {
          "internalType": "address",
          "name": "operator",
          "type": "address"
        },
        {
          "internalType": "bool",
          "name": "approved",
          "type": "bool"
        }
      ],
      "name": "setApprovalForAll",
      "outputs": [],
      "stateMutability": "nonpayable",
      "type": "function"
    },
    {
      "inputs": [
        {
          "internalType": "bytes4",
          "name": "interfaceId",
          "type": "bytes4"
        }
      ],
      "name": "supportsInterface",
      "outputs": [
        {
          "internalType": "bool",
          "name": "",
          "type": "bool"
        }
      ],
      "stateMutability": "view",
      "type": "function"
    },
    {
      "inputs": [],
      "name": "symbol",
      "outputs": [
        {
          "internalType": "string",
          "name": "",
          "type": "string"
        }
      ],
      "stateMutability": "view",
      "type": "function"
    },
    {
      "inputs": [
        {
          "internalType": "uint256",
          "name": "tokenId",
          "type": "uint256"
        }
      ],
      "name": "tokenURI",
      "outputs": [
        {
          "internalType": "string",
          "name": "",
          "type": "string"
        }
      ],
      "stateMutability": "view",
      "type": "function"
    },
    {
      "inputs": [],
      "name": "totalSupply",
      "outputs": [
        {
          "internalType": "uint256",
          "name": "",
          "type": "uint256"
        }
      ],
      "stateMutability": "view",
      "type": "function"
    },
    {
      "inputs": [
        {
          "internalType": "address",
          "name": "from",
          "type": "address"
        },
        {
          "internalType": "address",
          "name": "to",
          "type": "address"
        },
        {
          "internalType": "uint256",
          "name": "tokenId",
          "type": "uint256"
        }
      ],
      "name": "transferFrom",
      "outputs": [],
      "stateMutability": "nonpayable",
      "type": "function"
    },
    {
      "inputs": [],
      "name": "withDraw",
      "outputs": [],
      "stateMutability": "nonpayable",
      "type": "function"
    }
  ],
  "bytecode": "0x60806040523480156200001157600080fd5b50604051620035973803806200359783398181016040528101906200003791906200023b565b818181600090816200004a91906200050b565b5080600190816200005c91906200050b565b50505033600960006101000a81548173ffffffffffffffffffffffffffffffffffffffff021916908373ffffffffffffffffffffffffffffffffffffffff1602179055505050620005f2565b6000604051905090565b600080fd5b600080fd5b600080fd5b600080fd5b6000601f19601f8301169050919050565b7f4e487b7100000000000000000000000000000000000000000000000000000000600052604160045260246000fd5b6200011182620000c6565b810181811067ffffffffffffffff82111715620001335762000132620000d7565b5b80604052505050565b600062000148620000a8565b905062000156828262000106565b919050565b600067ffffffffffffffff821115620001795762000178620000d7565b5b6200018482620000c6565b9050602081019050919050565b60005b83811015620001b157808201518184015260208101905062000194565b60008484015250505050565b6000620001d4620001ce846200015b565b6200013c565b905082815260208101848484011115620001f357620001f2620000c1565b5b6200020084828562000191565b509392505050565b600082601f83011262000220576200021f620000bc565b5b815162000232848260208601620001bd565b91505092915050565b60008060408385031215620002555762000254620000b2565b5b600083015167ffffffffffffffff811115620002765762000275620000b7565b5b620002848582860162000208565b925050602083015167ffffffffffffffff811115620002a857620002a7620000b7565b5b620002b68582860162000208565b9150509250929050565b600081519050919050565b7f4e487b7100000000000000000000000000000000000000000000000000000000600052602260045260246000fd5b600060028204905060018216806200031357607f821691505b602082108103620003295762000328620002cb565b5b50919050565b60008190508160005260206000209050919050565b60006020601f8301049050919050565b600082821b905092915050565b600060088302620003937fffffffffffffffffffffffffffffffffffffffffffffffffffffffffffffffff8262000354565b6200039f868362000354565b95508019841693508086168417925050509392505050565b6000819050919050565b6000819050919050565b6000620003ec620003e6620003e084620003b7565b620003c1565b620003b7565b9050919050565b6000819050919050565b6200040883620003cb565b620004206200041782620003f3565b84845462000361565b825550505050565b600090565b6200043762000428565b62000444818484620003fd565b505050565b5b818110156200046c57620004606000826200042d565b6001810190506200044a565b5050565b601f821115620004bb5762000485816200032f565b620004908462000344565b81016020851015620004a0578190505b620004b8620004af8562000344565b83018262000449565b50505b505050565b600082821c905092915050565b6000620004e060001984600802620004c0565b1980831691505092915050565b6000620004fb8383620004cd565b9150826002028217905092915050565b6200051682620002c0565b67ffffffffffffffff811115620005325762000531620000d7565b5b6200053e8254620002fa565b6200054b82828562000470565b600060209050601f8311600181146200058357600084156200056e578287015190505b6200057a8582620004ed565b865550620005ea565b601f19841662000593866200032f565b60005b82811015620005bd5784890151825560018201915060208501945060208101905062000596565b86831015620005dd5784890151620005d9601f891682620004cd565b8355505b6001600288020188555050505b505050505050565b612f9580620006026000396000f3fe60806040526004361061012a5760003560e01c80636352211e116100ab578063a22cb4651161006f578063a22cb465146103d1578063b36b652c146103fa578063b88d4fde14610437578063c87b56dd14610460578063d5abeb011461049d578063e985e9c5146104c85761012a565b80636352211e146102e557806370a08231146103225780638da5cb5b1461035f57806395d89b411461038a578063a0712d68146103b55761012a565b806312065fe0116100f257806312065fe01461021457806318160ddd1461023f57806323b872dd1461026a57806342842e0e146102935780634a878dfa146102bc5761012a565b806301ffc9a71461012f57806306fdde031461016c578063081812fc14610197578063095ea7b3146101d45780630fdb1c10146101fd575b600080fd5b34801561013b57600080fd5b5061015660048036038101906101519190611d93565b610505565b6040516101639190611ddb565b60405180910390f35b34801561017857600080fd5b506101816105e7565b60405161018e9190611e86565b60405180910390f35b3480156101a357600080fd5b506101be60048036038101906101b99190611ede565b610679565b6040516101cb9190611f4c565b60405180910390f35b3480156101e057600080fd5b506101fb60048036038101906101f69190611f93565b6106bf565b005b34801561020957600080fd5b506102126107d6565b005b34801561022057600080fd5b506102296108cb565b6040516102369190611fe2565b60405180910390f35b34801561024b57600080fd5b506102546108d3565b6040516102619190611fe2565b60405180910390f35b34801561027657600080fd5b50610291600480360381019061028c9190611ffd565b6108d9565b005b34801561029f57600080fd5b506102ba60048036038101906102b59190611ffd565b610939565b005b3480156102c857600080fd5b506102e360048036038101906102de9190612185565b610959565b005b3480156102f157600080fd5b5061030c60048036038101906103079190611ede565b610a42565b6040516103199190611f4c565b60405180910390f35b34801561032e57600080fd5b50610349600480360381019061034491906121e1565b610ac8565b6040516103569190611fe2565b60405180910390f35b34801561036b57600080fd5b50610374610b7f565b6040516103819190611f4c565b60405180910390f35b34801561039657600080fd5b5061039f610ba5565b6040516103ac9190611e86565b60405180910390f35b6103cf60048036038101906103ca9190611ede565b610c37565b005b3480156103dd57600080fd5b506103f860048036038101906103f3919061223a565b610cd8565b005b34801561040657600080fd5b50610421600480360381019061041c9190611ede565b610cee565b60405161042e9190612332565b60405180910390f35b34801561044357600080fd5b5061045e600480360381019061045991906123f5565b610dd2565b005b34801561046c57600080fd5b5061048760048036038101906104829190611ede565b610e34565b6040516104949190611e86565b60405180910390f35b3480156104a957600080fd5b506104b2610e9c565b6040516104bf9190611fe2565b60405180910390f35b3480156104d457600080fd5b506104ef60048036038101906104ea9190612478565b610ea2565b6040516104fc9190611ddb565b60405180910390f35b60007f80ac58cd000000000000000000000000000000000000000000000000000000007bffffffffffffffffffffffffffffffffffffffffffffffffffffffff1916827bffffffffffffffffffffffffffffffffffffffffffffffffffffffff191614806105d057507f5b5e139f000000000000000000000000000000000000000000000000000000007bffffffffffffffffffffffffffffffffffffffffffffffffffffffff1916827bffffffffffffffffffffffffffffffffffffffffffffffffffffffff1916145b806105e057506105df82610f36565b5b9050919050565b6060600080546105f6906124e7565b80601f0160208091040260200160405190810160405280929190818152602001828054610622906124e7565b801561066f5780601f106106445761010080835404028352916020019161066f565b820191906000526020600020905b81548152906001019060200180831161065257829003601f168201915b5050505050905090565b600061068482610fa0565b6004600083815260200190815260200160002060009054906101000a900473ffffffffffffffffffffffffffffffffffffffff169050919050565b60006106ca82610a42565b90508073ffffffffffffffffffffffffffffffffffffffff168373ffffffffffffffffffffffffffffffffffffffff160361073a576040517f08c379a00000000000000000000000000000000000000000000000000000000081526004016107319061258a565b60405180910390fd5b8073ffffffffffffffffffffffffffffffffffffffff16610759610feb565b73ffffffffffffffffffffffffffffffffffffffff161480610788575061078781610782610feb565b610ea2565b5b6107c7576040517f08c379a00000000000000000000000000000000000000000000000000000000081526004016107be9061261c565b60405180910390fd5b6107d18383610ff3565b505050565b600960009054906101000a900473ffffffffffffffffffffffffffffffffffffffff1673ffffffffffffffffffffffffffffffffffffffff163373ffffffffffffffffffffffffffffffffffffffff161461083057600080fd5b6000600960009054906101000a900473ffffffffffffffffffffffffffffffffffffffff1673ffffffffffffffffffffffffffffffffffffffff16476040516108789061266d565b60006040518083038185875af1925050503d80600081146108b5576040519150601f19603f3d011682016040523d82523d6000602084013e6108ba565b606091505b50509050806108c857600080fd5b50565b600047905090565b60075481565b6108ea6108e4610feb565b826110ac565b610929576040517f08c379a0000000000000000000000000000000000000000000000000000000008152600401610920906126f4565b60405180910390fd5b610934838383611141565b505050565b61095483838360405180602001604052806000815250610dd2565b505050565b600960009054906101000a900473ffffffffffffffffffffffffffffffffffffffff1673ffffffffffffffffffffffffffffffffffffffff163373ffffffffffffffffffffffffffffffffffffffff16146109b357600080fd5b60016006546109c29190612743565b6006819055506040518060600160405280838152602001828152602001600015158152506008600060065481526020019081526020016000206000820151816000019081610a109190612923565b506020820151816001015560408201518160020160006101000a81548160ff0219169083151502179055509050505050565b600080610a4e8361143a565b9050600073ffffffffffffffffffffffffffffffffffffffff168173ffffffffffffffffffffffffffffffffffffffff1603610abf576040517f08c379a0000000000000000000000000000000000000000000000000000000008152600401610ab690612a41565b60405180910390fd5b80915050919050565b60008073ffffffffffffffffffffffffffffffffffffffff168273ffffffffffffffffffffffffffffffffffffffff1603610b38576040517f08c379a0000000000000000000000000000000000000000000000000000000008152600401610b2f90612ad3565b60405180910390fd5b600360008373ffffffffffffffffffffffffffffffffffffffff1673ffffffffffffffffffffffffffffffffffffffff168152602001908152602001600020549050919050565b600960009054906101000a900473ffffffffffffffffffffffffffffffffffffffff1681565b606060018054610bb4906124e7565b80601f0160208091040260200160405190810160405280929190818152602001828054610be0906124e7565b8015610c2d5780601f10610c0257610100808354040283529160200191610c2d565b820191906000526020600020905b815481529060010190602001808311610c1057829003601f168201915b5050505050905090565b60008103610c4457600080fd5b600654811115610c5357600080fd5b600015156008600083815260200190815260200160002060020160009054906101000a900460ff16151514610c8757600080fd5b60016008600083815260200190815260200160002060020160006101000a81548160ff0219169083151502179055506001600754610cc59190612743565b600781905550610cd53382611477565b50565b610cea610ce3610feb565b8383611495565b5050565b610cf6611d04565b60086000838152602001908152602001600020604051806060016040529081600082018054610d24906124e7565b80601f0160208091040260200160405190810160405280929190818152602001828054610d50906124e7565b8015610d9d5780601f10610d7257610100808354040283529160200191610d9d565b820191906000526020600020905b815481529060010190602001808311610d8057829003601f168201915b50505050508152602001600182015481526020016002820160009054906101000a900460ff1615151515815250509050919050565b610de3610ddd610feb565b836110ac565b610e22576040517f08c379a0000000000000000000000000000000000000000000000000000000008152600401610e19906126f4565b60405180910390fd5b610e2e84848484611601565b50505050565b6060610e3f82610fa0565b6000610e4961165d565b90506000815111610e695760405180602001604052806000815250610e94565b80610e7384611674565b604051602001610e84929190612b2f565b6040516020818303038152906040525b915050919050565b60065481565b6000600560008473ffffffffffffffffffffffffffffffffffffffff1673ffffffffffffffffffffffffffffffffffffffff16815260200190815260200160002060008373ffffffffffffffffffffffffffffffffffffffff1673ffffffffffffffffffffffffffffffffffffffff16815260200190815260200160002060009054906101000a900460ff16905092915050565b60007f01ffc9a7000000000000000000000000000000000000000000000000000000007bffffffffffffffffffffffffffffffffffffffffffffffffffffffff1916827bffffffffffffffffffffffffffffffffffffffffffffffffffffffff1916149050919050565b610fa981611742565b610fe8576040517f08c379a0000000000000000000000000000000000000000000000000000000008152600401610fdf90612a41565b60405180910390fd5b50565b600033905090565b816004600083815260200190815260200160002060006101000a81548173ffffffffffffffffffffffffffffffffffffffff021916908373ffffffffffffffffffffffffffffffffffffffff160217905550808273ffffffffffffffffffffffffffffffffffffffff1661106683610a42565b73ffffffffffffffffffffffffffffffffffffffff167f8c5be1e5ebec7d5bd14f71427d1e84f3dd0314c0f7b2291e5b200ac8c7c3b92560405160405180910390a45050565b6000806110b883610a42565b90508073ffffffffffffffffffffffffffffffffffffffff168473ffffffffffffffffffffffffffffffffffffffff1614806110fa57506110f98185610ea2565b5b8061113857508373ffffffffffffffffffffffffffffffffffffffff1661112084610679565b73ffffffffffffffffffffffffffffffffffffffff16145b91505092915050565b8273ffffffffffffffffffffffffffffffffffffffff1661116182610a42565b73ffffffffffffffffffffffffffffffffffffffff16146111b7576040517f08c379a00000000000000000000000000000000000000000000000000000000081526004016111ae90612bc5565b60405180910390fd5b600073ffffffffffffffffffffffffffffffffffffffff168273ffffffffffffffffffffffffffffffffffffffff1603611226576040517f08c379a000000000000000000000000000000000000000000000000000000000815260040161121d90612c57565b60405180910390fd5b6112338383836001611783565b8273ffffffffffffffffffffffffffffffffffffffff1661125382610a42565b73ffffffffffffffffffffffffffffffffffffffff16146112a9576040517f08c379a00000000000000000000000000000000000000000000000000000000081526004016112a090612bc5565b60405180910390fd5b6004600082815260200190815260200160002060006101000a81549073ffffffffffffffffffffffffffffffffffffffff02191690556001600360008573ffffffffffffffffffffffffffffffffffffffff1673ffffffffffffffffffffffffffffffffffffffff168152602001908152602001600020600082825403925050819055506001600360008473ffffffffffffffffffffffffffffffffffffffff1673ffffffffffffffffffffffffffffffffffffffff16815260200190815260200160002060008282540192505081905550816002600083815260200190815260200160002060006101000a81548173ffffffffffffffffffffffffffffffffffffffff021916908373ffffffffffffffffffffffffffffffffffffffff160217905550808273ffffffffffffffffffffffffffffffffffffffff168473ffffffffffffffffffffffffffffffffffffffff167fddf252ad1be2c89b69c2b068fc378daa952ba7f163c4a11628f55a4df523b3ef60405160405180910390a46114358383836001611789565b505050565b60006002600083815260200190815260200160002060009054906101000a900473ffffffffffffffffffffffffffffffffffffffff169050919050565b61149182826040518060200160405280600081525061178f565b5050565b8173ffffffffffffffffffffffffffffffffffffffff168373ffffffffffffffffffffffffffffffffffffffff1603611503576040517f08c379a00000000000000000000000000000000000000000000000000000000081526004016114fa90612cc3565b60405180910390fd5b80600560008573ffffffffffffffffffffffffffffffffffffffff1673ffffffffffffffffffffffffffffffffffffffff16815260200190815260200160002060008473ffffffffffffffffffffffffffffffffffffffff1673ffffffffffffffffffffffffffffffffffffffff16815260200190815260200160002060006101000a81548160ff0219169083151502179055508173ffffffffffffffffffffffffffffffffffffffff168373ffffffffffffffffffffffffffffffffffffffff167f17307eab39ab6107e8899845ad3d59bd9653f200f220920489ca2b5937696c31836040516115f49190611ddb565b60405180910390a3505050565b61160c848484611141565b611618848484846117ea565b611657576040517f08c379a000000000000000000000000000000000000000000000000000000000815260040161164e90612d55565b60405180910390fd5b50505050565b606060405180602001604052806000815250905090565b60606000600161168384611971565b01905060008167ffffffffffffffff8111156116a2576116a161205a565b5b6040519080825280601f01601f1916602001820160405280156116d45781602001600182028036833780820191505090505b509050600082602001820190505b600115611737578080600190039150507f3031323334353637383961626364656600000000000000000000000000000000600a86061a8153600a858161172b5761172a612d75565b5b049450600085036116e2575b819350505050919050565b60008073ffffffffffffffffffffffffffffffffffffffff166117648361143a565b73ffffffffffffffffffffffffffffffffffffffff1614159050919050565b50505050565b50505050565b6117998383611ac4565b6117a660008484846117ea565b6117e5576040517f08c379a00000000000000000000000000000000000000000000000000000000081526004016117dc90612d55565b60405180910390fd5b505050565b600061180b8473ffffffffffffffffffffffffffffffffffffffff16611ce1565b15611964578373ffffffffffffffffffffffffffffffffffffffff1663150b7a02611834610feb565b8786866040518563ffffffff1660e01b81526004016118569493929190612df9565b6020604051808303816000875af192505050801561189257506040513d601f19601f8201168201806040525081019061188f9190612e5a565b60015b611914573d80600081146118c2576040519150601f19603f3d011682016040523d82523d6000602084013e6118c7565b606091505b50600081510361190c576040517f08c379a000000000000000000000000000000000000000000000000000000000815260040161190390612d55565b60405180910390fd5b805181602001fd5b63150b7a0260e01b7bffffffffffffffffffffffffffffffffffffffffffffffffffffffff1916817bffffffffffffffffffffffffffffffffffffffffffffffffffffffff191614915050611969565b600190505b949350505050565b600080600090507a184f03e93ff9f4daa797ed6e38ed64bf6a1f01000000000000000083106119cf577a184f03e93ff9f4daa797ed6e38ed64bf6a1f01000000000000000083816119c5576119c4612d75565b5b0492506040810190505b6d04ee2d6d415b85acef81000000008310611a0c576d04ee2d6d415b85acef81000000008381611a0257611a01612d75565b5b0492506020810190505b662386f26fc100008310611a3b57662386f26fc100008381611a3157611a30612d75565b5b0492506010810190505b6305f5e1008310611a64576305f5e1008381611a5a57611a59612d75565b5b0492506008810190505b6127108310611a89576127108381611a7f57611a7e612d75565b5b0492506004810190505b60648310611aac5760648381611aa257611aa1612d75565b5b0492506002810190505b600a8310611abb576001810190505b80915050919050565b600073ffffffffffffffffffffffffffffffffffffffff168273ffffffffffffffffffffffffffffffffffffffff1603611b33576040517f08c379a0000000000000000000000000000000000000000000000000000000008152600401611b2a90612ed3565b60405180910390fd5b611b3c81611742565b15611b7c576040517f08c379a0000000000000000000000000000000000000000000000000000000008152600401611b7390612f3f565b60405180910390fd5b611b8a600083836001611783565b611b9381611742565b15611bd3576040517f08c379a0000000000000000000000000000000000000000000000000000000008152600401611bca90612f3f565b60405180910390fd5b6001600360008473ffffffffffffffffffffffffffffffffffffffff1673ffffffffffffffffffffffffffffffffffffffff16815260200190815260200160002060008282540192505081905550816002600083815260200190815260200160002060006101000a81548173ffffffffffffffffffffffffffffffffffffffff021916908373ffffffffffffffffffffffffffffffffffffffff160217905550808273ffffffffffffffffffffffffffffffffffffffff16600073ffffffffffffffffffffffffffffffffffffffff167fddf252ad1be2c89b69c2b068fc378daa952ba7f163c4a11628f55a4df523b3ef60405160405180910390a4611cdd600083836001611789565b5050565b6000808273ffffffffffffffffffffffffffffffffffffffff163b119050919050565b604051806060016040528060608152602001600081526020016000151581525090565b6000604051905090565b600080fd5b600080fd5b60007fffffffff0000000000000000000000000000000000000000000000000000000082169050919050565b611d7081611d3b565b8114611d7b57600080fd5b50565b600081359050611d8d81611d67565b92915050565b600060208284031215611da957611da8611d31565b5b6000611db784828501611d7e565b91505092915050565b60008115159050919050565b611dd581611dc0565b82525050565b6000602082019050611df06000830184611dcc565b92915050565b600081519050919050565b600082825260208201905092915050565b60005b83811015611e30578082015181840152602081019050611e15565b60008484015250505050565b6000601f19601f8301169050919050565b6000611e5882611df6565b611e628185611e01565b9350611e72818560208601611e12565b611e7b81611e3c565b840191505092915050565b60006020820190508181036000830152611ea08184611e4d565b905092915050565b6000819050919050565b611ebb81611ea8565b8114611ec657600080fd5b50565b600081359050611ed881611eb2565b92915050565b600060208284031215611ef457611ef3611d31565b5b6000611f0284828501611ec9565b91505092915050565b600073ffffffffffffffffffffffffffffffffffffffff82169050919050565b6000611f3682611f0b565b9050919050565b611f4681611f2b565b82525050565b6000602082019050611f616000830184611f3d565b92915050565b611f7081611f2b565b8114611f7b57600080fd5b50565b600081359050611f8d81611f67565b92915050565b60008060408385031215611faa57611fa9611d31565b5b6000611fb885828601611f7e565b9250506020611fc985828601611ec9565b9150509250929050565b611fdc81611ea8565b82525050565b6000602082019050611ff76000830184611fd3565b92915050565b60008060006060848603121561201657612015611d31565b5b600061202486828701611f7e565b935050602061203586828701611f7e565b925050604061204686828701611ec9565b9150509250925092565b600080fd5b600080fd5b7f4e487b7100000000000000000000000000000000000000000000000000000000600052604160045260246000fd5b61209282611e3c565b810181811067ffffffffffffffff821117156120b1576120b061205a565b5b80604052505050565b60006120c4611d27565b90506120d08282612089565b919050565b600067ffffffffffffffff8211156120f0576120ef61205a565b5b6120f982611e3c565b9050602081019050919050565b82818337600083830152505050565b6000612128612123846120d5565b6120ba565b90508281526020810184848401111561214457612143612055565b5b61214f848285612106565b509392505050565b600082601f83011261216c5761216b612050565b5b813561217c848260208601612115565b91505092915050565b6000806040838503121561219c5761219b611d31565b5b600083013567ffffffffffffffff8111156121ba576121b9611d36565b5b6121c685828601612157565b92505060206121d785828601611ec9565b9150509250929050565b6000602082840312156121f7576121f6611d31565b5b600061220584828501611f7e565b91505092915050565b61221781611dc0565b811461222257600080fd5b50565b6000813590506122348161220e565b92915050565b6000806040838503121561225157612250611d31565b5b600061225f85828601611f7e565b925050602061227085828601612225565b9150509250929050565b600082825260208201905092915050565b600061229682611df6565b6122a0818561227a565b93506122b0818560208601611e12565b6122b981611e3c565b840191505092915050565b6122cd81611ea8565b82525050565b6122dc81611dc0565b82525050565b600060608301600083015184820360008601526122ff828261228b565b915050602083015161231460208601826122c4565b50604083015161232760408601826122d3565b508091505092915050565b6000602082019050818103600083015261234c81846122e2565b905092915050565b600067ffffffffffffffff82111561236f5761236e61205a565b5b61237882611e3c565b9050602081019050919050565b600061239861239384612354565b6120ba565b9050828152602081018484840111156123b4576123b3612055565b5b6123bf848285612106565b509392505050565b600082601f8301126123dc576123db612050565b5b81356123ec848260208601612385565b91505092915050565b6000806000806080858703121561240f5761240e611d31565b5b600061241d87828801611f7e565b945050602061242e87828801611f7e565b935050604061243f87828801611ec9565b925050606085013567ffffffffffffffff8111156124605761245f611d36565b5b61246c878288016123c7565b91505092959194509250565b6000806040838503121561248f5761248e611d31565b5b600061249d85828601611f7e565b92505060206124ae85828601611f7e565b9150509250929050565b7f4e487b7100000000000000000000000000000000000000000000000000000000600052602260045260246000fd5b600060028204905060018216806124ff57607f821691505b602082108103612512576125116124b8565b5b50919050565b7f4552433732313a20617070726f76616c20746f2063757272656e74206f776e6560008201527f7200000000000000000000000000000000000000000000000000000000000000602082015250565b6000612574602183611e01565b915061257f82612518565b604082019050919050565b600060208201905081810360008301526125a381612567565b9050919050565b7f4552433732313a20617070726f76652063616c6c6572206973206e6f7420746f60008201527f6b656e206f776e6572206f7220617070726f76656420666f7220616c6c000000602082015250565b6000612606603d83611e01565b9150612611826125aa565b604082019050919050565b60006020820190508181036000830152612635816125f9565b9050919050565b600081905092915050565b50565b600061265760008361263c565b915061266282612647565b600082019050919050565b60006126788261264a565b9150819050919050565b7f4552433732313a2063616c6c6572206973206e6f7420746f6b656e206f776e6560008201527f72206f7220617070726f76656400000000000000000000000000000000000000602082015250565b60006126de602d83611e01565b91506126e982612682565b604082019050919050565b6000602082019050818103600083015261270d816126d1565b9050919050565b7f4e487b7100000000000000000000000000000000000000000000000000000000600052601160045260246000fd5b600061274e82611ea8565b915061275983611ea8565b925082820190508082111561277157612770612714565b5b92915050565b60008190508160005260206000209050919050565b60006020601f8301049050919050565b600082821b905092915050565b6000600883026127d97fffffffffffffffffffffffffffffffffffffffffffffffffffffffffffffffff8261279c565b6127e3868361279c565b95508019841693508086168417925050509392505050565b6000819050919050565b600061282061281b61281684611ea8565b6127fb565b611ea8565b9050919050565b6000819050919050565b61283a83612805565b61284e61284682612827565b8484546127a9565b825550505050565b600090565b612863612856565b61286e818484612831565b505050565b5b818110156128925761288760008261285b565b600181019050612874565b5050565b601f8211156128d7576128a881612777565b6128b18461278c565b810160208510156128c0578190505b6128d46128cc8561278c565b830182612873565b50505b505050565b600082821c905092915050565b60006128fa600019846008026128dc565b1980831691505092915050565b600061291383836128e9565b9150826002028217905092915050565b61292c82611df6565b67ffffffffffffffff8111156129455761294461205a565b5b61294f82546124e7565b61295a828285612896565b600060209050601f83116001811461298d576000841561297b578287015190505b6129858582612907565b8655506129ed565b601f19841661299b86612777565b60005b828110156129c35784890151825560018201915060208501945060208101905061299e565b868310156129e057848901516129dc601f8916826128e9565b8355505b6001600288020188555050505b505050505050565b7f4552433732313a20696e76616c696420746f6b656e2049440000000000000000600082015250565b6000612a2b601883611e01565b9150612a36826129f5565b602082019050919050565b60006020820190508181036000830152612a5a81612a1e565b9050919050565b7f4552433732313a2061646472657373207a65726f206973206e6f74206120766160008201527f6c6964206f776e65720000000000000000000000000000000000000000000000602082015250565b6000612abd602983611e01565b9150612ac882612a61565b604082019050919050565b60006020820190508181036000830152612aec81612ab0565b9050919050565b600081905092915050565b6000612b0982611df6565b612b138185612af3565b9350612b23818560208601611e12565b80840191505092915050565b6000612b3b8285612afe565b9150612b478284612afe565b91508190509392505050565b7f4552433732313a207472616e736665722066726f6d20696e636f72726563742060008201527f6f776e6572000000000000000000000000000000000000000000000000000000602082015250565b6000612baf602583611e01565b9150612bba82612b53565b604082019050919050565b60006020820190508181036000830152612bde81612ba2565b9050919050565b7f4552433732313a207472616e7366657220746f20746865207a65726f2061646460008201527f7265737300000000000000000000000000000000000000000000000000000000602082015250565b6000612c41602483611e01565b9150612c4c82612be5565b604082019050919050565b60006020820190508181036000830152612c7081612c34565b9050919050565b7f4552433732313a20617070726f766520746f2063616c6c657200000000000000600082015250565b6000612cad601983611e01565b9150612cb882612c77565b602082019050919050565b60006020820190508181036000830152612cdc81612ca0565b9050919050565b7f4552433732313a207472616e7366657220746f206e6f6e20455243373231526560008201527f63656976657220696d706c656d656e7465720000000000000000000000000000602082015250565b6000612d3f603283611e01565b9150612d4a82612ce3565b604082019050919050565b60006020820190508181036000830152612d6e81612d32565b9050919050565b7f4e487b7100000000000000000000000000000000000000000000000000000000600052601260045260246000fd5b600081519050919050565b600082825260208201905092915050565b6000612dcb82612da4565b612dd58185612daf565b9350612de5818560208601611e12565b612dee81611e3c565b840191505092915050565b6000608082019050612e0e6000830187611f3d565b612e1b6020830186611f3d565b612e286040830185611fd3565b8181036060830152612e3a8184612dc0565b905095945050505050565b600081519050612e5481611d67565b92915050565b600060208284031215612e7057612e6f611d31565b5b6000612e7e84828501612e45565b91505092915050565b7f4552433732313a206d696e7420746f20746865207a65726f2061646472657373600082015250565b6000612ebd602083611e01565b9150612ec882612e87565b602082019050919050565b60006020820190508181036000830152612eec81612eb0565b9050919050565b7f4552433732313a20746f6b656e20616c7265616479206d696e74656400000000600082015250565b6000612f29601c83611e01565b9150612f3482612ef3565b602082019050919050565b60006020820190508181036000830152612f5881612f1c565b905091905056fea26469706673582212202555d7a4175657b6729e5779e62de4cac92955e6df9bc2432e2ecb71bf2c691c64736f6c63430008110033",
  "linkReferences": {},
  "deployedLinkReferences": {}
}