{
  "_format": "hh-sol-artifact-1",
  "contractName": "ETHDaddy",
  "sourceName": "contracts/ETHDaddy.sol",
  "abi": [
    {
      "inputs": [
        {
          "internalType": "string",
          "name": "_name",
          "type": "string"
        },
        {
          "internalType": "string",
          "name": "_symbol",
          "type": "string"
        }
      ],
      "stateMutability": "nonpayable",
      "type": "constructor"
    },
    {
      "anonymous": false,
      "inputs": [
        {
          "indexed": true,
          "internalType": "address",
          "name": "owner",
          "type": "address"
        },
        {
          "indexed": true,
          "internalType": "address",
          "name": "approved",
          "type": "address"
        },
        {
          "indexed": true,
          "internalType": "uint256",
          "name": "tokenId",
          "type": "uint256"
        }
      ],
      "name": "Approval",
      "type": "event"
    },
    {
      "anonymous": false,
      "inputs": [
        {
          "indexed": true,
          "internalType": "address",
          "name": "owner",
          "type": "address"
        },
        {
          "indexed": true,
          "internalType": "address",
          "name": "operator",
          "type": "address"
        },
        {
          "indexed": false,
          "internalType": "bool",
          "name": "approved",
          "type": "bool"
        }
      ],
      "name": "ApprovalForAll",
      "type": "event"
    },
    {
      "anonymous": false,
      "inputs": [
        {
          "indexed": true,
          "internalType": "address",
          "name": "from",
          "type": "address"
        },
        {
          "indexed": true,
          "internalType": "address",
          "name": "to",
          "type": "address"
        },
        {
          "indexed": true,
          "internalType": "uint256",
          "name": "tokenId",
          "type": "uint256"
        }
      ],
      "name": "Transfer",
      "type": "event"
    },
    {
      "inputs": [
        {
          "internalType": "address",
          "name": "to",
          "type": "address"
        },
        {
          "internalType": "uint256",
          "name": "tokenId",
          "type": "uint256"
        }
      ],
      "name": "approve",
      "outputs": [],
      "stateMutability": "nonpayable",
      "type": "function"
    },
    {
      "inputs": [
        {
          "internalType": "address",
          "name": "owner",
          "type": "address"
        }
      ],
      "name": "balanceOf",
      "outputs": [
        {
          "internalType": "uint256",
          "name": "",
          "type": "uint256"
        }
      ],
      "stateMutability": "view",
      "type": "function"
    },
    {
      "inputs": [
        {
          "internalType": "uint256",
          "name": "tokenId",
          "type": "uint256"
        }
      ],
      "name": "getApproved",
      "outputs": [
        {
          "internalType": "address",
          "name": "",
          "type": "address"
        }
      ],
      "stateMutability": "view",
      "type": "function"
    },
    {
      "inputs": [],
      "name": "getBalance",
      "outputs": [
        {
          "internalType": "uint256",
          "name": "",
          "type": "uint256"
        }
      ],
      "stateMutability": "view",
      "type": "function"
    },
    {
      "inputs": [
        {
          "internalType": "uint256",
          "name": "_id",
          "type": "uint256"
        }
      ],
      "name": "getDomains",
      "outputs": [
        {
          "components": [
            {
              "internalType": "string",
              "name": "name",
              "type": "string"
            },
            {
              "internalType": "uint256",
              "name": "cost",
              "type": "uint256"
            },
            {
              "internalType": "bool",
              "name": "isOwned",
              "type": "bool"
            }
          ],
          "internalType": "struct ETHDaddy.Domain",
          "name": "",
          "type": "tuple"
        }
      ],
      "stateMutability": "view",
      "type": "function"
    },
    {
      "inputs": [
        {
          "internalType": "address",
          "name": "owner",
          "type": "address"
        },
        {
          "internalType": "address",
          "name": "operator",
          "type": "address"
        }
      ],
      "name": "isApprovedForAll",
      "outputs": [
        {
          "internalType": "bool",
          "name": "",
          "type": "bool"
        }
      ],
      "stateMutability": "view",
      "type": "function"
    },
    {
      "inputs": [
        {
          "internalType": "string",
          "name": "_name",
          "type": "string"
        },
        {
          "internalType": "uint256",
          "name": "_cost",
          "type": "uint256"
        }
      ],
      "name": "list",
      "outputs": [],
      "stateMutability": "nonpayable",
      "type": "function"
    },
    {
      "inputs": [],
      "name": "maxSupply",
      "outputs": [
        {
          "internalType": "uint256",
          "name": "",
          "type": "uint256"
        }
      ],
      "stateMutability": "view",
      "type": "function"
    },
    {
      "inputs": [
        {
          "internalType": "uint256",
          "name": "_id",
          "type": "uint256"
        }
      ],
      "name": "mint",
      "outputs": [],
      "stateMutability": "payable",
      "type": "function"
    },
    {
      "inputs": [],
      "name": "name",
      "outputs": [
        {
          "internalType": "string",
          "name": "",
          "type": "string"
        }
      ],
      "stateMutability": "view",
      "type": "function"
    },
    {
      "inputs": [],
      "name": "owner",
      "outputs": [
        {
          "internalType": "address",
          "name": "",
          "type": "address"
        }
      ],
      "stateMutability": "view",
      "type": "function"
    },
    {
      "inputs": [
        {
          "internalType": "uint256",
          "name": "tokenId",
          "type": "uint256"
        }
      ],
      "name": "ownerOf",
      "outputs": [
        {
          "internalType": "address",
          "name": "",
          "type": "address"
        }
      ],
      "stateMutability": "view",
      "type": "function"
    },
    {
      "inputs": [
        {
          "internalType": "address",
          "name": "from",
          "type": "address"
        },
        {
          "internalType": "address",
          "name": "to",
          "type": "address"
        },
        {
          "internalType": "uint256",
          "name": "tokenId",
          "type": "uint256"
        }
      ],
      "name": "safeTransferFrom",
      "outputs": [],
      "stateMutability": "nonpayable",
      "type": "function"
    },
    {
      "inputs": [
        {
          "internalType": "address",
          "name": "from",
          "type": "address"
        },
        {
          "internalType": "address",
          "name": "to",
          "type": "address"
        },
        {
          "internalType": "uint256",
          "name": "tokenId",
          "type": "uint256"
        },
        {
          "internalType": "bytes",
          "name": "data",
          "type": "bytes"
        }
      ],
      "name": "safeTransferFrom",
      "outputs": [],
      "stateMutability": "nonpayable",
      "type": "function"
    },
    {
      "inputs": [
        {
          "internalType": "address",
          "name": "operator",
          "type": "address"
        },
        {
          "internalType": "bool",
          "name": "approved",
          "type": "bool"
        }
      ],
      "name": "setApprovalForAll",
      "outputs": [],
      "stateMutability": "nonpayable",
      "type": "function"
    },
    {
      "inputs": [
        {
          "internalType": "bytes4",
          "name": "interfaceId",
          "type": "bytes4"
        }
      ],
      "name": "supportsInterface",
      "outputs": [
        {
          "internalType": "bool",
          "name": "",
          "type": "bool"
        }
      ],
      "stateMutability": "view",
      "type": "function"
    },
    {
      "inputs": [],
      "name": "symbol",
      "outputs": [
        {
          "internalType": "string",
          "name": "",
          "type": "string"
        }
      ],
      "stateMutability": "view",
      "type": "function"
    },
    {
      "inputs": [
        {
          "internalType": "uint256",
          "name": "tokenId",
          "type": "uint256"
        }
      ],
      "name": "tokenURI",
      "outputs": [
        {
          "internalType": "string",
          "name": "",
          "type": "string"
        }
      ],
      "stateMutability": "view",
      "type": "function"
    },
    {
      "inputs": [
        {
          "internalType": "address",
          "name": "from",
          "type": "address"
        },
        {
          "internalType": "address",
          "name": "to",
          "type": "address"
        },
        {
          "internalType": "uint256",
          "name": "tokenId",
          "type": "uint256"
        }
      ],
      "name": "transferFrom",
      "outputs": [],
      "stateMutability": "nonpayable",
      "type": "function"
    }
  ],
  "bytecode": "0x60806040523480156200001157600080fd5b506040516200336a3803806200336a83398181016040528101906200003791906200023b565b818181600090816200004a91906200050b565b5080600190816200005c91906200050b565b50505033600860006101000a81548173ffffffffffffffffffffffffffffffffffffffff021916908373ffffffffffffffffffffffffffffffffffffffff1602179055505050620005f2565b6000604051905090565b600080fd5b600080fd5b600080fd5b600080fd5b6000601f19601f8301169050919050565b7f4e487b7100000000000000000000000000000000000000000000000000000000600052604160045260246000fd5b6200011182620000c6565b810181811067ffffffffffffffff82111715620001335762000132620000d7565b5b80604052505050565b600062000148620000a8565b905062000156828262000106565b919050565b600067ffffffffffffffff821115620001795762000178620000d7565b5b6200018482620000c6565b9050602081019050919050565b60005b83811015620001b157808201518184015260208101905062000194565b60008484015250505050565b6000620001d4620001ce846200015b565b6200013c565b905082815260208101848484011115620001f357620001f2620000c1565b5b6200020084828562000191565b509392505050565b600082601f83011262000220576200021f620000bc565b5b815162000232848260208601620001bd565b91505092915050565b60008060408385031215620002555762000254620000b2565b5b600083015167ffffffffffffffff811115620002765762000275620000b7565b5b620002848582860162000208565b925050602083015167ffffffffffffffff811115620002a857620002a7620000b7565b5b620002b68582860162000208565b9150509250929050565b600081519050919050565b7f4e487b7100000000000000000000000000000000000000000000000000000000600052602260045260246000fd5b600060028204905060018216806200031357607f821691505b602082108103620003295762000328620002cb565b5b50919050565b60008190508160005260206000209050919050565b60006020601f8301049050919050565b600082821b905092915050565b600060088302620003937fffffffffffffffffffffffffffffffffffffffffffffffffffffffffffffffff8262000354565b6200039f868362000354565b95508019841693508086168417925050509392505050565b6000819050919050565b6000819050919050565b6000620003ec620003e6620003e084620003b7565b620003c1565b620003b7565b9050919050565b6000819050919050565b6200040883620003cb565b620004206200041782620003f3565b84845462000361565b825550505050565b600090565b6200043762000428565b62000444818484620003fd565b505050565b5b818110156200046c57620004606000826200042d565b6001810190506200044a565b5050565b601f821115620004bb5762000485816200032f565b620004908462000344565b81016020851015620004a0578190505b620004b8620004af8562000344565b83018262000449565b50505b505050565b600082821c905092915050565b6000620004e060001984600802620004c0565b1980831691505092915050565b6000620004fb8383620004cd565b9150826002028217905092915050565b6200051682620002c0565b67ffffffffffffffff811115620005325762000531620000d7565b5b6200053e8254620002fa565b6200054b82828562000470565b600060209050601f8311600181146200058357600084156200056e578287015190505b6200057a8582620004ed565b865550620005ea565b601f19841662000593866200032f565b60005b82811015620005bd5784890151825560018201915060208501945060208101905062000596565b86831015620005dd5784890151620005d9601f891682620004cd565b8355505b6001600288020188555050505b505050505050565b612d6880620006026000396000f3fe6080604052600436106101145760003560e01c806370a08231116100a0578063b36b652c11610064578063b36b652c146103a2578063b88d4fde146103df578063c87b56dd14610408578063d5abeb0114610445578063e985e9c51461047057610114565b806370a08231146102ca5780638da5cb5b1461030757806395d89b4114610332578063a0712d681461035d578063a22cb4651461037957610114565b806312065fe0116100e757806312065fe0146101e757806323b872dd1461021257806342842e0e1461023b5780634a878dfa146102645780636352211e1461028d57610114565b806301ffc9a71461011957806306fdde0314610156578063081812fc14610181578063095ea7b3146101be575b600080fd5b34801561012557600080fd5b50610140600480360381019061013b9190611bac565b6104ad565b60405161014d9190611bf4565b60405180910390f35b34801561016257600080fd5b5061016b61058f565b6040516101789190611c9f565b60405180910390f35b34801561018d57600080fd5b506101a860048036038101906101a39190611cf7565b610621565b6040516101b59190611d65565b60405180910390f35b3480156101ca57600080fd5b506101e560048036038101906101e09190611dac565b610667565b005b3480156101f357600080fd5b506101fc61077e565b6040516102099190611dfb565b60405180910390f35b34801561021e57600080fd5b5061023960048036038101906102349190611e16565b610786565b005b34801561024757600080fd5b50610262600480360381019061025d9190611e16565b6107e6565b005b34801561027057600080fd5b5061028b60048036038101906102869190611f9e565b610806565b005b34801561029957600080fd5b506102b460048036038101906102af9190611cf7565b6108ef565b6040516102c19190611d65565b60405180910390f35b3480156102d657600080fd5b506102f160048036038101906102ec9190611ffa565b610975565b6040516102fe9190611dfb565b60405180910390f35b34801561031357600080fd5b5061031c610a2c565b6040516103299190611d65565b60405180910390f35b34801561033e57600080fd5b50610347610a52565b6040516103549190611c9f565b60405180910390f35b61037760048036038101906103729190611cf7565b610ae4565b005b34801561038557600080fd5b506103a0600480360381019061039b9190612053565b610af1565b005b3480156103ae57600080fd5b506103c960048036038101906103c49190611cf7565b610b07565b6040516103d6919061214b565b60405180910390f35b3480156103eb57600080fd5b506104066004803603810190610401919061220e565b610beb565b005b34801561041457600080fd5b5061042f600480360381019061042a9190611cf7565b610c4d565b60405161043c9190611c9f565b60405180910390f35b34801561045157600080fd5b5061045a610cb5565b6040516104679190611dfb565b60405180910390f35b34801561047c57600080fd5b5061049760048036038101906104929190612291565b610cbb565b6040516104a49190611bf4565b60405180910390f35b60007f80ac58cd000000000000000000000000000000000000000000000000000000007bffffffffffffffffffffffffffffffffffffffffffffffffffffffff1916827bffffffffffffffffffffffffffffffffffffffffffffffffffffffff1916148061057857507f5b5e139f000000000000000000000000000000000000000000000000000000007bffffffffffffffffffffffffffffffffffffffffffffffffffffffff1916827bffffffffffffffffffffffffffffffffffffffffffffffffffffffff1916145b80610588575061058782610d4f565b5b9050919050565b60606000805461059e90612300565b80601f01602080910402602001604051908101604052809291908181526020018280546105ca90612300565b80156106175780601f106105ec57610100808354040283529160200191610617565b820191906000526020600020905b8154815290600101906020018083116105fa57829003601f168201915b5050505050905090565b600061062c82610db9565b6004600083815260200190815260200160002060009054906101000a900473ffffffffffffffffffffffffffffffffffffffff169050919050565b6000610672826108ef565b90508073ffffffffffffffffffffffffffffffffffffffff168373ffffffffffffffffffffffffffffffffffffffff16036106e2576040517f08c379a00000000000000000000000000000000000000000000000000000000081526004016106d9906123a3565b60405180910390fd5b8073ffffffffffffffffffffffffffffffffffffffff16610701610e04565b73ffffffffffffffffffffffffffffffffffffffff161480610730575061072f8161072a610e04565b610cbb565b5b61076f576040517f08c379a000000000000000000000000000000000000000000000000000000000815260040161076690612435565b60405180910390fd5b6107798383610e0c565b505050565b600047905090565b610797610791610e04565b82610ec5565b6107d6576040517f08c379a00000000000000000000000000000000000000000000000000000000081526004016107cd906124c7565b60405180910390fd5b6107e1838383610f5a565b505050565b61080183838360405180602001604052806000815250610beb565b505050565b600860009054906101000a900473ffffffffffffffffffffffffffffffffffffffff1673ffffffffffffffffffffffffffffffffffffffff163373ffffffffffffffffffffffffffffffffffffffff161461086057600080fd5b600160065461086f9190612516565b60068190555060405180606001604052808381526020018281526020016000151581525060076000600654815260200190815260200160002060008201518160000190816108bd91906126f6565b506020820151816001015560408201518160020160006101000a81548160ff0219169083151502179055509050505050565b6000806108fb83611253565b9050600073ffffffffffffffffffffffffffffffffffffffff168173ffffffffffffffffffffffffffffffffffffffff160361096c576040517f08c379a000000000000000000000000000000000000000000000000000000000815260040161096390612814565b60405180910390fd5b80915050919050565b60008073ffffffffffffffffffffffffffffffffffffffff168273ffffffffffffffffffffffffffffffffffffffff16036109e5576040517f08c379a00000000000000000000000000000000000000000000000000000000081526004016109dc906128a6565b60405180910390fd5b600360008373ffffffffffffffffffffffffffffffffffffffff1673ffffffffffffffffffffffffffffffffffffffff168152602001908152602001600020549050919050565b600860009054906101000a900473ffffffffffffffffffffffffffffffffffffffff1681565b606060018054610a6190612300565b80601f0160208091040260200160405190810160405280929190818152602001828054610a8d90612300565b8015610ada5780601f10610aaf57610100808354040283529160200191610ada565b820191906000526020600020905b815481529060010190602001808311610abd57829003601f168201915b5050505050905090565b610aee3382611290565b50565b610b03610afc610e04565b83836112ae565b5050565b610b0f611b1d565b60076000838152602001908152602001600020604051806060016040529081600082018054610b3d90612300565b80601f0160208091040260200160405190810160405280929190818152602001828054610b6990612300565b8015610bb65780601f10610b8b57610100808354040283529160200191610bb6565b820191906000526020600020905b815481529060010190602001808311610b9957829003601f168201915b50505050508152602001600182015481526020016002820160009054906101000a900460ff1615151515815250509050919050565b610bfc610bf6610e04565b83610ec5565b610c3b576040517f08c379a0000000000000000000000000000000000000000000000000000000008152600401610c32906124c7565b60405180910390fd5b610c478484848461141a565b50505050565b6060610c5882610db9565b6000610c62611476565b90506000815111610c825760405180602001604052806000815250610cad565b80610c8c8461148d565b604051602001610c9d929190612902565b6040516020818303038152906040525b915050919050565b60065481565b6000600560008473ffffffffffffffffffffffffffffffffffffffff1673ffffffffffffffffffffffffffffffffffffffff16815260200190815260200160002060008373ffffffffffffffffffffffffffffffffffffffff1673ffffffffffffffffffffffffffffffffffffffff16815260200190815260200160002060009054906101000a900460ff16905092915050565b60007f01ffc9a7000000000000000000000000000000000000000000000000000000007bffffffffffffffffffffffffffffffffffffffffffffffffffffffff1916827bffffffffffffffffffffffffffffffffffffffffffffffffffffffff1916149050919050565b610dc28161155b565b610e01576040517f08c379a0000000000000000000000000000000000000000000000000000000008152600401610df890612814565b60405180910390fd5b50565b600033905090565b816004600083815260200190815260200160002060006101000a81548173ffffffffffffffffffffffffffffffffffffffff021916908373ffffffffffffffffffffffffffffffffffffffff160217905550808273ffffffffffffffffffffffffffffffffffffffff16610e7f836108ef565b73ffffffffffffffffffffffffffffffffffffffff167f8c5be1e5ebec7d5bd14f71427d1e84f3dd0314c0f7b2291e5b200ac8c7c3b92560405160405180910390a45050565b600080610ed1836108ef565b90508073ffffffffffffffffffffffffffffffffffffffff168473ffffffffffffffffffffffffffffffffffffffff161480610f135750610f128185610cbb565b5b80610f5157508373ffffffffffffffffffffffffffffffffffffffff16610f3984610621565b73ffffffffffffffffffffffffffffffffffffffff16145b91505092915050565b8273ffffffffffffffffffffffffffffffffffffffff16610f7a826108ef565b73ffffffffffffffffffffffffffffffffffffffff1614610fd0576040517f08c379a0000000000000000000000000000000000000000000000000000000008152600401610fc790612998565b60405180910390fd5b600073ffffffffffffffffffffffffffffffffffffffff168273ffffffffffffffffffffffffffffffffffffffff160361103f576040517f08c379a000000000000000000000000000000000000000000000000000000000815260040161103690612a2a565b60405180910390fd5b61104c838383600161159c565b8273ffffffffffffffffffffffffffffffffffffffff1661106c826108ef565b73ffffffffffffffffffffffffffffffffffffffff16146110c2576040517f08c379a00000000000000000000000000000000000000000000000000000000081526004016110b990612998565b60405180910390fd5b6004600082815260200190815260200160002060006101000a81549073ffffffffffffffffffffffffffffffffffffffff02191690556001600360008573ffffffffffffffffffffffffffffffffffffffff1673ffffffffffffffffffffffffffffffffffffffff168152602001908152602001600020600082825403925050819055506001600360008473ffffffffffffffffffffffffffffffffffffffff1673ffffffffffffffffffffffffffffffffffffffff16815260200190815260200160002060008282540192505081905550816002600083815260200190815260200160002060006101000a81548173ffffffffffffffffffffffffffffffffffffffff021916908373ffffffffffffffffffffffffffffffffffffffff160217905550808273ffffffffffffffffffffffffffffffffffffffff168473ffffffffffffffffffffffffffffffffffffffff167fddf252ad1be2c89b69c2b068fc378daa952ba7f163c4a11628f55a4df523b3ef60405160405180910390a461124e83838360016115a2565b505050565b60006002600083815260200190815260200160002060009054906101000a900473ffffffffffffffffffffffffffffffffffffffff169050919050565b6112aa8282604051806020016040528060008152506115a8565b5050565b8173ffffffffffffffffffffffffffffffffffffffff168373ffffffffffffffffffffffffffffffffffffffff160361131c576040517f08c379a000000000000000000000000000000000000000000000000000000000815260040161131390612a96565b60405180910390fd5b80600560008573ffffffffffffffffffffffffffffffffffffffff1673ffffffffffffffffffffffffffffffffffffffff16815260200190815260200160002060008473ffffffffffffffffffffffffffffffffffffffff1673ffffffffffffffffffffffffffffffffffffffff16815260200190815260200160002060006101000a81548160ff0219169083151502179055508173ffffffffffffffffffffffffffffffffffffffff168373ffffffffffffffffffffffffffffffffffffffff167f17307eab39ab6107e8899845ad3d59bd9653f200f220920489ca2b5937696c318360405161140d9190611bf4565b60405180910390a3505050565b611425848484610f5a565b61143184848484611603565b611470576040517f08c379a000000000000000000000000000000000000000000000000000000000815260040161146790612b28565b60405180910390fd5b50505050565b606060405180602001604052806000815250905090565b60606000600161149c8461178a565b01905060008167ffffffffffffffff8111156114bb576114ba611e73565b5b6040519080825280601f01601f1916602001820160405280156114ed5781602001600182028036833780820191505090505b509050600082602001820190505b600115611550578080600190039150507f3031323334353637383961626364656600000000000000000000000000000000600a86061a8153600a858161154457611543612b48565b5b049450600085036114fb575b819350505050919050565b60008073ffffffffffffffffffffffffffffffffffffffff1661157d83611253565b73ffffffffffffffffffffffffffffffffffffffff1614159050919050565b50505050565b50505050565b6115b283836118dd565b6115bf6000848484611603565b6115fe576040517f08c379a00000000000000000000000000000000000000000000000000000000081526004016115f590612b28565b60405180910390fd5b505050565b60006116248473ffffffffffffffffffffffffffffffffffffffff16611afa565b1561177d578373ffffffffffffffffffffffffffffffffffffffff1663150b7a0261164d610e04565b8786866040518563ffffffff1660e01b815260040161166f9493929190612bcc565b6020604051808303816000875af19250505080156116ab57506040513d601f19601f820116820180604052508101906116a89190612c2d565b60015b61172d573d80600081146116db576040519150601f19603f3d011682016040523d82523d6000602084013e6116e0565b606091505b506000815103611725576040517f08c379a000000000000000000000000000000000000000000000000000000000815260040161171c90612b28565b60405180910390fd5b805181602001fd5b63150b7a0260e01b7bffffffffffffffffffffffffffffffffffffffffffffffffffffffff1916817bffffffffffffffffffffffffffffffffffffffffffffffffffffffff191614915050611782565b600190505b949350505050565b600080600090507a184f03e93ff9f4daa797ed6e38ed64bf6a1f01000000000000000083106117e8577a184f03e93ff9f4daa797ed6e38ed64bf6a1f01000000000000000083816117de576117dd612b48565b5b0492506040810190505b6d04ee2d6d415b85acef81000000008310611825576d04ee2d6d415b85acef8100000000838161181b5761181a612b48565b5b0492506020810190505b662386f26fc10000831061185457662386f26fc10000838161184a57611849612b48565b5b0492506010810190505b6305f5e100831061187d576305f5e100838161187357611872612b48565b5b0492506008810190505b61271083106118a257612710838161189857611897612b48565b5b0492506004810190505b606483106118c557606483816118bb576118ba612b48565b5b0492506002810190505b600a83106118d4576001810190505b80915050919050565b600073ffffffffffffffffffffffffffffffffffffffff168273ffffffffffffffffffffffffffffffffffffffff160361194c576040517f08c379a000000000000000000000000000000000000000000000000000000000815260040161194390612ca6565b60405180910390fd5b6119558161155b565b15611995576040517f08c379a000000000000000000000000000000000000000000000000000000000815260040161198c90612d12565b60405180910390fd5b6119a360008383600161159c565b6119ac8161155b565b156119ec576040517f08c379a00000000000000000000000000000000000000000000000000000000081526004016119e390612d12565b60405180910390fd5b6001600360008473ffffffffffffffffffffffffffffffffffffffff1673ffffffffffffffffffffffffffffffffffffffff16815260200190815260200160002060008282540192505081905550816002600083815260200190815260200160002060006101000a81548173ffffffffffffffffffffffffffffffffffffffff021916908373ffffffffffffffffffffffffffffffffffffffff160217905550808273ffffffffffffffffffffffffffffffffffffffff16600073ffffffffffffffffffffffffffffffffffffffff167fddf252ad1be2c89b69c2b068fc378daa952ba7f163c4a11628f55a4df523b3ef60405160405180910390a4611af66000838360016115a2565b5050565b6000808273ffffffffffffffffffffffffffffffffffffffff163b119050919050565b604051806060016040528060608152602001600081526020016000151581525090565b6000604051905090565b600080fd5b600080fd5b60007fffffffff0000000000000000000000000000000000000000000000000000000082169050919050565b611b8981611b54565b8114611b9457600080fd5b50565b600081359050611ba681611b80565b92915050565b600060208284031215611bc257611bc1611b4a565b5b6000611bd084828501611b97565b91505092915050565b60008115159050919050565b611bee81611bd9565b82525050565b6000602082019050611c096000830184611be5565b92915050565b600081519050919050565b600082825260208201905092915050565b60005b83811015611c49578082015181840152602081019050611c2e565b60008484015250505050565b6000601f19601f8301169050919050565b6000611c7182611c0f565b611c7b8185611c1a565b9350611c8b818560208601611c2b565b611c9481611c55565b840191505092915050565b60006020820190508181036000830152611cb98184611c66565b905092915050565b6000819050919050565b611cd481611cc1565b8114611cdf57600080fd5b50565b600081359050611cf181611ccb565b92915050565b600060208284031215611d0d57611d0c611b4a565b5b6000611d1b84828501611ce2565b91505092915050565b600073ffffffffffffffffffffffffffffffffffffffff82169050919050565b6000611d4f82611d24565b9050919050565b611d5f81611d44565b82525050565b6000602082019050611d7a6000830184611d56565b92915050565b611d8981611d44565b8114611d9457600080fd5b50565b600081359050611da681611d80565b92915050565b60008060408385031215611dc357611dc2611b4a565b5b6000611dd185828601611d97565b9250506020611de285828601611ce2565b9150509250929050565b611df581611cc1565b82525050565b6000602082019050611e106000830184611dec565b92915050565b600080600060608486031215611e2f57611e2e611b4a565b5b6000611e3d86828701611d97565b9350506020611e4e86828701611d97565b9250506040611e5f86828701611ce2565b9150509250925092565b600080fd5b600080fd5b7f4e487b7100000000000000000000000000000000000000000000000000000000600052604160045260246000fd5b611eab82611c55565b810181811067ffffffffffffffff82111715611eca57611ec9611e73565b5b80604052505050565b6000611edd611b40565b9050611ee98282611ea2565b919050565b600067ffffffffffffffff821115611f0957611f08611e73565b5b611f1282611c55565b9050602081019050919050565b82818337600083830152505050565b6000611f41611f3c84611eee565b611ed3565b905082815260208101848484011115611f5d57611f5c611e6e565b5b611f68848285611f1f565b509392505050565b600082601f830112611f8557611f84611e69565b5b8135611f95848260208601611f2e565b91505092915050565b60008060408385031215611fb557611fb4611b4a565b5b600083013567ffffffffffffffff811115611fd357611fd2611b4f565b5b611fdf85828601611f70565b9250506020611ff085828601611ce2565b9150509250929050565b6000602082840312156120105761200f611b4a565b5b600061201e84828501611d97565b91505092915050565b61203081611bd9565b811461203b57600080fd5b50565b60008135905061204d81612027565b92915050565b6000806040838503121561206a57612069611b4a565b5b600061207885828601611d97565b92505060206120898582860161203e565b9150509250929050565b600082825260208201905092915050565b60006120af82611c0f565b6120b98185612093565b93506120c9818560208601611c2b565b6120d281611c55565b840191505092915050565b6120e681611cc1565b82525050565b6120f581611bd9565b82525050565b6000606083016000830151848203600086015261211882826120a4565b915050602083015161212d60208601826120dd565b50604083015161214060408601826120ec565b508091505092915050565b6000602082019050818103600083015261216581846120fb565b905092915050565b600067ffffffffffffffff82111561218857612187611e73565b5b61219182611c55565b9050602081019050919050565b60006121b16121ac8461216d565b611ed3565b9050828152602081018484840111156121cd576121cc611e6e565b5b6121d8848285611f1f565b509392505050565b600082601f8301126121f5576121f4611e69565b5b813561220584826020860161219e565b91505092915050565b6000806000806080858703121561222857612227611b4a565b5b600061223687828801611d97565b945050602061224787828801611d97565b935050604061225887828801611ce2565b925050606085013567ffffffffffffffff81111561227957612278611b4f565b5b612285878288016121e0565b91505092959194509250565b600080604083850312156122a8576122a7611b4a565b5b60006122b685828601611d97565b92505060206122c785828601611d97565b9150509250929050565b7f4e487b7100000000000000000000000000000000000000000000000000000000600052602260045260246000fd5b6000600282049050600182168061231857607f821691505b60208210810361232b5761232a6122d1565b5b50919050565b7f4552433732313a20617070726f76616c20746f2063757272656e74206f776e6560008201527f7200000000000000000000000000000000000000000000000000000000000000602082015250565b600061238d602183611c1a565b915061239882612331565b604082019050919050565b600060208201905081810360008301526123bc81612380565b9050919050565b7f4552433732313a20617070726f76652063616c6c6572206973206e6f7420746f60008201527f6b656e206f776e6572206f7220617070726f76656420666f7220616c6c000000602082015250565b600061241f603d83611c1a565b915061242a826123c3565b604082019050919050565b6000602082019050818103600083015261244e81612412565b9050919050565b7f4552433732313a2063616c6c6572206973206e6f7420746f6b656e206f776e6560008201527f72206f7220617070726f76656400000000000000000000000000000000000000602082015250565b60006124b1602d83611c1a565b91506124bc82612455565b604082019050919050565b600060208201905081810360008301526124e0816124a4565b9050919050565b7f4e487b7100000000000000000000000000000000000000000000000000000000600052601160045260246000fd5b600061252182611cc1565b915061252c83611cc1565b9250828201905080821115612544576125436124e7565b5b92915050565b60008190508160005260206000209050919050565b60006020601f8301049050919050565b600082821b905092915050565b6000600883026125ac7fffffffffffffffffffffffffffffffffffffffffffffffffffffffffffffffff8261256f565b6125b6868361256f565b95508019841693508086168417925050509392505050565b6000819050919050565b60006125f36125ee6125e984611cc1565b6125ce565b611cc1565b9050919050565b6000819050919050565b61260d836125d8565b612621612619826125fa565b84845461257c565b825550505050565b600090565b612636612629565b612641818484612604565b505050565b5b818110156126655761265a60008261262e565b600181019050612647565b5050565b601f8211156126aa5761267b8161254a565b6126848461255f565b81016020851015612693578190505b6126a761269f8561255f565b830182612646565b50505b505050565b600082821c905092915050565b60006126cd600019846008026126af565b1980831691505092915050565b60006126e683836126bc565b9150826002028217905092915050565b6126ff82611c0f565b67ffffffffffffffff81111561271857612717611e73565b5b6127228254612300565b61272d828285612669565b600060209050601f831160018114612760576000841561274e578287015190505b61275885826126da565b8655506127c0565b601f19841661276e8661254a565b60005b8281101561279657848901518255600182019150602085019450602081019050612771565b868310156127b357848901516127af601f8916826126bc565b8355505b6001600288020188555050505b505050505050565b7f4552433732313a20696e76616c696420746f6b656e2049440000000000000000600082015250565b60006127fe601883611c1a565b9150612809826127c8565b602082019050919050565b6000602082019050818103600083015261282d816127f1565b9050919050565b7f4552433732313a2061646472657373207a65726f206973206e6f74206120766160008201527f6c6964206f776e65720000000000000000000000000000000000000000000000602082015250565b6000612890602983611c1a565b915061289b82612834565b604082019050919050565b600060208201905081810360008301526128bf81612883565b9050919050565b600081905092915050565b60006128dc82611c0f565b6128e681856128c6565b93506128f6818560208601611c2b565b80840191505092915050565b600061290e82856128d1565b915061291a82846128d1565b91508190509392505050565b7f4552433732313a207472616e736665722066726f6d20696e636f72726563742060008201527f6f776e6572000000000000000000000000000000000000000000000000000000602082015250565b6000612982602583611c1a565b915061298d82612926565b604082019050919050565b600060208201905081810360008301526129b181612975565b9050919050565b7f4552433732313a207472616e7366657220746f20746865207a65726f2061646460008201527f7265737300000000000000000000000000000000000000000000000000000000602082015250565b6000612a14602483611c1a565b9150612a1f826129b8565b604082019050919050565b60006020820190508181036000830152612a4381612a07565b9050919050565b7f4552433732313a20617070726f766520746f2063616c6c657200000000000000600082015250565b6000612a80601983611c1a565b9150612a8b82612a4a565b602082019050919050565b60006020820190508181036000830152612aaf81612a73565b9050919050565b7f4552433732313a207472616e7366657220746f206e6f6e20455243373231526560008201527f63656976657220696d706c656d656e7465720000000000000000000000000000602082015250565b6000612b12603283611c1a565b9150612b1d82612ab6565b604082019050919050565b60006020820190508181036000830152612b4181612b05565b9050919050565b7f4e487b7100000000000000000000000000000000000000000000000000000000600052601260045260246000fd5b600081519050919050565b600082825260208201905092915050565b6000612b9e82612b77565b612ba88185612b82565b9350612bb8818560208601611c2b565b612bc181611c55565b840191505092915050565b6000608082019050612be16000830187611d56565b612bee6020830186611d56565b612bfb6040830185611dec565b8181036060830152612c0d8184612b93565b905095945050505050565b600081519050612c2781611b80565b92915050565b600060208284031215612c4357612c42611b4a565b5b6000612c5184828501612c18565b91505092915050565b7f4552433732313a206d696e7420746f20746865207a65726f2061646472657373600082015250565b6000612c90602083611c1a565b9150612c9b82612c5a565b602082019050919050565b60006020820190508181036000830152612cbf81612c83565b9050919050565b7f4552433732313a20746f6b656e20616c7265616479206d696e74656400000000600082015250565b6000612cfc601c83611c1a565b9150612d0782612cc6565b602082019050919050565b60006020820190508181036000830152612d2b81612cef565b905091905056fea26469706673582212201ae35941465d536c5eead8727517eb7b12b57aa3a61ea72b4a87c730fe5f8f3a64736f6c63430008110033",
  "linkReferences": {},
  "deployedLinkReferences": {}
}